{
  "_format": "hh3-artifact-1",
  "contractName": "TokenReceiver",
  "sourceName": "contracts/TokenReceiver.sol",
  "abi": [
    {
      "inputs": [
        {
          "internalType": "address",
          "name": "_mnee",
          "type": "address"
        }
      ],
      "stateMutability": "nonpayable",
      "type": "constructor"
    },
    {
      "anonymous": false,
      "inputs": [
        {
          "indexed": true,
          "internalType": "address",
          "name": "from",
          "type": "address"
        },
        {
          "indexed": false,
          "internalType": "uint256",
          "name": "amount",
          "type": "uint256"
        },
        {
          "indexed": false,
          "internalType": "address",
          "name": "destination",
          "type": "address"
        },
        {
          "indexed": false,
          "internalType": "bytes",
          "name": "action",
          "type": "bytes"
        }
      ],
      "name": "DepositIntent",
      "type": "event"
    },
    {
      "inputs": [],
      "name": "MESSENGER_HOST",
      "outputs": [
        {
          "internalType": "address",
          "name": "",
          "type": "address"
        }
      ],
      "stateMutability": "view",
      "type": "function"
    },
    {
      "inputs": [
        {
          "internalType": "address",
          "name": "polkadotAccount",
          "type": "address"
        },
        {
          "internalType": "uint256",
          "name": "amount",
          "type": "uint256"
        },
        {
          "internalType": "bytes",
          "name": "action",
          "type": "bytes"
        }
      ],
      "name": "deposit",
      "outputs": [],
      "stateMutability": "payable",
      "type": "function"
    },
    {
      "inputs": [
        {
          "internalType": "address",
          "name": "",
          "type": "address"
        }
      ],
      "name": "deposits",
      "outputs": [
        {
          "internalType": "uint256",
          "name": "",
          "type": "uint256"
        }
      ],
      "stateMutability": "view",
      "type": "function"
    },
    {
      "inputs": [],
      "name": "mnee",
      "outputs": [
        {
          "internalType": "contract IERC20",
          "name": "",
          "type": "address"
        }
      ],
      "stateMutability": "view",
      "type": "function"
    }
  ],
  "bytecode": "0x60a0604052348015600e575f5ffd5b5060405161088c38038061088c833981016040819052602b91603b565b6001600160a01b03166080526066565b5f60208284031215604a575f5ffd5b81516001600160a01b0381168114605f575f5ffd5b9392505050565b6080516108086100845f395f818160ac015261012901526108085ff3fe60806040526004361061003e575f3560e01c80630bafe30d1461004257806349bdc2b81461008657806379b34cce1461009b578063fc7e286d146100ce575b5f5ffd5b34801561004d575f5ffd5b50610069732edb74c269948b60ec1000040e104cef0eabaae881565b6040516001600160a01b0390911681526020015b60405180910390f35b610099610094366004610556565b610107565b005b3480156100a6575f5ffd5b506100697f000000000000000000000000000000000000000000000000000000000000000081565b3480156100d9575f5ffd5b506100f96100e83660046105d9565b5f6020819052908152604090205481565b60405190815260200161007d565b6040516323b872dd60e01b8152336004820152306024820152604481018490527f00000000000000000000000000000000000000000000000000000000000000006001600160a01b0316906323b872dd906064016020604051808303815f875af1158015610177573d5f5f3e3d5ffd5b505050506040513d601f19601f8201168201806040525081019061019b91906105f9565b6101dd5760405162461bcd60e51b815260206004820152600f60248201526e1d1c985b9cd9995c8819985a5b1959608a1b604482015260640160405180910390fd5b335f90815260208190526040812080548592906101fb90849061062c565b925050819055505f6040518060c001604052806102196103e86103a2565b815260200186604051602001610247919060609190911b6bffffffffffffffffffffffff1916815260140190565b604051602081830303815290604052815260200184848080601f0160208091040260200160405190810160405280939291908181526020018383808284375f920191909152505050908252506020016102a242610e1061062c565b67ffffffffffffffff1681526020016103e86102bf87600161063f565b6102c99190610656565b81523260209091015260405163b8f3e8f560e01b81529091505f90732edb74c269948b60ec1000040e104cef0eabaae89063b8f3e8f59034906103109086906004016106a3565b60206040518083038185885af115801561032c573d5f5f3e3d5ffd5b50505050506040513d601f19601f820116820180604052508101906103519190610736565b9050336001600160a01b03167f219448194c73294ee0742e659fadd75fb1c2d15e1dc339d4ef06f576292d0e0586888787604051610392949392919061074d565b60405180910390a2505050505050565b60606103ad826103d3565b6040516020016103bd9190610793565b6040516020818303038152906040529050919050565b60605f6103df83610463565b60010190505f8167ffffffffffffffff8111156103fe576103fe6107be565b6040519080825280601f01601f191660200182016040528015610428576020820181803683370190505b5090508181016020015b5f19016f181899199a1a9b1b9c1cb0b131b232b360811b600a86061a8153600a850494508461043257509392505050565b5f8072184f03e93ff9f4daa797ed6e38ed64bf6a1f0160401b83106104a15772184f03e93ff9f4daa797ed6e38ed64bf6a1f0160401b830492506040015b6d04ee2d6d415b85acef810000000083106104cd576d04ee2d6d415b85acef8100000000830492506020015b662386f26fc1000083106104eb57662386f26fc10000830492506010015b6305f5e1008310610503576305f5e100830492506008015b612710831061051757612710830492506004015b60648310610529576064830492506002015b600a8310610535576001015b92915050565b80356001600160a01b0381168114610551575f5ffd5b919050565b5f5f5f5f60608587031215610569575f5ffd5b6105728561053b565b935060208501359250604085013567ffffffffffffffff811115610594575f5ffd5b8501601f810187136105a4575f5ffd5b803567ffffffffffffffff8111156105ba575f5ffd5b8760208284010111156105cb575f5ffd5b949793965060200194505050565b5f602082840312156105e9575f5ffd5b6105f28261053b565b9392505050565b5f60208284031215610609575f5ffd5b815180151581146105f2575f5ffd5b634e487b7160e01b5f52601160045260245ffd5b8082018082111561053557610535610618565b808202811582820484141761053557610535610618565b5f8261067057634e487b7160e01b5f52601260045260245ffd5b500490565b5f81518084528060208401602086015e5f602082860101526020601f19601f83011685010191505092915050565b602081525f825160c060208401526106be60e0840182610675565b90506020840151601f198483030160408501526106db8282610675565b9150506040840151601f198483030160608501526106f98282610675565b91505067ffffffffffffffff6060850151166080840152608084015160a084015260018060a01b0360a08501511660c08401528091505092915050565b5f60208284031215610746575f5ffd5b5051919050565b8481526001600160a01b03841660208201526060604082018190528101829052818360808301375f818301608090810191909152601f909201601f191601019392505050565b68504f4c4b41444f542d60b81b81525f82518060208501600985015e5f920160090191825250919050565b634e487b7160e01b5f52604160045260245ffdfea2646970667358221220595b23b76b19f238a299338e5293044c3400a1d21309bf839f719dfffcaccdd164736f6c634300081c0033",
  "linkReferences": {},
  "deployedLinkReferences": {},
  "immutableReferences": {
    "5073": [
      {
        "length": 32,
        "start": 172
      },
      {
        "length": 32,
        "start": 297
      }
    ]
  },
  "inputSourceName": "project/contracts/TokenReceiver.sol",
  "buildInfoId": "solc-0_8_28-abad138e68fae89bf374fd118e624af6597162d8"
}