{
  "contracts/TreasuryController.sol": {
    "TreasuryController": {
      "abi": [
        {
          "inputs": [
            {
              "internalType": "address",
              "name": "ismpHost",
              "type": "address"
            }
          ],
          "stateMutability": "nonpayable",
          "type": "constructor"
        },
        {
          "inputs": [],
          "name": "UnauthorizedCall",
          "type": "error"
        },
        {
          "inputs": [],
          "name": "UnexpectedCall",
          "type": "error"
        },
        {
          "anonymous": false,
          "inputs": [],
          "name": "PostReceived",
          "type": "event"
        },
        {
          "inputs": [],
          "name": "hasReceived",
          "outputs": [
            {
              "internalType": "bool",
              "name": "",
              "type": "bool"
            }
          ],
          "stateMutability": "view",
          "type": "function"
        },
        {
          "inputs": [],
          "name": "host",
          "outputs": [
            {
              "internalType": "address",
              "name": "",
              "type": "address"
            }
          ],
          "stateMutability": "view",
          "type": "function"
        },
        {
          "inputs": [
            {
              "components": [
                {
                  "components": [
                    {
                      "internalType": "bytes",
                      "name": "source",
                      "type": "bytes"
                    },
                    {
                      "internalType": "bytes",
                      "name": "dest",
                      "type": "bytes"
                    },
                    {
                      "internalType": "uint64",
                      "name": "nonce",
                      "type": "uint64"
                    },
                    {
                      "internalType": "bytes",
                      "name": "from",
                      "type": "bytes"
                    },
                    {
                      "internalType": "bytes",
                      "name": "to",
                      "type": "bytes"
                    },
                    {
                      "internalType": "uint64",
                      "name": "timeoutTimestamp",
                      "type": "uint64"
                    },
                    {
                      "internalType": "bytes",
                      "name": "body",
                      "type": "bytes"
                    }
                  ],
                  "internalType": "struct PostRequest",
                  "name": "request",
                  "type": "tuple"
                },
                {
                  "internalType": "address",
                  "name": "relayer",
                  "type": "address"
                }
              ],
              "internalType": "struct IncomingPostRequest",
              "name": "incoming",
              "type": "tuple"
            }
          ],
          "name": "onAccept",
          "outputs": [],
          "stateMutability": "nonpayable",
          "type": "function"
        },
        {
          "inputs": [
            {
              "components": [
                {
                  "components": [
                    {
                      "components": [
                        {
                          "internalType": "bytes",
                          "name": "source",
                          "type": "bytes"
                        },
                        {
                          "internalType": "bytes",
                          "name": "dest",
                          "type": "bytes"
                        },
                        {
                          "internalType": "uint64",
                          "name": "nonce",
                          "type": "uint64"
                        },
                        {
                          "internalType": "address",
                          "name": "from",
                          "type": "address"
                        },
                        {
                          "internalType": "uint64",
                          "name": "timeoutTimestamp",
                          "type": "uint64"
                        },
                        {
                          "internalType": "bytes[]",
                          "name": "keys",
                          "type": "bytes[]"
                        },
                        {
                          "internalType": "uint64",
                          "name": "height",
                          "type": "uint64"
                        },
                        {
                          "internalType": "bytes",
                          "name": "context",
                          "type": "bytes"
                        }
                      ],
                      "internalType": "struct GetRequest",
                      "name": "request",
                      "type": "tuple"
                    },
                    {
                      "components": [
                        {
                          "internalType": "bytes",
                          "name": "key",
                          "type": "bytes"
                        },
                        {
                          "internalType": "bytes",
                          "name": "value",
                          "type": "bytes"
                        }
                      ],
                      "internalType": "struct StorageValue[]",
                      "name": "values",
                      "type": "tuple[]"
                    }
                  ],
                  "internalType": "struct GetResponse",
                  "name": "response",
                  "type": "tuple"
                },
                {
                  "internalType": "address",
                  "name": "relayer",
                  "type": "address"
                }
              ],
              "internalType": "struct IncomingGetResponse",
              "name": "",
              "type": "tuple"
            }
          ],
          "name": "onGetResponse",
          "outputs": [],
          "stateMutability": "nonpayable",
          "type": "function"
        },
        {
          "inputs": [
            {
              "components": [
                {
                  "internalType": "bytes",
                  "name": "source",
                  "type": "bytes"
                },
                {
                  "internalType": "bytes",
                  "name": "dest",
                  "type": "bytes"
                },
                {
                  "internalType": "uint64",
                  "name": "nonce",
                  "type": "uint64"
                },
                {
                  "internalType": "address",
                  "name": "from",
                  "type": "address"
                },
                {
                  "internalType": "uint64",
                  "name": "timeoutTimestamp",
                  "type": "uint64"
                },
                {
                  "internalType": "bytes[]",
                  "name": "keys",
                  "type": "bytes[]"
                },
                {
                  "internalType": "uint64",
                  "name": "height",
                  "type": "uint64"
                },
                {
                  "internalType": "bytes",
                  "name": "context",
                  "type": "bytes"
                }
              ],
              "internalType": "struct GetRequest",
              "name": "",
              "type": "tuple"
            }
          ],
          "name": "onGetTimeout",
          "outputs": [],
          "stateMutability": "nonpayable",
          "type": "function"
        },
        {
          "inputs": [
            {
              "components": [
                {
                  "internalType": "bytes",
                  "name": "source",
                  "type": "bytes"
                },
                {
                  "internalType": "bytes",
                  "name": "dest",
                  "type": "bytes"
                },
                {
                  "internalType": "uint64",
                  "name": "nonce",
                  "type": "uint64"
                },
                {
                  "internalType": "bytes",
                  "name": "from",
                  "type": "bytes"
                },
                {
                  "internalType": "bytes",
                  "name": "to",
                  "type": "bytes"
                },
                {
                  "internalType": "uint64",
                  "name": "timeoutTimestamp",
                  "type": "uint64"
                },
                {
                  "internalType": "bytes",
                  "name": "body",
                  "type": "bytes"
                }
              ],
              "internalType": "struct PostRequest",
              "name": "",
              "type": "tuple"
            }
          ],
          "name": "onPostRequestTimeout",
          "outputs": [],
          "stateMutability": "nonpayable",
          "type": "function"
        },
        {
          "inputs": [
            {
              "components": [
                {
                  "components": [
                    {
                      "components": [
                        {
                          "internalType": "bytes",
                          "name": "source",
                          "type": "bytes"
                        },
                        {
                          "internalType": "bytes",
                          "name": "dest",
                          "type": "bytes"
                        },
                        {
                          "internalType": "uint64",
                          "name": "nonce",
                          "type": "uint64"
                        },
                        {
                          "internalType": "bytes",
                          "name": "from",
                          "type": "bytes"
                        },
                        {
                          "internalType": "bytes",
                          "name": "to",
                          "type": "bytes"
                        },
                        {
                          "internalType": "uint64",
                          "name": "timeoutTimestamp",
                          "type": "uint64"
                        },
                        {
                          "internalType": "bytes",
                          "name": "body",
                          "type": "bytes"
                        }
                      ],
                      "internalType": "struct PostRequest",
                      "name": "request",
                      "type": "tuple"
                    },
                    {
                      "internalType": "bytes",
                      "name": "response",
                      "type": "bytes"
                    },
                    {
                      "internalType": "uint64",
                      "name": "timeoutTimestamp",
                      "type": "uint64"
                    }
                  ],
                  "internalType": "struct PostResponse",
                  "name": "response",
                  "type": "tuple"
                },
                {
                  "internalType": "address",
                  "name": "relayer",
                  "type": "address"
                }
              ],
              "internalType": "struct IncomingPostResponse",
              "name": "",
              "type": "tuple"
            }
          ],
          "name": "onPostResponse",
          "outputs": [],
          "stateMutability": "nonpayable",
          "type": "function"
        },
        {
          "inputs": [
            {
              "components": [
                {
                  "components": [
                    {
                      "internalType": "bytes",
                      "name": "source",
                      "type": "bytes"
                    },
                    {
                      "internalType": "bytes",
                      "name": "dest",
                      "type": "bytes"
                    },
                    {
                      "internalType": "uint64",
                      "name": "nonce",
                      "type": "uint64"
                    },
                    {
                      "internalType": "bytes",
                      "name": "from",
                      "type": "bytes"
                    },
                    {
                      "internalType": "bytes",
                      "name": "to",
                      "type": "bytes"
                    },
                    {
                      "internalType": "uint64",
                      "name": "timeoutTimestamp",
                      "type": "uint64"
                    },
                    {
                      "internalType": "bytes",
                      "name": "body",
                      "type": "bytes"
                    }
                  ],
                  "internalType": "struct PostRequest",
                  "name": "request",
                  "type": "tuple"
                },
                {
                  "internalType": "bytes",
                  "name": "response",
                  "type": "bytes"
                },
                {
                  "internalType": "uint64",
                  "name": "timeoutTimestamp",
                  "type": "uint64"
                }
              ],
              "internalType": "struct PostResponse",
              "name": "",
              "type": "tuple"
            }
          ],
          "name": "onPostResponseTimeout",
          "outputs": [],
          "stateMutability": "nonpayable",
          "type": "function"
        },
        {
          "inputs": [
            {
              "components": [
                {
                  "internalType": "bytes",
                  "name": "dest",
                  "type": "bytes"
                },
                {
                  "internalType": "bytes",
                  "name": "to",
                  "type": "bytes"
                },
                {
                  "internalType": "bytes",
                  "name": "body",
                  "type": "bytes"
                },
                {
                  "internalType": "uint64",
                  "name": "timeout",
                  "type": "uint64"
                },
                {
                  "internalType": "uint256",
                  "name": "fee",
                  "type": "uint256"
                },
                {
                  "internalType": "address",
                  "name": "payer",
                  "type": "address"
                }
              ],
              "internalType": "struct DispatchPost",
              "name": "request",
              "type": "tuple"
            }
          ],
          "name": "quote",
          "outputs": [
            {
              "internalType": "uint256",
              "name": "",
              "type": "uint256"
            }
          ],
          "stateMutability": "view",
          "type": "function"
        },
        {
          "inputs": [
            {
              "components": [
                {
                  "internalType": "bytes",
                  "name": "dest",
                  "type": "bytes"
                },
                {
                  "internalType": "uint64",
                  "name": "height",
                  "type": "uint64"
                },
                {
                  "internalType": "bytes[]",
                  "name": "keys",
                  "type": "bytes[]"
                },
                {
                  "internalType": "uint64",
                  "name": "timeout",
                  "type": "uint64"
                },
                {
                  "internalType": "uint256",
                  "name": "fee",
                  "type": "uint256"
                },
                {
                  "internalType": "bytes",
                  "name": "context",
                  "type": "bytes"
                }
              ],
              "internalType": "struct DispatchGet",
              "name": "request",
              "type": "tuple"
            }
          ],
          "name": "quote",
          "outputs": [
            {
              "internalType": "uint256",
              "name": "",
              "type": "uint256"
            }
          ],
          "stateMutability": "view",
          "type": "function"
        },
        {
          "inputs": [
            {
              "components": [
                {
                  "components": [
                    {
                      "internalType": "bytes",
                      "name": "source",
                      "type": "bytes"
                    },
                    {
                      "internalType": "bytes",
                      "name": "dest",
                      "type": "bytes"
                    },
                    {
                      "internalType": "uint64",
                      "name": "nonce",
                      "type": "uint64"
                    },
                    {
                      "internalType": "bytes",
                      "name": "from",
                      "type": "bytes"
                    },
                    {
                      "internalType": "bytes",
                      "name": "to",
                      "type": "bytes"
                    },
                    {
                      "internalType": "uint64",
                      "name": "timeoutTimestamp",
                      "type": "uint64"
                    },
                    {
                      "internalType": "bytes",
                      "name": "body",
                      "type": "bytes"
                    }
                  ],
                  "internalType": "struct PostRequest",
                  "name": "request",
                  "type": "tuple"
                },
                {
                  "internalType": "bytes",
                  "name": "response",
                  "type": "bytes"
                },
                {
                  "internalType": "uint64",
                  "name": "timeout",
                  "type": "uint64"
                },
                {
                  "internalType": "uint256",
                  "name": "fee",
                  "type": "uint256"
                },
                {
                  "internalType": "address",
                  "name": "payer",
                  "type": "address"
                }
              ],
              "internalType": "struct DispatchPostResponse",
              "name": "response",
              "type": "tuple"
            }
          ],
          "name": "quote",
          "outputs": [
            {
              "internalType": "uint256",
              "name": "",
              "type": "uint256"
            }
          ],
          "stateMutability": "view",
          "type": "function"
        },
        {
          "inputs": [
            {
              "components": [
                {
                  "internalType": "bytes",
                  "name": "dest",
                  "type": "bytes"
                },
                {
                  "internalType": "bytes",
                  "name": "to",
                  "type": "bytes"
                },
                {
                  "internalType": "bytes",
                  "name": "body",
                  "type": "bytes"
                },
                {
                  "internalType": "uint64",
                  "name": "timeout",
                  "type": "uint64"
                },
                {
                  "internalType": "uint256",
                  "name": "fee",
                  "type": "uint256"
                },
                {
                  "internalType": "address",
                  "name": "payer",
                  "type": "address"
                }
              ],
              "internalType": "struct DispatchPost",
              "name": "request",
              "type": "tuple"
            }
          ],
          "name": "quoteNative",
          "outputs": [
            {
              "internalType": "uint256",
              "name": "",
              "type": "uint256"
            }
          ],
          "stateMutability": "view",
          "type": "function"
        },
        {
          "inputs": [
            {
              "components": [
                {
                  "components": [
                    {
                      "internalType": "bytes",
                      "name": "source",
                      "type": "bytes"
                    },
                    {
                      "internalType": "bytes",
                      "name": "dest",
                      "type": "bytes"
                    },
                    {
                      "internalType": "uint64",
                      "name": "nonce",
                      "type": "uint64"
                    },
                    {
                      "internalType": "bytes",
                      "name": "from",
                      "type": "bytes"
                    },
                    {
                      "internalType": "bytes",
                      "name": "to",
                      "type": "bytes"
                    },
                    {
                      "internalType": "uint64",
                      "name": "timeoutTimestamp",
                      "type": "uint64"
                    },
                    {
                      "internalType": "bytes",
                      "name": "body",
                      "type": "bytes"
                    }
                  ],
                  "internalType": "struct PostRequest",
                  "name": "request",
                  "type": "tuple"
                },
                {
                  "internalType": "bytes",
                  "name": "response",
                  "type": "bytes"
                },
                {
                  "internalType": "uint64",
                  "name": "timeout",
                  "type": "uint64"
                },
                {
                  "internalType": "uint256",
                  "name": "fee",
                  "type": "uint256"
                },
                {
                  "internalType": "address",
                  "name": "payer",
                  "type": "address"
                }
              ],
              "internalType": "struct DispatchPostResponse",
              "name": "request",
              "type": "tuple"
            }
          ],
          "name": "quoteNative",
          "outputs": [
            {
              "internalType": "uint256",
              "name": "",
              "type": "uint256"
            }
          ],
          "stateMutability": "view",
          "type": "function"
        },
        {
          "inputs": [
            {
              "components": [
                {
                  "internalType": "bytes",
                  "name": "dest",
                  "type": "bytes"
                },
                {
                  "internalType": "uint64",
                  "name": "height",
                  "type": "uint64"
                },
                {
                  "internalType": "bytes[]",
                  "name": "keys",
                  "type": "bytes[]"
                },
                {
                  "internalType": "uint64",
                  "name": "timeout",
                  "type": "uint64"
                },
                {
                  "internalType": "uint256",
                  "name": "fee",
                  "type": "uint256"
                },
                {
                  "internalType": "bytes",
                  "name": "context",
                  "type": "bytes"
                }
              ],
              "internalType": "struct DispatchGet",
              "name": "request",
              "type": "tuple"
            }
          ],
          "name": "quoteNative",
          "outputs": [
            {
              "internalType": "uint256",
              "name": "",
              "type": "uint256"
            }
          ],
          "stateMutability": "view",
          "type": "function"
        }
      ],
      "evm": {
        "bytecode": {
          "linkReferences": {},
          "object": "608060405234801561001057600080fd5b506040516129e83803806129e883398181016040528101906100329190610273565b60006100426101e760201b60201c565b9050600073ffffffffffffffffffffffffffffffffffffffff168173ffffffffffffffffffffffffffffffffffffffff1614610186578073ffffffffffffffffffffffffffffffffffffffff1663647846a56040518163ffffffff1660e01b8152600401602060405180830381865afa1580156100c3573d6000803e3d6000fd5b505050506040513d601f19601f820116820180604052508101906100e79190610273565b73ffffffffffffffffffffffffffffffffffffffff1663095ea7b3827fffffffffffffffffffffffffffffffffffffffffffffffffffffffffffffffff6040518363ffffffff1660e01b81526004016101419291906102c8565b6020604051808303816000875af1158015610160573d6000803e3d6000fd5b505050506040513d601f19601f820116820180604052508101906101849190610329565b505b50806000806101000a81548173ffffffffffffffffffffffffffffffffffffffff021916908373ffffffffffffffffffffffffffffffffffffffff16021790555060008060146101000a81548160ff02191690831515021790555050610356565b60008060009054906101000a900473ffffffffffffffffffffffffffffffffffffffff16905090565b600080fd5b600073ffffffffffffffffffffffffffffffffffffffff82169050919050565b600061024082610215565b9050919050565b61025081610235565b811461025b57600080fd5b50565b60008151905061026d81610247565b92915050565b60006020828403121561028957610288610210565b5b60006102978482850161025e565b91505092915050565b6102a981610235565b82525050565b6000819050919050565b6102c2816102af565b82525050565b60006040820190506102dd60008301856102a0565b6102ea60208301846102b9565b9392505050565b60008115159050919050565b610306816102f1565b811461031157600080fd5b50565b600081519050610323816102fd565b92915050565b60006020828403121561033f5761033e610210565b5b600061034d84828501610314565b91505092915050565b612683806103656000396000f3fe608060405234801561001057600080fd5b50600436106100ea5760003560e01c8063b2a01bf51161008c578063d0fff36611610066578063d0fff36614610259578063d24740fb14610275578063dd92a316146102a5578063f437bc59146102d5576100ea565b8063b2a01bf5146101f1578063bc0dd4471461020d578063bca96c3914610229576100ea565b806344ab20f8116100c857806344ab20f8146101575780634f3f7c05146101735780636226f35b146101a3578063632e235a146101c1576100ea565b80630bc37bab146100ef5780630fee32ce1461010b578063108bc1dd14610127575b600080fd5b610109600480360381019061010491906115f1565b6102f3565b005b61012560048036038101906101209190611704565b610391565b005b610141600480360381019061013c9190611877565b6103ea565b60405161014e91906118cf565b60405180910390f35b610171600480360381019061016c9190611d67565b6104b1565b005b61018d60048036038101906101889190611877565b61054f565b60405161019a91906118cf565b60405180910390f35b6101ab61084b565b6040516101b89190611dcb565b60405180910390f35b6101db60048036038101906101d69190611eaa565b61085e565b6040516101e891906118cf565b60405180910390f35b61020b60048036038101906102069190611f5f565b610b5a565b005b61022760048036038101906102229190611fa8565b610bf8565b005b610243600480360381019061023e91906120e5565b610c96565b60405161025091906118cf565b60405180910390f35b610273600480360381019061026e919061212e565b610de3565b005b61028f600480360381019061028a91906120e5565b610e81565b60405161029c91906118cf565b60405180910390f35b6102bf60048036038101906102ba9190611eaa565b61117d565b6040516102cc91906118cf565b60405180910390f35b6102dd611248565b6040516102ea9190612186565b60405180910390f35b6102fb611248565b73ffffffffffffffffffffffffffffffffffffffff163373ffffffffffffffffffffffffffffffffffffffff161461035f576040517f7bf6a16f00000000000000000000000000000000000000000000000000000000815260040160405180910390fd5b6040517f02cbc79f00000000000000000000000000000000000000000000000000000000815260040160405180910390fd5b600060149054906101000a900460ff1615600060146101000a81548160ff0219169083151502179055507f3f6713315d7f9841ba940706c6e1ed40a3690f6afb95503515d18a3e21a12a2f60405160405180910390a150565b60008082604001515160201161040557826040015151610408565b60205b9050610412611248565b73ffffffffffffffffffffffffffffffffffffffff16634011ec0a84600001516040518263ffffffff1660e01b815260040161044e9190612220565b602060405180830381865afa15801561046b573d6000803e3d6000fd5b505050506040513d601f19601f8201168201806040525081019061048f9190612257565b8161049a91906122b3565b83608001516104a991906122f5565b915050919050565b6104b9611248565b73ffffffffffffffffffffffffffffffffffffffff163373ffffffffffffffffffffffffffffffffffffffff161461051d576040517f7bf6a16f00000000000000000000000000000000000000000000000000000000815260040160405180910390fd5b6040517f02cbc79f00000000000000000000000000000000000000000000000000000000815260040160405180910390fd5b60008061055b836103ea565b90506000610567611248565b905060008173ffffffffffffffffffffffffffffffffffffffff16631694505e6040518163ffffffff1660e01b8152600401602060405180830381865afa1580156105b6573d6000803e3d6000fd5b505050506040513d601f19601f820116820180604052508101906105da919061233e565b90506000600267ffffffffffffffff8111156105f9576105f861129b565b5b6040519080825280602002602001820160405280156106275781602001602082028036833780820191505090505b5090508173ffffffffffffffffffffffffffffffffffffffff1663ad5c46486040518163ffffffff1660e01b8152600401602060405180830381865afa158015610675573d6000803e3d6000fd5b505050506040513d601f19601f82011682018060405250810190610699919061233e565b816000815181106106ad576106ac61236b565b5b602002602001019073ffffffffffffffffffffffffffffffffffffffff16908173ffffffffffffffffffffffffffffffffffffffff16815250508273ffffffffffffffffffffffffffffffffffffffff1663647846a56040518163ffffffff1660e01b8152600401602060405180830381865afa158015610732573d6000803e3d6000fd5b505050506040513d601f19601f82011682018060405250810190610756919061233e565b8160018151811061076a5761076961236b565b5b602002602001019073ffffffffffffffffffffffffffffffffffffffff16908173ffffffffffffffffffffffffffffffffffffffff16815250508173ffffffffffffffffffffffffffffffffffffffff16631f00ca7485836040518363ffffffff1660e01b81526004016107df929190612458565b600060405180830381865afa1580156107fc573d6000803e3d6000fd5b505050506040513d6000823e3d601f19601f82011682018060405250810190610825919061254b565b6000815181106108385761083761236b565b5b6020026020010151945050505050919050565b600060149054906101000a900460ff1681565b60008061086a8361117d565b90506000610876611248565b905060008173ffffffffffffffffffffffffffffffffffffffff16631694505e6040518163ffffffff1660e01b8152600401602060405180830381865afa1580156108c5573d6000803e3d6000fd5b505050506040513d601f19601f820116820180604052508101906108e9919061233e565b90506000600267ffffffffffffffff8111156109085761090761129b565b5b6040519080825280602002602001820160405280156109365781602001602082028036833780820191505090505b5090508173ffffffffffffffffffffffffffffffffffffffff1663ad5c46486040518163ffffffff1660e01b8152600401602060405180830381865afa158015610984573d6000803e3d6000fd5b505050506040513d601f19601f820116820180604052508101906109a8919061233e565b816000815181106109bc576109bb61236b565b5b602002602001019073ffffffffffffffffffffffffffffffffffffffff16908173ffffffffffffffffffffffffffffffffffffffff16815250508273ffffffffffffffffffffffffffffffffffffffff1663647846a56040518163ffffffff1660e01b8152600401602060405180830381865afa158015610a41573d6000803e3d6000fd5b505050506040513d601f19601f82011682018060405250810190610a65919061233e565b81600181518110610a7957610a7861236b565b5b602002602001019073ffffffffffffffffffffffffffffffffffffffff16908173ffffffffffffffffffffffffffffffffffffffff16815250508173ffffffffffffffffffffffffffffffffffffffff16631f00ca7485836040518363ffffffff1660e01b8152600401610aee929190612458565b600060405180830381865afa158015610b0b573d6000803e3d6000fd5b505050506040513d6000823e3d601f19601f82011682018060405250810190610b34919061254b565b600081518110610b4757610b4661236b565b5b6020026020010151945050505050919050565b610b62611248565b73ffffffffffffffffffffffffffffffffffffffff163373ffffffffffffffffffffffffffffffffffffffff1614610bc6576040517f7bf6a16f00000000000000000000000000000000000000000000000000000000815260040160405180910390fd5b6040517f02cbc79f00000000000000000000000000000000000000000000000000000000815260040160405180910390fd5b610c00611248565b73ffffffffffffffffffffffffffffffffffffffff163373ffffffffffffffffffffffffffffffffffffffff1614610c64576040517f7bf6a16f00000000000000000000000000000000000000000000000000000000815260040160405180910390fd5b6040517f02cbc79f00000000000000000000000000000000000000000000000000000000815260040160405180910390fd5b600080610ca1611248565b905060008173ffffffffffffffffffffffffffffffffffffffff16634011ec0a8373ffffffffffffffffffffffffffffffffffffffff1663f437bc596040518163ffffffff1660e01b8152600401600060405180830381865afa158015610d0c573d6000803e3d6000fd5b505050506040513d6000823e3d601f19601f82011682018060405250810190610d359190612604565b6040518263ffffffff1660e01b8152600401610d519190612220565b602060405180830381865afa158015610d6e573d6000803e3d6000fd5b505050506040513d601f19601f82011682018060405250810190610d929190612257565b90506000816020610da391906122b3565b905060008560a001515183610db891906122b3565b8660800151610dc791906122f5565b9050808211610dd65780610dd8565b815b945050505050919050565b610deb611248565b73ffffffffffffffffffffffffffffffffffffffff163373ffffffffffffffffffffffffffffffffffffffff1614610e4f576040517f7bf6a16f00000000000000000000000000000000000000000000000000000000815260040160405180910390fd5b6040517f02cbc79f00000000000000000000000000000000000000000000000000000000815260040160405180910390fd5b600080610e8d83610c96565b90506000610e99611248565b905060008173ffffffffffffffffffffffffffffffffffffffff16631694505e6040518163ffffffff1660e01b8152600401602060405180830381865afa158015610ee8573d6000803e3d6000fd5b505050506040513d601f19601f82011682018060405250810190610f0c919061233e565b90506000600267ffffffffffffffff811115610f2b57610f2a61129b565b5b604051908082528060200260200182016040528015610f595781602001602082028036833780820191505090505b5090508173ffffffffffffffffffffffffffffffffffffffff1663ad5c46486040518163ffffffff1660e01b8152600401602060405180830381865afa158015610fa7573d6000803e3d6000fd5b505050506040513d601f19601f82011682018060405250810190610fcb919061233e565b81600081518110610fdf57610fde61236b565b5b602002602001019073ffffffffffffffffffffffffffffffffffffffff16908173ffffffffffffffffffffffffffffffffffffffff16815250508273ffffffffffffffffffffffffffffffffffffffff1663647846a56040518163ffffffff1660e01b8152600401602060405180830381865afa158015611064573d6000803e3d6000fd5b505050506040513d601f19601f82011682018060405250810190611088919061233e565b8160018151811061109c5761109b61236b565b5b602002602001019073ffffffffffffffffffffffffffffffffffffffff16908173ffffffffffffffffffffffffffffffffffffffff16815250508173ffffffffffffffffffffffffffffffffffffffff16631f00ca7485836040518363ffffffff1660e01b8152600401611111929190612458565b600060405180830381865afa15801561112e573d6000803e3d6000fd5b505050506040513d6000823e3d601f19601f82011682018060405250810190611157919061254b565b60008151811061116a5761116961236b565b5b6020026020010151945050505050919050565b6000808260200151516020116111985782602001515161119b565b60205b90506111a5611248565b73ffffffffffffffffffffffffffffffffffffffff16634011ec0a8460000151600001516040518263ffffffff1660e01b81526004016111e59190612220565b602060405180830381865afa158015611202573d6000803e3d6000fd5b505050506040513d601f19601f820116820180604052508101906112269190612257565b8161123191906122b3565b836060015161124091906122f5565b915050919050565b60008060009054906101000a900473ffffffffffffffffffffffffffffffffffffffff16905090565b6000604051905090565b600080fd5b600080fd5b600080fd5b6000601f19601f8301169050919050565b7f4e487b7100000000000000000000000000000000000000000000000000000000600052604160045260246000fd5b6112d38261128a565b810181811067ffffffffffffffff821117156112f2576112f161129b565b5b80604052505050565b6000611305611271565b905061131182826112ca565b919050565b600080fd5b600080fd5b600080fd5b600067ffffffffffffffff8211156113405761133f61129b565b5b6113498261128a565b9050602081019050919050565b82818337600083830152505050565b600061137861137384611325565b6112fb565b90508281526020810184848401111561139457611393611320565b5b61139f848285611356565b509392505050565b600082601f8301126113bc576113bb61131b565b5b81356113cc848260208601611365565b91505092915050565b600067ffffffffffffffff82169050919050565b6113f2816113d5565b81146113fd57600080fd5b50565b60008135905061140f816113e9565b92915050565b600060e0828403121561142b5761142a611285565b5b61143560e06112fb565b9050600082013567ffffffffffffffff81111561145557611454611316565b5b611461848285016113a7565b600083015250602082013567ffffffffffffffff81111561148557611484611316565b5b611491848285016113a7565b60208301525060406114a584828501611400565b604083015250606082013567ffffffffffffffff8111156114c9576114c8611316565b5b6114d5848285016113a7565b606083015250608082013567ffffffffffffffff8111156114f9576114f8611316565b5b611505848285016113a7565b60808301525060a061151984828501611400565b60a08301525060c082013567ffffffffffffffff81111561153d5761153c611316565b5b611549848285016113a7565b60c08301525092915050565b60006060828403121561156b5761156a611285565b5b61157560606112fb565b9050600082013567ffffffffffffffff81111561159557611594611316565b5b6115a184828501611415565b600083015250602082013567ffffffffffffffff8111156115c5576115c4611316565b5b6115d1848285016113a7565b60208301525060406115e584828501611400565b60408301525092915050565b6000602082840312156116075761160661127b565b5b600082013567ffffffffffffffff81111561162557611624611280565b5b61163184828501611555565b91505092915050565b600073ffffffffffffffffffffffffffffffffffffffff82169050919050565b60006116658261163a565b9050919050565b6116758161165a565b811461168057600080fd5b50565b6000813590506116928161166c565b92915050565b6000604082840312156116ae576116ad611285565b5b6116b860406112fb565b9050600082013567ffffffffffffffff8111156116d8576116d7611316565b5b6116e484828501611415565b60008301525060206116f884828501611683565b60208301525092915050565b60006020828403121561171a5761171961127b565b5b600082013567ffffffffffffffff81111561173857611737611280565b5b61174484828501611698565b91505092915050565b6000819050919050565b6117608161174d565b811461176b57600080fd5b50565b60008135905061177d81611757565b92915050565b600060c0828403121561179957611798611285565b5b6117a360c06112fb565b9050600082013567ffffffffffffffff8111156117c3576117c2611316565b5b6117cf848285016113a7565b600083015250602082013567ffffffffffffffff8111156117f3576117f2611316565b5b6117ff848285016113a7565b602083015250604082013567ffffffffffffffff81111561182357611822611316565b5b61182f848285016113a7565b604083015250606061184384828501611400565b60608301525060806118578482850161176e565b60808301525060a061186b84828501611683565b60a08301525092915050565b60006020828403121561188d5761188c61127b565b5b600082013567ffffffffffffffff8111156118ab576118aa611280565b5b6118b784828501611783565b91505092915050565b6118c98161174d565b82525050565b60006020820190506118e460008301846118c0565b92915050565b600067ffffffffffffffff8211156119055761190461129b565b5b602082029050602081019050919050565b600080fd5b600061192e611929846118ea565b6112fb565b9050808382526020820190506020840283018581111561195157611950611916565b5b835b8181101561199857803567ffffffffffffffff8111156119765761197561131b565b5b80860161198389826113a7565b85526020850194505050602081019050611953565b5050509392505050565b600082601f8301126119b7576119b661131b565b5b81356119c784826020860161191b565b91505092915050565b600061010082840312156119e7576119e6611285565b5b6119f26101006112fb565b9050600082013567ffffffffffffffff811115611a1257611a11611316565b5b611a1e848285016113a7565b600083015250602082013567ffffffffffffffff811115611a4257611a41611316565b5b611a4e848285016113a7565b6020830152506040611a6284828501611400565b6040830152506060611a7684828501611683565b6060830152506080611a8a84828501611400565b60808301525060a082013567ffffffffffffffff811115611aae57611aad611316565b5b611aba848285016119a2565b60a08301525060c0611ace84828501611400565b60c08301525060e082013567ffffffffffffffff811115611af257611af1611316565b5b611afe848285016113a7565b60e08301525092915050565b600067ffffffffffffffff821115611b2557611b2461129b565b5b602082029050602081019050919050565b600060408284031215611b4c57611b4b611285565b5b611b5660406112fb565b9050600082013567ffffffffffffffff811115611b7657611b75611316565b5b611b82848285016113a7565b600083015250602082013567ffffffffffffffff811115611ba657611ba5611316565b5b611bb2848285016113a7565b60208301525092915050565b6000611bd1611bcc84611b0a565b6112fb565b90508083825260208201905060208402830185811115611bf457611bf3611916565b5b835b81811015611c3b57803567ffffffffffffffff811115611c1957611c1861131b565b5b808601611c268982611b36565b85526020850194505050602081019050611bf6565b5050509392505050565b600082601f830112611c5a57611c5961131b565b5b8135611c6a848260208601611bbe565b91505092915050565b600060408284031215611c8957611c88611285565b5b611c9360406112fb565b9050600082013567ffffffffffffffff811115611cb357611cb2611316565b5b611cbf848285016119d0565b600083015250602082013567ffffffffffffffff811115611ce357611ce2611316565b5b611cef84828501611c45565b60208301525092915050565b600060408284031215611d1157611d10611285565b5b611d1b60406112fb565b9050600082013567ffffffffffffffff811115611d3b57611d3a611316565b5b611d4784828501611c73565b6000830152506020611d5b84828501611683565b60208301525092915050565b600060208284031215611d7d57611d7c61127b565b5b600082013567ffffffffffffffff811115611d9b57611d9a611280565b5b611da784828501611cfb565b91505092915050565b60008115159050919050565b611dc581611db0565b82525050565b6000602082019050611de06000830184611dbc565b92915050565b600060a08284031215611dfc57611dfb611285565b5b611e0660a06112fb565b9050600082013567ffffffffffffffff811115611e2657611e25611316565b5b611e3284828501611415565b600083015250602082013567ffffffffffffffff811115611e5657611e55611316565b5b611e62848285016113a7565b6020830152506040611e7684828501611400565b6040830152506060611e8a8482850161176e565b6060830152506080611e9e84828501611683565b60808301525092915050565b600060208284031215611ec057611ebf61127b565b5b600082013567ffffffffffffffff811115611ede57611edd611280565b5b611eea84828501611de6565b91505092915050565b600060408284031215611f0957611f08611285565b5b611f1360406112fb565b9050600082013567ffffffffffffffff811115611f3357611f32611316565b5b611f3f84828501611555565b6000830152506020611f5384828501611683565b60208301525092915050565b600060208284031215611f7557611f7461127b565b5b600082013567ffffffffffffffff811115611f9357611f92611280565b5b611f9f84828501611ef3565b91505092915050565b600060208284031215611fbe57611fbd61127b565b5b600082013567ffffffffffffffff811115611fdc57611fdb611280565b5b611fe884828501611415565b91505092915050565b600060c0828403121561200757612006611285565b5b61201160c06112fb565b9050600082013567ffffffffffffffff81111561203157612030611316565b5b61203d848285016113a7565b600083015250602061205184828501611400565b602083015250604082013567ffffffffffffffff81111561207557612074611316565b5b612081848285016119a2565b604083015250606061209584828501611400565b60608301525060806120a98482850161176e565b60808301525060a082013567ffffffffffffffff8111156120cd576120cc611316565b5b6120d9848285016113a7565b60a08301525092915050565b6000602082840312156120fb576120fa61127b565b5b600082013567ffffffffffffffff81111561211957612118611280565b5b61212584828501611ff1565b91505092915050565b6000602082840312156121445761214361127b565b5b600082013567ffffffffffffffff81111561216257612161611280565b5b61216e848285016119d0565b91505092915050565b6121808161165a565b82525050565b600060208201905061219b6000830184612177565b92915050565b600081519050919050565b600082825260208201905092915050565b60005b838110156121db5780820151818401526020810190506121c0565b60008484015250505050565b60006121f2826121a1565b6121fc81856121ac565b935061220c8185602086016121bd565b6122158161128a565b840191505092915050565b6000602082019050818103600083015261223a81846121e7565b905092915050565b60008151905061225181611757565b92915050565b60006020828403121561226d5761226c61127b565b5b600061227b84828501612242565b91505092915050565b7f4e487b7100000000000000000000000000000000000000000000000000000000600052601160045260246000fd5b60006122be8261174d565b91506122c98361174d565b92508282026122d78161174d565b915082820484148315176122ee576122ed612284565b5b5092915050565b60006123008261174d565b915061230b8361174d565b925082820190508082111561232357612322612284565b5b92915050565b6000815190506123388161166c565b92915050565b6000602082840312156123545761235361127b565b5b600061236284828501612329565b91505092915050565b7f4e487b7100000000000000000000000000000000000000000000000000000000600052603260045260246000fd5b600081519050919050565b600082825260208201905092915050565b6000819050602082019050919050565b6123cf8161165a565b82525050565b60006123e183836123c6565b60208301905092915050565b6000602082019050919050565b60006124058261239a565b61240f81856123a5565b935061241a836123b6565b8060005b8381101561244b57815161243288826123d5565b975061243d836123ed565b92505060018101905061241e565b5085935050505092915050565b600060408201905061246d60008301856118c0565b818103602083015261247f81846123fa565b90509392505050565b600067ffffffffffffffff8211156124a3576124a261129b565b5b602082029050602081019050919050565b60006124c76124c284612488565b6112fb565b905080838252602082019050602084028301858111156124ea576124e9611916565b5b835b8181101561251357806124ff8882612242565b8452602084019350506020810190506124ec565b5050509392505050565b600082601f8301126125325761253161131b565b5b81516125428482602086016124b4565b91505092915050565b6000602082840312156125615761256061127b565b5b600082015167ffffffffffffffff81111561257f5761257e611280565b5b61258b8482850161251d565b91505092915050565b60006125a76125a284611325565b6112fb565b9050828152602081018484840111156125c3576125c2611320565b5b6125ce8482856121bd565b509392505050565b600082601f8301126125eb576125ea61131b565b5b81516125fb848260208601612594565b91505092915050565b60006020828403121561261a5761261961127b565b5b600082015167ffffffffffffffff81111561263857612637611280565b5b612644848285016125d6565b9150509291505056fea26469706673582212206428d16089ae7cc24770d2204409340e5bde58ef1b030453ff7d874aadbc4ece64736f6c634300081c0033",
          "opcodes": "PUSH1 0x80 PUSH1 0x40 MSTORE CALLVALUE DUP1 ISZERO PUSH2 0x10 JUMPI PUSH1 0x0 DUP1 REVERT JUMPDEST POP PUSH1 0x40 MLOAD PUSH2 0x29E8 CODESIZE SUB DUP1 PUSH2 0x29E8 DUP4 CODECOPY DUP2 DUP2 ADD PUSH1 0x40 MSTORE DUP2 ADD SWAP1 PUSH2 0x32 SWAP2 SWAP1 PUSH2 0x273 JUMP JUMPDEST PUSH1 0x0 PUSH2 0x42 PUSH2 0x1E7 PUSH1 0x20 SHL PUSH1 0x20 SHR JUMP JUMPDEST SWAP1 POP PUSH1 0x0 PUSH20 0xFFFFFFFFFFFFFFFFFFFFFFFFFFFFFFFFFFFFFFFF AND DUP2 PUSH20 0xFFFFFFFFFFFFFFFFFFFFFFFFFFFFFFFFFFFFFFFF AND EQ PUSH2 0x186 JUMPI DUP1 PUSH20 0xFFFFFFFFFFFFFFFFFFFFFFFFFFFFFFFFFFFFFFFF AND PUSH4 0x647846A5 PUSH1 0x40 MLOAD DUP2 PUSH4 0xFFFFFFFF AND PUSH1 0xE0 SHL DUP2 MSTORE PUSH1 0x4 ADD PUSH1 0x20 PUSH1 0x40 MLOAD DUP1 DUP4 SUB DUP2 DUP7 GAS STATICCALL ISZERO DUP1 ISZERO PUSH2 0xC3 JUMPI RETURNDATASIZE PUSH1 0x0 DUP1 RETURNDATACOPY RETURNDATASIZE PUSH1 0x0 REVERT JUMPDEST POP POP POP POP PUSH1 0x40 MLOAD RETURNDATASIZE PUSH1 0x1F NOT PUSH1 0x1F DUP3 ADD AND DUP3 ADD DUP1 PUSH1 0x40 MSTORE POP DUP2 ADD SWAP1 PUSH2 0xE7 SWAP2 SWAP1 PUSH2 0x273 JUMP JUMPDEST PUSH20 0xFFFFFFFFFFFFFFFFFFFFFFFFFFFFFFFFFFFFFFFF AND PUSH4 0x95EA7B3 DUP3 PUSH32 0xFFFFFFFFFFFFFFFFFFFFFFFFFFFFFFFFFFFFFFFFFFFFFFFFFFFFFFFFFFFFFFFF PUSH1 0x40 MLOAD DUP4 PUSH4 0xFFFFFFFF AND PUSH1 0xE0 SHL DUP2 MSTORE PUSH1 0x4 ADD PUSH2 0x141 SWAP3 SWAP2 SWAP1 PUSH2 0x2C8 JUMP JUMPDEST PUSH1 0x20 PUSH1 0x40 MLOAD DUP1 DUP4 SUB DUP2 PUSH1 0x0 DUP8 GAS CALL ISZERO DUP1 ISZERO PUSH2 0x160 JUMPI RETURNDATASIZE PUSH1 0x0 DUP1 RETURNDATACOPY RETURNDATASIZE PUSH1 0x0 REVERT JUMPDEST POP POP POP POP PUSH1 0x40 MLOAD RETURNDATASIZE PUSH1 0x1F NOT PUSH1 0x1F DUP3 ADD AND DUP3 ADD DUP1 PUSH1 0x40 MSTORE POP DUP2 ADD SWAP1 PUSH2 0x184 SWAP2 SWAP1 PUSH2 0x329 JUMP JUMPDEST POP JUMPDEST POP DUP1 PUSH1 0x0 DUP1 PUSH2 0x100 EXP DUP2 SLOAD DUP2 PUSH20 0xFFFFFFFFFFFFFFFFFFFFFFFFFFFFFFFFFFFFFFFF MUL NOT AND SWAP1 DUP4 PUSH20 0xFFFFFFFFFFFFFFFFFFFFFFFFFFFFFFFFFFFFFFFF AND MUL OR SWAP1 SSTORE POP PUSH1 0x0 DUP1 PUSH1 0x14 PUSH2 0x100 EXP DUP2 SLOAD DUP2 PUSH1 0xFF MUL NOT AND SWAP1 DUP4 ISZERO ISZERO MUL OR SWAP1 SSTORE POP POP PUSH2 0x356 JUMP JUMPDEST PUSH1 0x0 DUP1 PUSH1 0x0 SWAP1 SLOAD SWAP1 PUSH2 0x100 EXP SWAP1 DIV PUSH20 0xFFFFFFFFFFFFFFFFFFFFFFFFFFFFFFFFFFFFFFFF AND SWAP1 POP SWAP1 JUMP JUMPDEST PUSH1 0x0 DUP1 REVERT JUMPDEST PUSH1 0x0 PUSH20 0xFFFFFFFFFFFFFFFFFFFFFFFFFFFFFFFFFFFFFFFF DUP3 AND SWAP1 POP SWAP2 SWAP1 POP JUMP JUMPDEST PUSH1 0x0 PUSH2 0x240 DUP3 PUSH2 0x215 JUMP JUMPDEST SWAP1 POP SWAP2 SWAP1 POP JUMP JUMPDEST PUSH2 0x250 DUP2 PUSH2 0x235 JUMP JUMPDEST DUP2 EQ PUSH2 0x25B JUMPI PUSH1 0x0 DUP1 REVERT JUMPDEST POP JUMP JUMPDEST PUSH1 0x0 DUP2 MLOAD SWAP1 POP PUSH2 0x26D DUP2 PUSH2 0x247 JUMP JUMPDEST SWAP3 SWAP2 POP POP JUMP JUMPDEST PUSH1 0x0 PUSH1 0x20 DUP3 DUP5 SUB SLT ISZERO PUSH2 0x289 JUMPI PUSH2 0x288 PUSH2 0x210 JUMP JUMPDEST JUMPDEST PUSH1 0x0 PUSH2 0x297 DUP5 DUP3 DUP6 ADD PUSH2 0x25E JUMP JUMPDEST SWAP2 POP POP SWAP3 SWAP2 POP POP JUMP JUMPDEST PUSH2 0x2A9 DUP2 PUSH2 0x235 JUMP JUMPDEST DUP3 MSTORE POP POP JUMP JUMPDEST PUSH1 0x0 DUP2 SWAP1 POP SWAP2 SWAP1 POP JUMP JUMPDEST PUSH2 0x2C2 DUP2 PUSH2 0x2AF JUMP JUMPDEST DUP3 MSTORE POP POP JUMP JUMPDEST PUSH1 0x0 PUSH1 0x40 DUP3 ADD SWAP1 POP PUSH2 0x2DD PUSH1 0x0 DUP4 ADD DUP6 PUSH2 0x2A0 JUMP JUMPDEST PUSH2 0x2EA PUSH1 0x20 DUP4 ADD DUP5 PUSH2 0x2B9 JUMP JUMPDEST SWAP4 SWAP3 POP POP POP JUMP JUMPDEST PUSH1 0x0 DUP2 ISZERO ISZERO SWAP1 POP SWAP2 SWAP1 POP JUMP JUMPDEST PUSH2 0x306 DUP2 PUSH2 0x2F1 JUMP JUMPDEST DUP2 EQ PUSH2 0x311 JUMPI PUSH1 0x0 DUP1 REVERT JUMPDEST POP JUMP JUMPDEST PUSH1 0x0 DUP2 MLOAD SWAP1 POP PUSH2 0x323 DUP2 PUSH2 0x2FD JUMP JUMPDEST SWAP3 SWAP2 POP POP JUMP JUMPDEST PUSH1 0x0 PUSH1 0x20 DUP3 DUP5 SUB SLT ISZERO PUSH2 0x33F JUMPI PUSH2 0x33E PUSH2 0x210 JUMP JUMPDEST JUMPDEST PUSH1 0x0 PUSH2 0x34D DUP5 DUP3 DUP6 ADD PUSH2 0x314 JUMP JUMPDEST SWAP2 POP POP SWAP3 SWAP2 POP POP JUMP JUMPDEST PUSH2 0x2683 DUP1 PUSH2 0x365 PUSH1 0x0 CODECOPY PUSH1 0x0 RETURN INVALID PUSH1 0x80 PUSH1 0x40 MSTORE CALLVALUE DUP1 ISZERO PUSH2 0x10 JUMPI PUSH1 0x0 DUP1 REVERT JUMPDEST POP PUSH1 0x4 CALLDATASIZE LT PUSH2 0xEA JUMPI PUSH1 0x0 CALLDATALOAD PUSH1 0xE0 SHR DUP1 PUSH4 0xB2A01BF5 GT PUSH2 0x8C JUMPI DUP1 PUSH4 0xD0FFF366 GT PUSH2 0x66 JUMPI DUP1 PUSH4 0xD0FFF366 EQ PUSH2 0x259 JUMPI DUP1 PUSH4 0xD24740FB EQ PUSH2 0x275 JUMPI DUP1 PUSH4 0xDD92A316 EQ PUSH2 0x2A5 JUMPI DUP1 PUSH4 0xF437BC59 EQ PUSH2 0x2D5 JUMPI PUSH2 0xEA JUMP JUMPDEST DUP1 PUSH4 0xB2A01BF5 EQ PUSH2 0x1F1 JUMPI DUP1 PUSH4 0xBC0DD447 EQ PUSH2 0x20D JUMPI DUP1 PUSH4 0xBCA96C39 EQ PUSH2 0x229 JUMPI PUSH2 0xEA JUMP JUMPDEST DUP1 PUSH4 0x44AB20F8 GT PUSH2 0xC8 JUMPI DUP1 PUSH4 0x44AB20F8 EQ PUSH2 0x157 JUMPI DUP1 PUSH4 0x4F3F7C05 EQ PUSH2 0x173 JUMPI DUP1 PUSH4 0x6226F35B EQ PUSH2 0x1A3 JUMPI DUP1 PUSH4 0x632E235A EQ PUSH2 0x1C1 JUMPI PUSH2 0xEA JUMP JUMPDEST DUP1 PUSH4 0xBC37BAB EQ PUSH2 0xEF JUMPI DUP1 PUSH4 0xFEE32CE EQ PUSH2 0x10B JUMPI DUP1 PUSH4 0x108BC1DD EQ PUSH2 0x127 JUMPI JUMPDEST PUSH1 0x0 DUP1 REVERT JUMPDEST PUSH2 0x109 PUSH1 0x4 DUP1 CALLDATASIZE SUB DUP2 ADD SWAP1 PUSH2 0x104 SWAP2 SWAP1 PUSH2 0x15F1 JUMP JUMPDEST PUSH2 0x2F3 JUMP JUMPDEST STOP JUMPDEST PUSH2 0x125 PUSH1 0x4 DUP1 CALLDATASIZE SUB DUP2 ADD SWAP1 PUSH2 0x120 SWAP2 SWAP1 PUSH2 0x1704 JUMP JUMPDEST PUSH2 0x391 JUMP JUMPDEST STOP JUMPDEST PUSH2 0x141 PUSH1 0x4 DUP1 CALLDATASIZE SUB DUP2 ADD SWAP1 PUSH2 0x13C SWAP2 SWAP1 PUSH2 0x1877 JUMP JUMPDEST PUSH2 0x3EA JUMP JUMPDEST PUSH1 0x40 MLOAD PUSH2 0x14E SWAP2 SWAP1 PUSH2 0x18CF JUMP JUMPDEST PUSH1 0x40 MLOAD DUP1 SWAP2 SUB SWAP1 RETURN JUMPDEST PUSH2 0x171 PUSH1 0x4 DUP1 CALLDATASIZE SUB DUP2 ADD SWAP1 PUSH2 0x16C SWAP2 SWAP1 PUSH2 0x1D67 JUMP JUMPDEST PUSH2 0x4B1 JUMP JUMPDEST STOP JUMPDEST PUSH2 0x18D PUSH1 0x4 DUP1 CALLDATASIZE SUB DUP2 ADD SWAP1 PUSH2 0x188 SWAP2 SWAP1 PUSH2 0x1877 JUMP JUMPDEST PUSH2 0x54F JUMP JUMPDEST PUSH1 0x40 MLOAD PUSH2 0x19A SWAP2 SWAP1 PUSH2 0x18CF JUMP JUMPDEST PUSH1 0x40 MLOAD DUP1 SWAP2 SUB SWAP1 RETURN JUMPDEST PUSH2 0x1AB PUSH2 0x84B JUMP JUMPDEST PUSH1 0x40 MLOAD PUSH2 0x1B8 SWAP2 SWAP1 PUSH2 0x1DCB JUMP JUMPDEST PUSH1 0x40 MLOAD DUP1 SWAP2 SUB SWAP1 RETURN JUMPDEST PUSH2 0x1DB PUSH1 0x4 DUP1 CALLDATASIZE SUB DUP2 ADD SWAP1 PUSH2 0x1D6 SWAP2 SWAP1 PUSH2 0x1EAA JUMP JUMPDEST PUSH2 0x85E JUMP JUMPDEST PUSH1 0x40 MLOAD PUSH2 0x1E8 SWAP2 SWAP1 PUSH2 0x18CF JUMP JUMPDEST PUSH1 0x40 MLOAD DUP1 SWAP2 SUB SWAP1 RETURN JUMPDEST PUSH2 0x20B PUSH1 0x4 DUP1 CALLDATASIZE SUB DUP2 ADD SWAP1 PUSH2 0x206 SWAP2 SWAP1 PUSH2 0x1F5F JUMP JUMPDEST PUSH2 0xB5A JUMP JUMPDEST STOP JUMPDEST PUSH2 0x227 PUSH1 0x4 DUP1 CALLDATASIZE SUB DUP2 ADD SWAP1 PUSH2 0x222 SWAP2 SWAP1 PUSH2 0x1FA8 JUMP JUMPDEST PUSH2 0xBF8 JUMP JUMPDEST STOP JUMPDEST PUSH2 0x243 PUSH1 0x4 DUP1 CALLDATASIZE SUB DUP2 ADD SWAP1 PUSH2 0x23E SWAP2 SWAP1 PUSH2 0x20E5 JUMP JUMPDEST PUSH2 0xC96 JUMP JUMPDEST PUSH1 0x40 MLOAD PUSH2 0x250 SWAP2 SWAP1 PUSH2 0x18CF JUMP JUMPDEST PUSH1 0x40 MLOAD DUP1 SWAP2 SUB SWAP1 RETURN JUMPDEST PUSH2 0x273 PUSH1 0x4 DUP1 CALLDATASIZE SUB DUP2 ADD SWAP1 PUSH2 0x26E SWAP2 SWAP1 PUSH2 0x212E JUMP JUMPDEST PUSH2 0xDE3 JUMP JUMPDEST STOP JUMPDEST PUSH2 0x28F PUSH1 0x4 DUP1 CALLDATASIZE SUB DUP2 ADD SWAP1 PUSH2 0x28A SWAP2 SWAP1 PUSH2 0x20E5 JUMP JUMPDEST PUSH2 0xE81 JUMP JUMPDEST PUSH1 0x40 MLOAD PUSH2 0x29C SWAP2 SWAP1 PUSH2 0x18CF JUMP JUMPDEST PUSH1 0x40 MLOAD DUP1 SWAP2 SUB SWAP1 RETURN JUMPDEST PUSH2 0x2BF PUSH1 0x4 DUP1 CALLDATASIZE SUB DUP2 ADD SWAP1 PUSH2 0x2BA SWAP2 SWAP1 PUSH2 0x1EAA JUMP JUMPDEST PUSH2 0x117D JUMP JUMPDEST PUSH1 0x40 MLOAD PUSH2 0x2CC SWAP2 SWAP1 PUSH2 0x18CF JUMP JUMPDEST PUSH1 0x40 MLOAD DUP1 SWAP2 SUB SWAP1 RETURN JUMPDEST PUSH2 0x2DD PUSH2 0x1248 JUMP JUMPDEST PUSH1 0x40 MLOAD PUSH2 0x2EA SWAP2 SWAP1 PUSH2 0x2186 JUMP JUMPDEST PUSH1 0x40 MLOAD DUP1 SWAP2 SUB SWAP1 RETURN JUMPDEST PUSH2 0x2FB PUSH2 0x1248 JUMP JUMPDEST PUSH20 0xFFFFFFFFFFFFFFFFFFFFFFFFFFFFFFFFFFFFFFFF AND CALLER PUSH20 0xFFFFFFFFFFFFFFFFFFFFFFFFFFFFFFFFFFFFFFFF AND EQ PUSH2 0x35F JUMPI PUSH1 0x40 MLOAD PUSH32 0x7BF6A16F00000000000000000000000000000000000000000000000000000000 DUP2 MSTORE PUSH1 0x4 ADD PUSH1 0x40 MLOAD DUP1 SWAP2 SUB SWAP1 REVERT JUMPDEST PUSH1 0x40 MLOAD PUSH32 0x2CBC79F00000000000000000000000000000000000000000000000000000000 DUP2 MSTORE PUSH1 0x4 ADD PUSH1 0x40 MLOAD DUP1 SWAP2 SUB SWAP1 REVERT JUMPDEST PUSH1 0x0 PUSH1 0x14 SWAP1 SLOAD SWAP1 PUSH2 0x100 EXP SWAP1 DIV PUSH1 0xFF AND ISZERO PUSH1 0x0 PUSH1 0x14 PUSH2 0x100 EXP DUP2 SLOAD DUP2 PUSH1 0xFF MUL NOT AND SWAP1 DUP4 ISZERO ISZERO MUL OR SWAP1 SSTORE POP PUSH32 0x3F6713315D7F9841BA940706C6E1ED40A3690F6AFB95503515D18A3E21A12A2F PUSH1 0x40 MLOAD PUSH1 0x40 MLOAD DUP1 SWAP2 SUB SWAP1 LOG1 POP JUMP JUMPDEST PUSH1 0x0 DUP1 DUP3 PUSH1 0x40 ADD MLOAD MLOAD PUSH1 0x20 GT PUSH2 0x405 JUMPI DUP3 PUSH1 0x40 ADD MLOAD MLOAD PUSH2 0x408 JUMP JUMPDEST PUSH1 0x20 JUMPDEST SWAP1 POP PUSH2 0x412 PUSH2 0x1248 JUMP JUMPDEST PUSH20 0xFFFFFFFFFFFFFFFFFFFFFFFFFFFFFFFFFFFFFFFF AND PUSH4 0x4011EC0A DUP5 PUSH1 0x0 ADD MLOAD PUSH1 0x40 MLOAD DUP3 PUSH4 0xFFFFFFFF AND PUSH1 0xE0 SHL DUP2 MSTORE PUSH1 0x4 ADD PUSH2 0x44E SWAP2 SWAP1 PUSH2 0x2220 JUMP JUMPDEST PUSH1 0x20 PUSH1 0x40 MLOAD DUP1 DUP4 SUB DUP2 DUP7 GAS STATICCALL ISZERO DUP1 ISZERO PUSH2 0x46B JUMPI RETURNDATASIZE PUSH1 0x0 DUP1 RETURNDATACOPY RETURNDATASIZE PUSH1 0x0 REVERT JUMPDEST POP POP POP POP PUSH1 0x40 MLOAD RETURNDATASIZE PUSH1 0x1F NOT PUSH1 0x1F DUP3 ADD AND DUP3 ADD DUP1 PUSH1 0x40 MSTORE POP DUP2 ADD SWAP1 PUSH2 0x48F SWAP2 SWAP1 PUSH2 0x2257 JUMP JUMPDEST DUP2 PUSH2 0x49A SWAP2 SWAP1 PUSH2 0x22B3 JUMP JUMPDEST DUP4 PUSH1 0x80 ADD MLOAD PUSH2 0x4A9 SWAP2 SWAP1 PUSH2 0x22F5 JUMP JUMPDEST SWAP2 POP POP SWAP2 SWAP1 POP JUMP JUMPDEST PUSH2 0x4B9 PUSH2 0x1248 JUMP JUMPDEST PUSH20 0xFFFFFFFFFFFFFFFFFFFFFFFFFFFFFFFFFFFFFFFF AND CALLER PUSH20 0xFFFFFFFFFFFFFFFFFFFFFFFFFFFFFFFFFFFFFFFF AND EQ PUSH2 0x51D JUMPI PUSH1 0x40 MLOAD PUSH32 0x7BF6A16F00000000000000000000000000000000000000000000000000000000 DUP2 MSTORE PUSH1 0x4 ADD PUSH1 0x40 MLOAD DUP1 SWAP2 SUB SWAP1 REVERT JUMPDEST PUSH1 0x40 MLOAD PUSH32 0x2CBC79F00000000000000000000000000000000000000000000000000000000 DUP2 MSTORE PUSH1 0x4 ADD PUSH1 0x40 MLOAD DUP1 SWAP2 SUB SWAP1 REVERT JUMPDEST PUSH1 0x0 DUP1 PUSH2 0x55B DUP4 PUSH2 0x3EA JUMP JUMPDEST SWAP1 POP PUSH1 0x0 PUSH2 0x567 PUSH2 0x1248 JUMP JUMPDEST SWAP1 POP PUSH1 0x0 DUP2 PUSH20 0xFFFFFFFFFFFFFFFFFFFFFFFFFFFFFFFFFFFFFFFF AND PUSH4 0x1694505E PUSH1 0x40 MLOAD DUP2 PUSH4 0xFFFFFFFF AND PUSH1 0xE0 SHL DUP2 MSTORE PUSH1 0x4 ADD PUSH1 0x20 PUSH1 0x40 MLOAD DUP1 DUP4 SUB DUP2 DUP7 GAS STATICCALL ISZERO DUP1 ISZERO PUSH2 0x5B6 JUMPI RETURNDATASIZE PUSH1 0x0 DUP1 RETURNDATACOPY RETURNDATASIZE PUSH1 0x0 REVERT JUMPDEST POP POP POP POP PUSH1 0x40 MLOAD RETURNDATASIZE PUSH1 0x1F NOT PUSH1 0x1F DUP3 ADD AND DUP3 ADD DUP1 PUSH1 0x40 MSTORE POP DUP2 ADD SWAP1 PUSH2 0x5DA SWAP2 SWAP1 PUSH2 0x233E JUMP JUMPDEST SWAP1 POP PUSH1 0x0 PUSH1 0x2 PUSH8 0xFFFFFFFFFFFFFFFF DUP2 GT ISZERO PUSH2 0x5F9 JUMPI PUSH2 0x5F8 PUSH2 0x129B JUMP JUMPDEST JUMPDEST PUSH1 0x40 MLOAD SWAP1 DUP1 DUP3 MSTORE DUP1 PUSH1 0x20 MUL PUSH1 0x20 ADD DUP3 ADD PUSH1 0x40 MSTORE DUP1 ISZERO PUSH2 0x627 JUMPI DUP2 PUSH1 0x20 ADD PUSH1 0x20 DUP3 MUL DUP1 CALLDATASIZE DUP4 CALLDATACOPY DUP1 DUP3 ADD SWAP2 POP POP SWAP1 POP JUMPDEST POP SWAP1 POP DUP2 PUSH20 0xFFFFFFFFFFFFFFFFFFFFFFFFFFFFFFFFFFFFFFFF AND PUSH4 0xAD5C4648 PUSH1 0x40 MLOAD DUP2 PUSH4 0xFFFFFFFF AND PUSH1 0xE0 SHL DUP2 MSTORE PUSH1 0x4 ADD PUSH1 0x20 PUSH1 0x40 MLOAD DUP1 DUP4 SUB DUP2 DUP7 GAS STATICCALL ISZERO DUP1 ISZERO PUSH2 0x675 JUMPI RETURNDATASIZE PUSH1 0x0 DUP1 RETURNDATACOPY RETURNDATASIZE PUSH1 0x0 REVERT JUMPDEST POP POP POP POP PUSH1 0x40 MLOAD RETURNDATASIZE PUSH1 0x1F NOT PUSH1 0x1F DUP3 ADD AND DUP3 ADD DUP1 PUSH1 0x40 MSTORE POP DUP2 ADD SWAP1 PUSH2 0x699 SWAP2 SWAP1 PUSH2 0x233E JUMP JUMPDEST DUP2 PUSH1 0x0 DUP2 MLOAD DUP2 LT PUSH2 0x6AD JUMPI PUSH2 0x6AC PUSH2 0x236B JUMP JUMPDEST JUMPDEST PUSH1 0x20 MUL PUSH1 0x20 ADD ADD SWAP1 PUSH20 0xFFFFFFFFFFFFFFFFFFFFFFFFFFFFFFFFFFFFFFFF AND SWAP1 DUP2 PUSH20 0xFFFFFFFFFFFFFFFFFFFFFFFFFFFFFFFFFFFFFFFF AND DUP2 MSTORE POP POP DUP3 PUSH20 0xFFFFFFFFFFFFFFFFFFFFFFFFFFFFFFFFFFFFFFFF AND PUSH4 0x647846A5 PUSH1 0x40 MLOAD DUP2 PUSH4 0xFFFFFFFF AND PUSH1 0xE0 SHL DUP2 MSTORE PUSH1 0x4 ADD PUSH1 0x20 PUSH1 0x40 MLOAD DUP1 DUP4 SUB DUP2 DUP7 GAS STATICCALL ISZERO DUP1 ISZERO PUSH2 0x732 JUMPI RETURNDATASIZE PUSH1 0x0 DUP1 RETURNDATACOPY RETURNDATASIZE PUSH1 0x0 REVERT JUMPDEST POP POP POP POP PUSH1 0x40 MLOAD RETURNDATASIZE PUSH1 0x1F NOT PUSH1 0x1F DUP3 ADD AND DUP3 ADD DUP1 PUSH1 0x40 MSTORE POP DUP2 ADD SWAP1 PUSH2 0x756 SWAP2 SWAP1 PUSH2 0x233E JUMP JUMPDEST DUP2 PUSH1 0x1 DUP2 MLOAD DUP2 LT PUSH2 0x76A JUMPI PUSH2 0x769 PUSH2 0x236B JUMP JUMPDEST JUMPDEST PUSH1 0x20 MUL PUSH1 0x20 ADD ADD SWAP1 PUSH20 0xFFFFFFFFFFFFFFFFFFFFFFFFFFFFFFFFFFFFFFFF AND SWAP1 DUP2 PUSH20 0xFFFFFFFFFFFFFFFFFFFFFFFFFFFFFFFFFFFFFFFF AND DUP2 MSTORE POP POP DUP2 PUSH20 0xFFFFFFFFFFFFFFFFFFFFFFFFFFFFFFFFFFFFFFFF AND PUSH4 0x1F00CA74 DUP6 DUP4 PUSH1 0x40 MLOAD DUP4 PUSH4 0xFFFFFFFF AND PUSH1 0xE0 SHL DUP2 MSTORE PUSH1 0x4 ADD PUSH2 0x7DF SWAP3 SWAP2 SWAP1 PUSH2 0x2458 JUMP JUMPDEST PUSH1 0x0 PUSH1 0x40 MLOAD DUP1 DUP4 SUB DUP2 DUP7 GAS STATICCALL ISZERO DUP1 ISZERO PUSH2 0x7FC JUMPI RETURNDATASIZE PUSH1 0x0 DUP1 RETURNDATACOPY RETURNDATASIZE PUSH1 0x0 REVERT JUMPDEST POP POP POP POP PUSH1 0x40 MLOAD RETURNDATASIZE PUSH1 0x0 DUP3 RETURNDATACOPY RETURNDATASIZE PUSH1 0x1F NOT PUSH1 0x1F DUP3 ADD AND DUP3 ADD DUP1 PUSH1 0x40 MSTORE POP DUP2 ADD SWAP1 PUSH2 0x825 SWAP2 SWAP1 PUSH2 0x254B JUMP JUMPDEST PUSH1 0x0 DUP2 MLOAD DUP2 LT PUSH2 0x838 JUMPI PUSH2 0x837 PUSH2 0x236B JUMP JUMPDEST JUMPDEST PUSH1 0x20 MUL PUSH1 0x20 ADD ADD MLOAD SWAP5 POP POP POP POP POP SWAP2 SWAP1 POP JUMP JUMPDEST PUSH1 0x0 PUSH1 0x14 SWAP1 SLOAD SWAP1 PUSH2 0x100 EXP SWAP1 DIV PUSH1 0xFF AND DUP2 JUMP JUMPDEST PUSH1 0x0 DUP1 PUSH2 0x86A DUP4 PUSH2 0x117D JUMP JUMPDEST SWAP1 POP PUSH1 0x0 PUSH2 0x876 PUSH2 0x1248 JUMP JUMPDEST SWAP1 POP PUSH1 0x0 DUP2 PUSH20 0xFFFFFFFFFFFFFFFFFFFFFFFFFFFFFFFFFFFFFFFF AND PUSH4 0x1694505E PUSH1 0x40 MLOAD DUP2 PUSH4 0xFFFFFFFF AND PUSH1 0xE0 SHL DUP2 MSTORE PUSH1 0x4 ADD PUSH1 0x20 PUSH1 0x40 MLOAD DUP1 DUP4 SUB DUP2 DUP7 GAS STATICCALL ISZERO DUP1 ISZERO PUSH2 0x8C5 JUMPI RETURNDATASIZE PUSH1 0x0 DUP1 RETURNDATACOPY RETURNDATASIZE PUSH1 0x0 REVERT JUMPDEST POP POP POP POP PUSH1 0x40 MLOAD RETURNDATASIZE PUSH1 0x1F NOT PUSH1 0x1F DUP3 ADD AND DUP3 ADD DUP1 PUSH1 0x40 MSTORE POP DUP2 ADD SWAP1 PUSH2 0x8E9 SWAP2 SWAP1 PUSH2 0x233E JUMP JUMPDEST SWAP1 POP PUSH1 0x0 PUSH1 0x2 PUSH8 0xFFFFFFFFFFFFFFFF DUP2 GT ISZERO PUSH2 0x908 JUMPI PUSH2 0x907 PUSH2 0x129B JUMP JUMPDEST JUMPDEST PUSH1 0x40 MLOAD SWAP1 DUP1 DUP3 MSTORE DUP1 PUSH1 0x20 MUL PUSH1 0x20 ADD DUP3 ADD PUSH1 0x40 MSTORE DUP1 ISZERO PUSH2 0x936 JUMPI DUP2 PUSH1 0x20 ADD PUSH1 0x20 DUP3 MUL DUP1 CALLDATASIZE DUP4 CALLDATACOPY DUP1 DUP3 ADD SWAP2 POP POP SWAP1 POP JUMPDEST POP SWAP1 POP DUP2 PUSH20 0xFFFFFFFFFFFFFFFFFFFFFFFFFFFFFFFFFFFFFFFF AND PUSH4 0xAD5C4648 PUSH1 0x40 MLOAD DUP2 PUSH4 0xFFFFFFFF AND PUSH1 0xE0 SHL DUP2 MSTORE PUSH1 0x4 ADD PUSH1 0x20 PUSH1 0x40 MLOAD DUP1 DUP4 SUB DUP2 DUP7 GAS STATICCALL ISZERO DUP1 ISZERO PUSH2 0x984 JUMPI RETURNDATASIZE PUSH1 0x0 DUP1 RETURNDATACOPY RETURNDATASIZE PUSH1 0x0 REVERT JUMPDEST POP POP POP POP PUSH1 0x40 MLOAD RETURNDATASIZE PUSH1 0x1F NOT PUSH1 0x1F DUP3 ADD AND DUP3 ADD DUP1 PUSH1 0x40 MSTORE POP DUP2 ADD SWAP1 PUSH2 0x9A8 SWAP2 SWAP1 PUSH2 0x233E JUMP JUMPDEST DUP2 PUSH1 0x0 DUP2 MLOAD DUP2 LT PUSH2 0x9BC JUMPI PUSH2 0x9BB PUSH2 0x236B JUMP JUMPDEST JUMPDEST PUSH1 0x20 MUL PUSH1 0x20 ADD ADD SWAP1 PUSH20 0xFFFFFFFFFFFFFFFFFFFFFFFFFFFFFFFFFFFFFFFF AND SWAP1 DUP2 PUSH20 0xFFFFFFFFFFFFFFFFFFFFFFFFFFFFFFFFFFFFFFFF AND DUP2 MSTORE POP POP DUP3 PUSH20 0xFFFFFFFFFFFFFFFFFFFFFFFFFFFFFFFFFFFFFFFF AND PUSH4 0x647846A5 PUSH1 0x40 MLOAD DUP2 PUSH4 0xFFFFFFFF AND PUSH1 0xE0 SHL DUP2 MSTORE PUSH1 0x4 ADD PUSH1 0x20 PUSH1 0x40 MLOAD DUP1 DUP4 SUB DUP2 DUP7 GAS STATICCALL ISZERO DUP1 ISZERO PUSH2 0xA41 JUMPI RETURNDATASIZE PUSH1 0x0 DUP1 RETURNDATACOPY RETURNDATASIZE PUSH1 0x0 REVERT JUMPDEST POP POP POP POP PUSH1 0x40 MLOAD RETURNDATASIZE PUSH1 0x1F NOT PUSH1 0x1F DUP3 ADD AND DUP3 ADD DUP1 PUSH1 0x40 MSTORE POP DUP2 ADD SWAP1 PUSH2 0xA65 SWAP2 SWAP1 PUSH2 0x233E JUMP JUMPDEST DUP2 PUSH1 0x1 DUP2 MLOAD DUP2 LT PUSH2 0xA79 JUMPI PUSH2 0xA78 PUSH2 0x236B JUMP JUMPDEST JUMPDEST PUSH1 0x20 MUL PUSH1 0x20 ADD ADD SWAP1 PUSH20 0xFFFFFFFFFFFFFFFFFFFFFFFFFFFFFFFFFFFFFFFF AND SWAP1 DUP2 PUSH20 0xFFFFFFFFFFFFFFFFFFFFFFFFFFFFFFFFFFFFFFFF AND DUP2 MSTORE POP POP DUP2 PUSH20 0xFFFFFFFFFFFFFFFFFFFFFFFFFFFFFFFFFFFFFFFF AND PUSH4 0x1F00CA74 DUP6 DUP4 PUSH1 0x40 MLOAD DUP4 PUSH4 0xFFFFFFFF AND PUSH1 0xE0 SHL DUP2 MSTORE PUSH1 0x4 ADD PUSH2 0xAEE SWAP3 SWAP2 SWAP1 PUSH2 0x2458 JUMP JUMPDEST PUSH1 0x0 PUSH1 0x40 MLOAD DUP1 DUP4 SUB DUP2 DUP7 GAS STATICCALL ISZERO DUP1 ISZERO PUSH2 0xB0B JUMPI RETURNDATASIZE PUSH1 0x0 DUP1 RETURNDATACOPY RETURNDATASIZE PUSH1 0x0 REVERT JUMPDEST POP POP POP POP PUSH1 0x40 MLOAD RETURNDATASIZE PUSH1 0x0 DUP3 RETURNDATACOPY RETURNDATASIZE PUSH1 0x1F NOT PUSH1 0x1F DUP3 ADD AND DUP3 ADD DUP1 PUSH1 0x40 MSTORE POP DUP2 ADD SWAP1 PUSH2 0xB34 SWAP2 SWAP1 PUSH2 0x254B JUMP JUMPDEST PUSH1 0x0 DUP2 MLOAD DUP2 LT PUSH2 0xB47 JUMPI PUSH2 0xB46 PUSH2 0x236B JUMP JUMPDEST JUMPDEST PUSH1 0x20 MUL PUSH1 0x20 ADD ADD MLOAD SWAP5 POP POP POP POP POP SWAP2 SWAP1 POP JUMP JUMPDEST PUSH2 0xB62 PUSH2 0x1248 JUMP JUMPDEST PUSH20 0xFFFFFFFFFFFFFFFFFFFFFFFFFFFFFFFFFFFFFFFF AND CALLER PUSH20 0xFFFFFFFFFFFFFFFFFFFFFFFFFFFFFFFFFFFFFFFF AND EQ PUSH2 0xBC6 JUMPI PUSH1 0x40 MLOAD PUSH32 0x7BF6A16F00000000000000000000000000000000000000000000000000000000 DUP2 MSTORE PUSH1 0x4 ADD PUSH1 0x40 MLOAD DUP1 SWAP2 SUB SWAP1 REVERT JUMPDEST PUSH1 0x40 MLOAD PUSH32 0x2CBC79F00000000000000000000000000000000000000000000000000000000 DUP2 MSTORE PUSH1 0x4 ADD PUSH1 0x40 MLOAD DUP1 SWAP2 SUB SWAP1 REVERT JUMPDEST PUSH2 0xC00 PUSH2 0x1248 JUMP JUMPDEST PUSH20 0xFFFFFFFFFFFFFFFFFFFFFFFFFFFFFFFFFFFFFFFF AND CALLER PUSH20 0xFFFFFFFFFFFFFFFFFFFFFFFFFFFFFFFFFFFFFFFF AND EQ PUSH2 0xC64 JUMPI PUSH1 0x40 MLOAD PUSH32 0x7BF6A16F00000000000000000000000000000000000000000000000000000000 DUP2 MSTORE PUSH1 0x4 ADD PUSH1 0x40 MLOAD DUP1 SWAP2 SUB SWAP1 REVERT JUMPDEST PUSH1 0x40 MLOAD PUSH32 0x2CBC79F00000000000000000000000000000000000000000000000000000000 DUP2 MSTORE PUSH1 0x4 ADD PUSH1 0x40 MLOAD DUP1 SWAP2 SUB SWAP1 REVERT JUMPDEST PUSH1 0x0 DUP1 PUSH2 0xCA1 PUSH2 0x1248 JUMP JUMPDEST SWAP1 POP PUSH1 0x0 DUP2 PUSH20 0xFFFFFFFFFFFFFFFFFFFFFFFFFFFFFFFFFFFFFFFF AND PUSH4 0x4011EC0A DUP4 PUSH20 0xFFFFFFFFFFFFFFFFFFFFFFFFFFFFFFFFFFFFFFFF AND PUSH4 0xF437BC59 PUSH1 0x40 MLOAD DUP2 PUSH4 0xFFFFFFFF AND PUSH1 0xE0 SHL DUP2 MSTORE PUSH1 0x4 ADD PUSH1 0x0 PUSH1 0x40 MLOAD DUP1 DUP4 SUB DUP2 DUP7 GAS STATICCALL ISZERO DUP1 ISZERO PUSH2 0xD0C JUMPI RETURNDATASIZE PUSH1 0x0 DUP1 RETURNDATACOPY RETURNDATASIZE PUSH1 0x0 REVERT JUMPDEST POP POP POP POP PUSH1 0x40 MLOAD RETURNDATASIZE PUSH1 0x0 DUP3 RETURNDATACOPY RETURNDATASIZE PUSH1 0x1F NOT PUSH1 0x1F DUP3 ADD AND DUP3 ADD DUP1 PUSH1 0x40 MSTORE POP DUP2 ADD SWAP1 PUSH2 0xD35 SWAP2 SWAP1 PUSH2 0x2604 JUMP JUMPDEST PUSH1 0x40 MLOAD DUP3 PUSH4 0xFFFFFFFF AND PUSH1 0xE0 SHL DUP2 MSTORE PUSH1 0x4 ADD PUSH2 0xD51 SWAP2 SWAP1 PUSH2 0x2220 JUMP JUMPDEST PUSH1 0x20 PUSH1 0x40 MLOAD DUP1 DUP4 SUB DUP2 DUP7 GAS STATICCALL ISZERO DUP1 ISZERO PUSH2 0xD6E JUMPI RETURNDATASIZE PUSH1 0x0 DUP1 RETURNDATACOPY RETURNDATASIZE PUSH1 0x0 REVERT JUMPDEST POP POP POP POP PUSH1 0x40 MLOAD RETURNDATASIZE PUSH1 0x1F NOT PUSH1 0x1F DUP3 ADD AND DUP3 ADD DUP1 PUSH1 0x40 MSTORE POP DUP2 ADD SWAP1 PUSH2 0xD92 SWAP2 SWAP1 PUSH2 0x2257 JUMP JUMPDEST SWAP1 POP PUSH1 0x0 DUP2 PUSH1 0x20 PUSH2 0xDA3 SWAP2 SWAP1 PUSH2 0x22B3 JUMP JUMPDEST SWAP1 POP PUSH1 0x0 DUP6 PUSH1 0xA0 ADD MLOAD MLOAD DUP4 PUSH2 0xDB8 SWAP2 SWAP1 PUSH2 0x22B3 JUMP JUMPDEST DUP7 PUSH1 0x80 ADD MLOAD PUSH2 0xDC7 SWAP2 SWAP1 PUSH2 0x22F5 JUMP JUMPDEST SWAP1 POP DUP1 DUP3 GT PUSH2 0xDD6 JUMPI DUP1 PUSH2 0xDD8 JUMP JUMPDEST DUP2 JUMPDEST SWAP5 POP POP POP POP POP SWAP2 SWAP1 POP JUMP JUMPDEST PUSH2 0xDEB PUSH2 0x1248 JUMP JUMPDEST PUSH20 0xFFFFFFFFFFFFFFFFFFFFFFFFFFFFFFFFFFFFFFFF AND CALLER PUSH20 0xFFFFFFFFFFFFFFFFFFFFFFFFFFFFFFFFFFFFFFFF AND EQ PUSH2 0xE4F JUMPI PUSH1 0x40 MLOAD PUSH32 0x7BF6A16F00000000000000000000000000000000000000000000000000000000 DUP2 MSTORE PUSH1 0x4 ADD PUSH1 0x40 MLOAD DUP1 SWAP2 SUB SWAP1 REVERT JUMPDEST PUSH1 0x40 MLOAD PUSH32 0x2CBC79F00000000000000000000000000000000000000000000000000000000 DUP2 MSTORE PUSH1 0x4 ADD PUSH1 0x40 MLOAD DUP1 SWAP2 SUB SWAP1 REVERT JUMPDEST PUSH1 0x0 DUP1 PUSH2 0xE8D DUP4 PUSH2 0xC96 JUMP JUMPDEST SWAP1 POP PUSH1 0x0 PUSH2 0xE99 PUSH2 0x1248 JUMP JUMPDEST SWAP1 POP PUSH1 0x0 DUP2 PUSH20 0xFFFFFFFFFFFFFFFFFFFFFFFFFFFFFFFFFFFFFFFF AND PUSH4 0x1694505E PUSH1 0x40 MLOAD DUP2 PUSH4 0xFFFFFFFF AND PUSH1 0xE0 SHL DUP2 MSTORE PUSH1 0x4 ADD PUSH1 0x20 PUSH1 0x40 MLOAD DUP1 DUP4 SUB DUP2 DUP7 GAS STATICCALL ISZERO DUP1 ISZERO PUSH2 0xEE8 JUMPI RETURNDATASIZE PUSH1 0x0 DUP1 RETURNDATACOPY RETURNDATASIZE PUSH1 0x0 REVERT JUMPDEST POP POP POP POP PUSH1 0x40 MLOAD RETURNDATASIZE PUSH1 0x1F NOT PUSH1 0x1F DUP3 ADD AND DUP3 ADD DUP1 PUSH1 0x40 MSTORE POP DUP2 ADD SWAP1 PUSH2 0xF0C SWAP2 SWAP1 PUSH2 0x233E JUMP JUMPDEST SWAP1 POP PUSH1 0x0 PUSH1 0x2 PUSH8 0xFFFFFFFFFFFFFFFF DUP2 GT ISZERO PUSH2 0xF2B JUMPI PUSH2 0xF2A PUSH2 0x129B JUMP JUMPDEST JUMPDEST PUSH1 0x40 MLOAD SWAP1 DUP1 DUP3 MSTORE DUP1 PUSH1 0x20 MUL PUSH1 0x20 ADD DUP3 ADD PUSH1 0x40 MSTORE DUP1 ISZERO PUSH2 0xF59 JUMPI DUP2 PUSH1 0x20 ADD PUSH1 0x20 DUP3 MUL DUP1 CALLDATASIZE DUP4 CALLDATACOPY DUP1 DUP3 ADD SWAP2 POP POP SWAP1 POP JUMPDEST POP SWAP1 POP DUP2 PUSH20 0xFFFFFFFFFFFFFFFFFFFFFFFFFFFFFFFFFFFFFFFF AND PUSH4 0xAD5C4648 PUSH1 0x40 MLOAD DUP2 PUSH4 0xFFFFFFFF AND PUSH1 0xE0 SHL DUP2 MSTORE PUSH1 0x4 ADD PUSH1 0x20 PUSH1 0x40 MLOAD DUP1 DUP4 SUB DUP2 DUP7 GAS STATICCALL ISZERO DUP1 ISZERO PUSH2 0xFA7 JUMPI RETURNDATASIZE PUSH1 0x0 DUP1 RETURNDATACOPY RETURNDATASIZE PUSH1 0x0 REVERT JUMPDEST POP POP POP POP PUSH1 0x40 MLOAD RETURNDATASIZE PUSH1 0x1F NOT PUSH1 0x1F DUP3 ADD AND DUP3 ADD DUP1 PUSH1 0x40 MSTORE POP DUP2 ADD SWAP1 PUSH2 0xFCB SWAP2 SWAP1 PUSH2 0x233E JUMP JUMPDEST DUP2 PUSH1 0x0 DUP2 MLOAD DUP2 LT PUSH2 0xFDF JUMPI PUSH2 0xFDE PUSH2 0x236B JUMP JUMPDEST JUMPDEST PUSH1 0x20 MUL PUSH1 0x20 ADD ADD SWAP1 PUSH20 0xFFFFFFFFFFFFFFFFFFFFFFFFFFFFFFFFFFFFFFFF AND SWAP1 DUP2 PUSH20 0xFFFFFFFFFFFFFFFFFFFFFFFFFFFFFFFFFFFFFFFF AND DUP2 MSTORE POP POP DUP3 PUSH20 0xFFFFFFFFFFFFFFFFFFFFFFFFFFFFFFFFFFFFFFFF AND PUSH4 0x647846A5 PUSH1 0x40 MLOAD DUP2 PUSH4 0xFFFFFFFF AND PUSH1 0xE0 SHL DUP2 MSTORE PUSH1 0x4 ADD PUSH1 0x20 PUSH1 0x40 MLOAD DUP1 DUP4 SUB DUP2 DUP7 GAS STATICCALL ISZERO DUP1 ISZERO PUSH2 0x1064 JUMPI RETURNDATASIZE PUSH1 0x0 DUP1 RETURNDATACOPY RETURNDATASIZE PUSH1 0x0 REVERT JUMPDEST POP POP POP POP PUSH1 0x40 MLOAD RETURNDATASIZE PUSH1 0x1F NOT PUSH1 0x1F DUP3 ADD AND DUP3 ADD DUP1 PUSH1 0x40 MSTORE POP DUP2 ADD SWAP1 PUSH2 0x1088 SWAP2 SWAP1 PUSH2 0x233E JUMP JUMPDEST DUP2 PUSH1 0x1 DUP2 MLOAD DUP2 LT PUSH2 0x109C JUMPI PUSH2 0x109B PUSH2 0x236B JUMP JUMPDEST JUMPDEST PUSH1 0x20 MUL PUSH1 0x20 ADD ADD SWAP1 PUSH20 0xFFFFFFFFFFFFFFFFFFFFFFFFFFFFFFFFFFFFFFFF AND SWAP1 DUP2 PUSH20 0xFFFFFFFFFFFFFFFFFFFFFFFFFFFFFFFFFFFFFFFF AND DUP2 MSTORE POP POP DUP2 PUSH20 0xFFFFFFFFFFFFFFFFFFFFFFFFFFFFFFFFFFFFFFFF AND PUSH4 0x1F00CA74 DUP6 DUP4 PUSH1 0x40 MLOAD DUP4 PUSH4 0xFFFFFFFF AND PUSH1 0xE0 SHL DUP2 MSTORE PUSH1 0x4 ADD PUSH2 0x1111 SWAP3 SWAP2 SWAP1 PUSH2 0x2458 JUMP JUMPDEST PUSH1 0x0 PUSH1 0x40 MLOAD DUP1 DUP4 SUB DUP2 DUP7 GAS STATICCALL ISZERO DUP1 ISZERO PUSH2 0x112E JUMPI RETURNDATASIZE PUSH1 0x0 DUP1 RETURNDATACOPY RETURNDATASIZE PUSH1 0x0 REVERT JUMPDEST POP POP POP POP PUSH1 0x40 MLOAD RETURNDATASIZE PUSH1 0x0 DUP3 RETURNDATACOPY RETURNDATASIZE PUSH1 0x1F NOT PUSH1 0x1F DUP3 ADD AND DUP3 ADD DUP1 PUSH1 0x40 MSTORE POP DUP2 ADD SWAP1 PUSH2 0x1157 SWAP2 SWAP1 PUSH2 0x254B JUMP JUMPDEST PUSH1 0x0 DUP2 MLOAD DUP2 LT PUSH2 0x116A JUMPI PUSH2 0x1169 PUSH2 0x236B JUMP JUMPDEST JUMPDEST PUSH1 0x20 MUL PUSH1 0x20 ADD ADD MLOAD SWAP5 POP POP POP POP POP SWAP2 SWAP1 POP JUMP JUMPDEST PUSH1 0x0 DUP1 DUP3 PUSH1 0x20 ADD MLOAD MLOAD PUSH1 0x20 GT PUSH2 0x1198 JUMPI DUP3 PUSH1 0x20 ADD MLOAD MLOAD PUSH2 0x119B JUMP JUMPDEST PUSH1 0x20 JUMPDEST SWAP1 POP PUSH2 0x11A5 PUSH2 0x1248 JUMP JUMPDEST PUSH20 0xFFFFFFFFFFFFFFFFFFFFFFFFFFFFFFFFFFFFFFFF AND PUSH4 0x4011EC0A DUP5 PUSH1 0x0 ADD MLOAD PUSH1 0x0 ADD MLOAD PUSH1 0x40 MLOAD DUP3 PUSH4 0xFFFFFFFF AND PUSH1 0xE0 SHL DUP2 MSTORE PUSH1 0x4 ADD PUSH2 0x11E5 SWAP2 SWAP1 PUSH2 0x2220 JUMP JUMPDEST PUSH1 0x20 PUSH1 0x40 MLOAD DUP1 DUP4 SUB DUP2 DUP7 GAS STATICCALL ISZERO DUP1 ISZERO PUSH2 0x1202 JUMPI RETURNDATASIZE PUSH1 0x0 DUP1 RETURNDATACOPY RETURNDATASIZE PUSH1 0x0 REVERT JUMPDEST POP POP POP POP PUSH1 0x40 MLOAD RETURNDATASIZE PUSH1 0x1F NOT PUSH1 0x1F DUP3 ADD AND DUP3 ADD DUP1 PUSH1 0x40 MSTORE POP DUP2 ADD SWAP1 PUSH2 0x1226 SWAP2 SWAP1 PUSH2 0x2257 JUMP JUMPDEST DUP2 PUSH2 0x1231 SWAP2 SWAP1 PUSH2 0x22B3 JUMP JUMPDEST DUP4 PUSH1 0x60 ADD MLOAD PUSH2 0x1240 SWAP2 SWAP1 PUSH2 0x22F5 JUMP JUMPDEST SWAP2 POP POP SWAP2 SWAP1 POP JUMP JUMPDEST PUSH1 0x0 DUP1 PUSH1 0x0 SWAP1 SLOAD SWAP1 PUSH2 0x100 EXP SWAP1 DIV PUSH20 0xFFFFFFFFFFFFFFFFFFFFFFFFFFFFFFFFFFFFFFFF AND SWAP1 POP SWAP1 JUMP JUMPDEST PUSH1 0x0 PUSH1 0x40 MLOAD SWAP1 POP SWAP1 JUMP JUMPDEST PUSH1 0x0 DUP1 REVERT JUMPDEST PUSH1 0x0 DUP1 REVERT JUMPDEST PUSH1 0x0 DUP1 REVERT JUMPDEST PUSH1 0x0 PUSH1 0x1F NOT PUSH1 0x1F DUP4 ADD AND SWAP1 POP SWAP2 SWAP1 POP JUMP JUMPDEST PUSH32 0x4E487B7100000000000000000000000000000000000000000000000000000000 PUSH1 0x0 MSTORE PUSH1 0x41 PUSH1 0x4 MSTORE PUSH1 0x24 PUSH1 0x0 REVERT JUMPDEST PUSH2 0x12D3 DUP3 PUSH2 0x128A JUMP JUMPDEST DUP2 ADD DUP2 DUP2 LT PUSH8 0xFFFFFFFFFFFFFFFF DUP3 GT OR ISZERO PUSH2 0x12F2 JUMPI PUSH2 0x12F1 PUSH2 0x129B JUMP JUMPDEST JUMPDEST DUP1 PUSH1 0x40 MSTORE POP POP POP JUMP JUMPDEST PUSH1 0x0 PUSH2 0x1305 PUSH2 0x1271 JUMP JUMPDEST SWAP1 POP PUSH2 0x1311 DUP3 DUP3 PUSH2 0x12CA JUMP JUMPDEST SWAP2 SWAP1 POP JUMP JUMPDEST PUSH1 0x0 DUP1 REVERT JUMPDEST PUSH1 0x0 DUP1 REVERT JUMPDEST PUSH1 0x0 DUP1 REVERT JUMPDEST PUSH1 0x0 PUSH8 0xFFFFFFFFFFFFFFFF DUP3 GT ISZERO PUSH2 0x1340 JUMPI PUSH2 0x133F PUSH2 0x129B JUMP JUMPDEST JUMPDEST PUSH2 0x1349 DUP3 PUSH2 0x128A JUMP JUMPDEST SWAP1 POP PUSH1 0x20 DUP2 ADD SWAP1 POP SWAP2 SWAP1 POP JUMP JUMPDEST DUP3 DUP2 DUP4 CALLDATACOPY PUSH1 0x0 DUP4 DUP4 ADD MSTORE POP POP POP JUMP JUMPDEST PUSH1 0x0 PUSH2 0x1378 PUSH2 0x1373 DUP5 PUSH2 0x1325 JUMP JUMPDEST PUSH2 0x12FB JUMP JUMPDEST SWAP1 POP DUP3 DUP2 MSTORE PUSH1 0x20 DUP2 ADD DUP5 DUP5 DUP5 ADD GT ISZERO PUSH2 0x1394 JUMPI PUSH2 0x1393 PUSH2 0x1320 JUMP JUMPDEST JUMPDEST PUSH2 0x139F DUP5 DUP3 DUP6 PUSH2 0x1356 JUMP JUMPDEST POP SWAP4 SWAP3 POP POP POP JUMP JUMPDEST PUSH1 0x0 DUP3 PUSH1 0x1F DUP4 ADD SLT PUSH2 0x13BC JUMPI PUSH2 0x13BB PUSH2 0x131B JUMP JUMPDEST JUMPDEST DUP2 CALLDATALOAD PUSH2 0x13CC DUP5 DUP3 PUSH1 0x20 DUP7 ADD PUSH2 0x1365 JUMP JUMPDEST SWAP2 POP POP SWAP3 SWAP2 POP POP JUMP JUMPDEST PUSH1 0x0 PUSH8 0xFFFFFFFFFFFFFFFF DUP3 AND SWAP1 POP SWAP2 SWAP1 POP JUMP JUMPDEST PUSH2 0x13F2 DUP2 PUSH2 0x13D5 JUMP JUMPDEST DUP2 EQ PUSH2 0x13FD JUMPI PUSH1 0x0 DUP1 REVERT JUMPDEST POP JUMP JUMPDEST PUSH1 0x0 DUP2 CALLDATALOAD SWAP1 POP PUSH2 0x140F DUP2 PUSH2 0x13E9 JUMP JUMPDEST SWAP3 SWAP2 POP POP JUMP JUMPDEST PUSH1 0x0 PUSH1 0xE0 DUP3 DUP5 SUB SLT ISZERO PUSH2 0x142B JUMPI PUSH2 0x142A PUSH2 0x1285 JUMP JUMPDEST JUMPDEST PUSH2 0x1435 PUSH1 0xE0 PUSH2 0x12FB JUMP JUMPDEST SWAP1 POP PUSH1 0x0 DUP3 ADD CALLDATALOAD PUSH8 0xFFFFFFFFFFFFFFFF DUP2 GT ISZERO PUSH2 0x1455 JUMPI PUSH2 0x1454 PUSH2 0x1316 JUMP JUMPDEST JUMPDEST PUSH2 0x1461 DUP5 DUP3 DUP6 ADD PUSH2 0x13A7 JUMP JUMPDEST PUSH1 0x0 DUP4 ADD MSTORE POP PUSH1 0x20 DUP3 ADD CALLDATALOAD PUSH8 0xFFFFFFFFFFFFFFFF DUP2 GT ISZERO PUSH2 0x1485 JUMPI PUSH2 0x1484 PUSH2 0x1316 JUMP JUMPDEST JUMPDEST PUSH2 0x1491 DUP5 DUP3 DUP6 ADD PUSH2 0x13A7 JUMP JUMPDEST PUSH1 0x20 DUP4 ADD MSTORE POP PUSH1 0x40 PUSH2 0x14A5 DUP5 DUP3 DUP6 ADD PUSH2 0x1400 JUMP JUMPDEST PUSH1 0x40 DUP4 ADD MSTORE POP PUSH1 0x60 DUP3 ADD CALLDATALOAD PUSH8 0xFFFFFFFFFFFFFFFF DUP2 GT ISZERO PUSH2 0x14C9 JUMPI PUSH2 0x14C8 PUSH2 0x1316 JUMP JUMPDEST JUMPDEST PUSH2 0x14D5 DUP5 DUP3 DUP6 ADD PUSH2 0x13A7 JUMP JUMPDEST PUSH1 0x60 DUP4 ADD MSTORE POP PUSH1 0x80 DUP3 ADD CALLDATALOAD PUSH8 0xFFFFFFFFFFFFFFFF DUP2 GT ISZERO PUSH2 0x14F9 JUMPI PUSH2 0x14F8 PUSH2 0x1316 JUMP JUMPDEST JUMPDEST PUSH2 0x1505 DUP5 DUP3 DUP6 ADD PUSH2 0x13A7 JUMP JUMPDEST PUSH1 0x80 DUP4 ADD MSTORE POP PUSH1 0xA0 PUSH2 0x1519 DUP5 DUP3 DUP6 ADD PUSH2 0x1400 JUMP JUMPDEST PUSH1 0xA0 DUP4 ADD MSTORE POP PUSH1 0xC0 DUP3 ADD CALLDATALOAD PUSH8 0xFFFFFFFFFFFFFFFF DUP2 GT ISZERO PUSH2 0x153D JUMPI PUSH2 0x153C PUSH2 0x1316 JUMP JUMPDEST JUMPDEST PUSH2 0x1549 DUP5 DUP3 DUP6 ADD PUSH2 0x13A7 JUMP JUMPDEST PUSH1 0xC0 DUP4 ADD MSTORE POP SWAP3 SWAP2 POP POP JUMP JUMPDEST PUSH1 0x0 PUSH1 0x60 DUP3 DUP5 SUB SLT ISZERO PUSH2 0x156B JUMPI PUSH2 0x156A PUSH2 0x1285 JUMP JUMPDEST JUMPDEST PUSH2 0x1575 PUSH1 0x60 PUSH2 0x12FB JUMP JUMPDEST SWAP1 POP PUSH1 0x0 DUP3 ADD CALLDATALOAD PUSH8 0xFFFFFFFFFFFFFFFF DUP2 GT ISZERO PUSH2 0x1595 JUMPI PUSH2 0x1594 PUSH2 0x1316 JUMP JUMPDEST JUMPDEST PUSH2 0x15A1 DUP5 DUP3 DUP6 ADD PUSH2 0x1415 JUMP JUMPDEST PUSH1 0x0 DUP4 ADD MSTORE POP PUSH1 0x20 DUP3 ADD CALLDATALOAD PUSH8 0xFFFFFFFFFFFFFFFF DUP2 GT ISZERO PUSH2 0x15C5 JUMPI PUSH2 0x15C4 PUSH2 0x1316 JUMP JUMPDEST JUMPDEST PUSH2 0x15D1 DUP5 DUP3 DUP6 ADD PUSH2 0x13A7 JUMP JUMPDEST PUSH1 0x20 DUP4 ADD MSTORE POP PUSH1 0x40 PUSH2 0x15E5 DUP5 DUP3 DUP6 ADD PUSH2 0x1400 JUMP JUMPDEST PUSH1 0x40 DUP4 ADD MSTORE POP SWAP3 SWAP2 POP POP JUMP JUMPDEST PUSH1 0x0 PUSH1 0x20 DUP3 DUP5 SUB SLT ISZERO PUSH2 0x1607 JUMPI PUSH2 0x1606 PUSH2 0x127B JUMP JUMPDEST JUMPDEST PUSH1 0x0 DUP3 ADD CALLDATALOAD PUSH8 0xFFFFFFFFFFFFFFFF DUP2 GT ISZERO PUSH2 0x1625 JUMPI PUSH2 0x1624 PUSH2 0x1280 JUMP JUMPDEST JUMPDEST PUSH2 0x1631 DUP5 DUP3 DUP6 ADD PUSH2 0x1555 JUMP JUMPDEST SWAP2 POP POP SWAP3 SWAP2 POP POP JUMP JUMPDEST PUSH1 0x0 PUSH20 0xFFFFFFFFFFFFFFFFFFFFFFFFFFFFFFFFFFFFFFFF DUP3 AND SWAP1 POP SWAP2 SWAP1 POP JUMP JUMPDEST PUSH1 0x0 PUSH2 0x1665 DUP3 PUSH2 0x163A JUMP JUMPDEST SWAP1 POP SWAP2 SWAP1 POP JUMP JUMPDEST PUSH2 0x1675 DUP2 PUSH2 0x165A JUMP JUMPDEST DUP2 EQ PUSH2 0x1680 JUMPI PUSH1 0x0 DUP1 REVERT JUMPDEST POP JUMP JUMPDEST PUSH1 0x0 DUP2 CALLDATALOAD SWAP1 POP PUSH2 0x1692 DUP2 PUSH2 0x166C JUMP JUMPDEST SWAP3 SWAP2 POP POP JUMP JUMPDEST PUSH1 0x0 PUSH1 0x40 DUP3 DUP5 SUB SLT ISZERO PUSH2 0x16AE JUMPI PUSH2 0x16AD PUSH2 0x1285 JUMP JUMPDEST JUMPDEST PUSH2 0x16B8 PUSH1 0x40 PUSH2 0x12FB JUMP JUMPDEST SWAP1 POP PUSH1 0x0 DUP3 ADD CALLDATALOAD PUSH8 0xFFFFFFFFFFFFFFFF DUP2 GT ISZERO PUSH2 0x16D8 JUMPI PUSH2 0x16D7 PUSH2 0x1316 JUMP JUMPDEST JUMPDEST PUSH2 0x16E4 DUP5 DUP3 DUP6 ADD PUSH2 0x1415 JUMP JUMPDEST PUSH1 0x0 DUP4 ADD MSTORE POP PUSH1 0x20 PUSH2 0x16F8 DUP5 DUP3 DUP6 ADD PUSH2 0x1683 JUMP JUMPDEST PUSH1 0x20 DUP4 ADD MSTORE POP SWAP3 SWAP2 POP POP JUMP JUMPDEST PUSH1 0x0 PUSH1 0x20 DUP3 DUP5 SUB SLT ISZERO PUSH2 0x171A JUMPI PUSH2 0x1719 PUSH2 0x127B JUMP JUMPDEST JUMPDEST PUSH1 0x0 DUP3 ADD CALLDATALOAD PUSH8 0xFFFFFFFFFFFFFFFF DUP2 GT ISZERO PUSH2 0x1738 JUMPI PUSH2 0x1737 PUSH2 0x1280 JUMP JUMPDEST JUMPDEST PUSH2 0x1744 DUP5 DUP3 DUP6 ADD PUSH2 0x1698 JUMP JUMPDEST SWAP2 POP POP SWAP3 SWAP2 POP POP JUMP JUMPDEST PUSH1 0x0 DUP2 SWAP1 POP SWAP2 SWAP1 POP JUMP JUMPDEST PUSH2 0x1760 DUP2 PUSH2 0x174D JUMP JUMPDEST DUP2 EQ PUSH2 0x176B JUMPI PUSH1 0x0 DUP1 REVERT JUMPDEST POP JUMP JUMPDEST PUSH1 0x0 DUP2 CALLDATALOAD SWAP1 POP PUSH2 0x177D DUP2 PUSH2 0x1757 JUMP JUMPDEST SWAP3 SWAP2 POP POP JUMP JUMPDEST PUSH1 0x0 PUSH1 0xC0 DUP3 DUP5 SUB SLT ISZERO PUSH2 0x1799 JUMPI PUSH2 0x1798 PUSH2 0x1285 JUMP JUMPDEST JUMPDEST PUSH2 0x17A3 PUSH1 0xC0 PUSH2 0x12FB JUMP JUMPDEST SWAP1 POP PUSH1 0x0 DUP3 ADD CALLDATALOAD PUSH8 0xFFFFFFFFFFFFFFFF DUP2 GT ISZERO PUSH2 0x17C3 JUMPI PUSH2 0x17C2 PUSH2 0x1316 JUMP JUMPDEST JUMPDEST PUSH2 0x17CF DUP5 DUP3 DUP6 ADD PUSH2 0x13A7 JUMP JUMPDEST PUSH1 0x0 DUP4 ADD MSTORE POP PUSH1 0x20 DUP3 ADD CALLDATALOAD PUSH8 0xFFFFFFFFFFFFFFFF DUP2 GT ISZERO PUSH2 0x17F3 JUMPI PUSH2 0x17F2 PUSH2 0x1316 JUMP JUMPDEST JUMPDEST PUSH2 0x17FF DUP5 DUP3 DUP6 ADD PUSH2 0x13A7 JUMP JUMPDEST PUSH1 0x20 DUP4 ADD MSTORE POP PUSH1 0x40 DUP3 ADD CALLDATALOAD PUSH8 0xFFFFFFFFFFFFFFFF DUP2 GT ISZERO PUSH2 0x1823 JUMPI PUSH2 0x1822 PUSH2 0x1316 JUMP JUMPDEST JUMPDEST PUSH2 0x182F DUP5 DUP3 DUP6 ADD PUSH2 0x13A7 JUMP JUMPDEST PUSH1 0x40 DUP4 ADD MSTORE POP PUSH1 0x60 PUSH2 0x1843 DUP5 DUP3 DUP6 ADD PUSH2 0x1400 JUMP JUMPDEST PUSH1 0x60 DUP4 ADD MSTORE POP PUSH1 0x80 PUSH2 0x1857 DUP5 DUP3 DUP6 ADD PUSH2 0x176E JUMP JUMPDEST PUSH1 0x80 DUP4 ADD MSTORE POP PUSH1 0xA0 PUSH2 0x186B DUP5 DUP3 DUP6 ADD PUSH2 0x1683 JUMP JUMPDEST PUSH1 0xA0 DUP4 ADD MSTORE POP SWAP3 SWAP2 POP POP JUMP JUMPDEST PUSH1 0x0 PUSH1 0x20 DUP3 DUP5 SUB SLT ISZERO PUSH2 0x188D JUMPI PUSH2 0x188C PUSH2 0x127B JUMP JUMPDEST JUMPDEST PUSH1 0x0 DUP3 ADD CALLDATALOAD PUSH8 0xFFFFFFFFFFFFFFFF DUP2 GT ISZERO PUSH2 0x18AB JUMPI PUSH2 0x18AA PUSH2 0x1280 JUMP JUMPDEST JUMPDEST PUSH2 0x18B7 DUP5 DUP3 DUP6 ADD PUSH2 0x1783 JUMP JUMPDEST SWAP2 POP POP SWAP3 SWAP2 POP POP JUMP JUMPDEST PUSH2 0x18C9 DUP2 PUSH2 0x174D JUMP JUMPDEST DUP3 MSTORE POP POP JUMP JUMPDEST PUSH1 0x0 PUSH1 0x20 DUP3 ADD SWAP1 POP PUSH2 0x18E4 PUSH1 0x0 DUP4 ADD DUP5 PUSH2 0x18C0 JUMP JUMPDEST SWAP3 SWAP2 POP POP JUMP JUMPDEST PUSH1 0x0 PUSH8 0xFFFFFFFFFFFFFFFF DUP3 GT ISZERO PUSH2 0x1905 JUMPI PUSH2 0x1904 PUSH2 0x129B JUMP JUMPDEST JUMPDEST PUSH1 0x20 DUP3 MUL SWAP1 POP PUSH1 0x20 DUP2 ADD SWAP1 POP SWAP2 SWAP1 POP JUMP JUMPDEST PUSH1 0x0 DUP1 REVERT JUMPDEST PUSH1 0x0 PUSH2 0x192E PUSH2 0x1929 DUP5 PUSH2 0x18EA JUMP JUMPDEST PUSH2 0x12FB JUMP JUMPDEST SWAP1 POP DUP1 DUP4 DUP3 MSTORE PUSH1 0x20 DUP3 ADD SWAP1 POP PUSH1 0x20 DUP5 MUL DUP4 ADD DUP6 DUP2 GT ISZERO PUSH2 0x1951 JUMPI PUSH2 0x1950 PUSH2 0x1916 JUMP JUMPDEST JUMPDEST DUP4 JUMPDEST DUP2 DUP2 LT ISZERO PUSH2 0x1998 JUMPI DUP1 CALLDATALOAD PUSH8 0xFFFFFFFFFFFFFFFF DUP2 GT ISZERO PUSH2 0x1976 JUMPI PUSH2 0x1975 PUSH2 0x131B JUMP JUMPDEST JUMPDEST DUP1 DUP7 ADD PUSH2 0x1983 DUP10 DUP3 PUSH2 0x13A7 JUMP JUMPDEST DUP6 MSTORE PUSH1 0x20 DUP6 ADD SWAP5 POP POP POP PUSH1 0x20 DUP2 ADD SWAP1 POP PUSH2 0x1953 JUMP JUMPDEST POP POP POP SWAP4 SWAP3 POP POP POP JUMP JUMPDEST PUSH1 0x0 DUP3 PUSH1 0x1F DUP4 ADD SLT PUSH2 0x19B7 JUMPI PUSH2 0x19B6 PUSH2 0x131B JUMP JUMPDEST JUMPDEST DUP2 CALLDATALOAD PUSH2 0x19C7 DUP5 DUP3 PUSH1 0x20 DUP7 ADD PUSH2 0x191B JUMP JUMPDEST SWAP2 POP POP SWAP3 SWAP2 POP POP JUMP JUMPDEST PUSH1 0x0 PUSH2 0x100 DUP3 DUP5 SUB SLT ISZERO PUSH2 0x19E7 JUMPI PUSH2 0x19E6 PUSH2 0x1285 JUMP JUMPDEST JUMPDEST PUSH2 0x19F2 PUSH2 0x100 PUSH2 0x12FB JUMP JUMPDEST SWAP1 POP PUSH1 0x0 DUP3 ADD CALLDATALOAD PUSH8 0xFFFFFFFFFFFFFFFF DUP2 GT ISZERO PUSH2 0x1A12 JUMPI PUSH2 0x1A11 PUSH2 0x1316 JUMP JUMPDEST JUMPDEST PUSH2 0x1A1E DUP5 DUP3 DUP6 ADD PUSH2 0x13A7 JUMP JUMPDEST PUSH1 0x0 DUP4 ADD MSTORE POP PUSH1 0x20 DUP3 ADD CALLDATALOAD PUSH8 0xFFFFFFFFFFFFFFFF DUP2 GT ISZERO PUSH2 0x1A42 JUMPI PUSH2 0x1A41 PUSH2 0x1316 JUMP JUMPDEST JUMPDEST PUSH2 0x1A4E DUP5 DUP3 DUP6 ADD PUSH2 0x13A7 JUMP JUMPDEST PUSH1 0x20 DUP4 ADD MSTORE POP PUSH1 0x40 PUSH2 0x1A62 DUP5 DUP3 DUP6 ADD PUSH2 0x1400 JUMP JUMPDEST PUSH1 0x40 DUP4 ADD MSTORE POP PUSH1 0x60 PUSH2 0x1A76 DUP5 DUP3 DUP6 ADD PUSH2 0x1683 JUMP JUMPDEST PUSH1 0x60 DUP4 ADD MSTORE POP PUSH1 0x80 PUSH2 0x1A8A DUP5 DUP3 DUP6 ADD PUSH2 0x1400 JUMP JUMPDEST PUSH1 0x80 DUP4 ADD MSTORE POP PUSH1 0xA0 DUP3 ADD CALLDATALOAD PUSH8 0xFFFFFFFFFFFFFFFF DUP2 GT ISZERO PUSH2 0x1AAE JUMPI PUSH2 0x1AAD PUSH2 0x1316 JUMP JUMPDEST JUMPDEST PUSH2 0x1ABA DUP5 DUP3 DUP6 ADD PUSH2 0x19A2 JUMP JUMPDEST PUSH1 0xA0 DUP4 ADD MSTORE POP PUSH1 0xC0 PUSH2 0x1ACE DUP5 DUP3 DUP6 ADD PUSH2 0x1400 JUMP JUMPDEST PUSH1 0xC0 DUP4 ADD MSTORE POP PUSH1 0xE0 DUP3 ADD CALLDATALOAD PUSH8 0xFFFFFFFFFFFFFFFF DUP2 GT ISZERO PUSH2 0x1AF2 JUMPI PUSH2 0x1AF1 PUSH2 0x1316 JUMP JUMPDEST JUMPDEST PUSH2 0x1AFE DUP5 DUP3 DUP6 ADD PUSH2 0x13A7 JUMP JUMPDEST PUSH1 0xE0 DUP4 ADD MSTORE POP SWAP3 SWAP2 POP POP JUMP JUMPDEST PUSH1 0x0 PUSH8 0xFFFFFFFFFFFFFFFF DUP3 GT ISZERO PUSH2 0x1B25 JUMPI PUSH2 0x1B24 PUSH2 0x129B JUMP JUMPDEST JUMPDEST PUSH1 0x20 DUP3 MUL SWAP1 POP PUSH1 0x20 DUP2 ADD SWAP1 POP SWAP2 SWAP1 POP JUMP JUMPDEST PUSH1 0x0 PUSH1 0x40 DUP3 DUP5 SUB SLT ISZERO PUSH2 0x1B4C JUMPI PUSH2 0x1B4B PUSH2 0x1285 JUMP JUMPDEST JUMPDEST PUSH2 0x1B56 PUSH1 0x40 PUSH2 0x12FB JUMP JUMPDEST SWAP1 POP PUSH1 0x0 DUP3 ADD CALLDATALOAD PUSH8 0xFFFFFFFFFFFFFFFF DUP2 GT ISZERO PUSH2 0x1B76 JUMPI PUSH2 0x1B75 PUSH2 0x1316 JUMP JUMPDEST JUMPDEST PUSH2 0x1B82 DUP5 DUP3 DUP6 ADD PUSH2 0x13A7 JUMP JUMPDEST PUSH1 0x0 DUP4 ADD MSTORE POP PUSH1 0x20 DUP3 ADD CALLDATALOAD PUSH8 0xFFFFFFFFFFFFFFFF DUP2 GT ISZERO PUSH2 0x1BA6 JUMPI PUSH2 0x1BA5 PUSH2 0x1316 JUMP JUMPDEST JUMPDEST PUSH2 0x1BB2 DUP5 DUP3 DUP6 ADD PUSH2 0x13A7 JUMP JUMPDEST PUSH1 0x20 DUP4 ADD MSTORE POP SWAP3 SWAP2 POP POP JUMP JUMPDEST PUSH1 0x0 PUSH2 0x1BD1 PUSH2 0x1BCC DUP5 PUSH2 0x1B0A JUMP JUMPDEST PUSH2 0x12FB JUMP JUMPDEST SWAP1 POP DUP1 DUP4 DUP3 MSTORE PUSH1 0x20 DUP3 ADD SWAP1 POP PUSH1 0x20 DUP5 MUL DUP4 ADD DUP6 DUP2 GT ISZERO PUSH2 0x1BF4 JUMPI PUSH2 0x1BF3 PUSH2 0x1916 JUMP JUMPDEST JUMPDEST DUP4 JUMPDEST DUP2 DUP2 LT ISZERO PUSH2 0x1C3B JUMPI DUP1 CALLDATALOAD PUSH8 0xFFFFFFFFFFFFFFFF DUP2 GT ISZERO PUSH2 0x1C19 JUMPI PUSH2 0x1C18 PUSH2 0x131B JUMP JUMPDEST JUMPDEST DUP1 DUP7 ADD PUSH2 0x1C26 DUP10 DUP3 PUSH2 0x1B36 JUMP JUMPDEST DUP6 MSTORE PUSH1 0x20 DUP6 ADD SWAP5 POP POP POP PUSH1 0x20 DUP2 ADD SWAP1 POP PUSH2 0x1BF6 JUMP JUMPDEST POP POP POP SWAP4 SWAP3 POP POP POP JUMP JUMPDEST PUSH1 0x0 DUP3 PUSH1 0x1F DUP4 ADD SLT PUSH2 0x1C5A JUMPI PUSH2 0x1C59 PUSH2 0x131B JUMP JUMPDEST JUMPDEST DUP2 CALLDATALOAD PUSH2 0x1C6A DUP5 DUP3 PUSH1 0x20 DUP7 ADD PUSH2 0x1BBE JUMP JUMPDEST SWAP2 POP POP SWAP3 SWAP2 POP POP JUMP JUMPDEST PUSH1 0x0 PUSH1 0x40 DUP3 DUP5 SUB SLT ISZERO PUSH2 0x1C89 JUMPI PUSH2 0x1C88 PUSH2 0x1285 JUMP JUMPDEST JUMPDEST PUSH2 0x1C93 PUSH1 0x40 PUSH2 0x12FB JUMP JUMPDEST SWAP1 POP PUSH1 0x0 DUP3 ADD CALLDATALOAD PUSH8 0xFFFFFFFFFFFFFFFF DUP2 GT ISZERO PUSH2 0x1CB3 JUMPI PUSH2 0x1CB2 PUSH2 0x1316 JUMP JUMPDEST JUMPDEST PUSH2 0x1CBF DUP5 DUP3 DUP6 ADD PUSH2 0x19D0 JUMP JUMPDEST PUSH1 0x0 DUP4 ADD MSTORE POP PUSH1 0x20 DUP3 ADD CALLDATALOAD PUSH8 0xFFFFFFFFFFFFFFFF DUP2 GT ISZERO PUSH2 0x1CE3 JUMPI PUSH2 0x1CE2 PUSH2 0x1316 JUMP JUMPDEST JUMPDEST PUSH2 0x1CEF DUP5 DUP3 DUP6 ADD PUSH2 0x1C45 JUMP JUMPDEST PUSH1 0x20 DUP4 ADD MSTORE POP SWAP3 SWAP2 POP POP JUMP JUMPDEST PUSH1 0x0 PUSH1 0x40 DUP3 DUP5 SUB SLT ISZERO PUSH2 0x1D11 JUMPI PUSH2 0x1D10 PUSH2 0x1285 JUMP JUMPDEST JUMPDEST PUSH2 0x1D1B PUSH1 0x40 PUSH2 0x12FB JUMP JUMPDEST SWAP1 POP PUSH1 0x0 DUP3 ADD CALLDATALOAD PUSH8 0xFFFFFFFFFFFFFFFF DUP2 GT ISZERO PUSH2 0x1D3B JUMPI PUSH2 0x1D3A PUSH2 0x1316 JUMP JUMPDEST JUMPDEST PUSH2 0x1D47 DUP5 DUP3 DUP6 ADD PUSH2 0x1C73 JUMP JUMPDEST PUSH1 0x0 DUP4 ADD MSTORE POP PUSH1 0x20 PUSH2 0x1D5B DUP5 DUP3 DUP6 ADD PUSH2 0x1683 JUMP JUMPDEST PUSH1 0x20 DUP4 ADD MSTORE POP SWAP3 SWAP2 POP POP JUMP JUMPDEST PUSH1 0x0 PUSH1 0x20 DUP3 DUP5 SUB SLT ISZERO PUSH2 0x1D7D JUMPI PUSH2 0x1D7C PUSH2 0x127B JUMP JUMPDEST JUMPDEST PUSH1 0x0 DUP3 ADD CALLDATALOAD PUSH8 0xFFFFFFFFFFFFFFFF DUP2 GT ISZERO PUSH2 0x1D9B JUMPI PUSH2 0x1D9A PUSH2 0x1280 JUMP JUMPDEST JUMPDEST PUSH2 0x1DA7 DUP5 DUP3 DUP6 ADD PUSH2 0x1CFB JUMP JUMPDEST SWAP2 POP POP SWAP3 SWAP2 POP POP JUMP JUMPDEST PUSH1 0x0 DUP2 ISZERO ISZERO SWAP1 POP SWAP2 SWAP1 POP JUMP JUMPDEST PUSH2 0x1DC5 DUP2 PUSH2 0x1DB0 JUMP JUMPDEST DUP3 MSTORE POP POP JUMP JUMPDEST PUSH1 0x0 PUSH1 0x20 DUP3 ADD SWAP1 POP PUSH2 0x1DE0 PUSH1 0x0 DUP4 ADD DUP5 PUSH2 0x1DBC JUMP JUMPDEST SWAP3 SWAP2 POP POP JUMP JUMPDEST PUSH1 0x0 PUSH1 0xA0 DUP3 DUP5 SUB SLT ISZERO PUSH2 0x1DFC JUMPI PUSH2 0x1DFB PUSH2 0x1285 JUMP JUMPDEST JUMPDEST PUSH2 0x1E06 PUSH1 0xA0 PUSH2 0x12FB JUMP JUMPDEST SWAP1 POP PUSH1 0x0 DUP3 ADD CALLDATALOAD PUSH8 0xFFFFFFFFFFFFFFFF DUP2 GT ISZERO PUSH2 0x1E26 JUMPI PUSH2 0x1E25 PUSH2 0x1316 JUMP JUMPDEST JUMPDEST PUSH2 0x1E32 DUP5 DUP3 DUP6 ADD PUSH2 0x1415 JUMP JUMPDEST PUSH1 0x0 DUP4 ADD MSTORE POP PUSH1 0x20 DUP3 ADD CALLDATALOAD PUSH8 0xFFFFFFFFFFFFFFFF DUP2 GT ISZERO PUSH2 0x1E56 JUMPI PUSH2 0x1E55 PUSH2 0x1316 JUMP JUMPDEST JUMPDEST PUSH2 0x1E62 DUP5 DUP3 DUP6 ADD PUSH2 0x13A7 JUMP JUMPDEST PUSH1 0x20 DUP4 ADD MSTORE POP PUSH1 0x40 PUSH2 0x1E76 DUP5 DUP3 DUP6 ADD PUSH2 0x1400 JUMP JUMPDEST PUSH1 0x40 DUP4 ADD MSTORE POP PUSH1 0x60 PUSH2 0x1E8A DUP5 DUP3 DUP6 ADD PUSH2 0x176E JUMP JUMPDEST PUSH1 0x60 DUP4 ADD MSTORE POP PUSH1 0x80 PUSH2 0x1E9E DUP5 DUP3 DUP6 ADD PUSH2 0x1683 JUMP JUMPDEST PUSH1 0x80 DUP4 ADD MSTORE POP SWAP3 SWAP2 POP POP JUMP JUMPDEST PUSH1 0x0 PUSH1 0x20 DUP3 DUP5 SUB SLT ISZERO PUSH2 0x1EC0 JUMPI PUSH2 0x1EBF PUSH2 0x127B JUMP JUMPDEST JUMPDEST PUSH1 0x0 DUP3 ADD CALLDATALOAD PUSH8 0xFFFFFFFFFFFFFFFF DUP2 GT ISZERO PUSH2 0x1EDE JUMPI PUSH2 0x1EDD PUSH2 0x1280 JUMP JUMPDEST JUMPDEST PUSH2 0x1EEA DUP5 DUP3 DUP6 ADD PUSH2 0x1DE6 JUMP JUMPDEST SWAP2 POP POP SWAP3 SWAP2 POP POP JUMP JUMPDEST PUSH1 0x0 PUSH1 0x40 DUP3 DUP5 SUB SLT ISZERO PUSH2 0x1F09 JUMPI PUSH2 0x1F08 PUSH2 0x1285 JUMP JUMPDEST JUMPDEST PUSH2 0x1F13 PUSH1 0x40 PUSH2 0x12FB JUMP JUMPDEST SWAP1 POP PUSH1 0x0 DUP3 ADD CALLDATALOAD PUSH8 0xFFFFFFFFFFFFFFFF DUP2 GT ISZERO PUSH2 0x1F33 JUMPI PUSH2 0x1F32 PUSH2 0x1316 JUMP JUMPDEST JUMPDEST PUSH2 0x1F3F DUP5 DUP3 DUP6 ADD PUSH2 0x1555 JUMP JUMPDEST PUSH1 0x0 DUP4 ADD MSTORE POP PUSH1 0x20 PUSH2 0x1F53 DUP5 DUP3 DUP6 ADD PUSH2 0x1683 JUMP JUMPDEST PUSH1 0x20 DUP4 ADD MSTORE POP SWAP3 SWAP2 POP POP JUMP JUMPDEST PUSH1 0x0 PUSH1 0x20 DUP3 DUP5 SUB SLT ISZERO PUSH2 0x1F75 JUMPI PUSH2 0x1F74 PUSH2 0x127B JUMP JUMPDEST JUMPDEST PUSH1 0x0 DUP3 ADD CALLDATALOAD PUSH8 0xFFFFFFFFFFFFFFFF DUP2 GT ISZERO PUSH2 0x1F93 JUMPI PUSH2 0x1F92 PUSH2 0x1280 JUMP JUMPDEST JUMPDEST PUSH2 0x1F9F DUP5 DUP3 DUP6 ADD PUSH2 0x1EF3 JUMP JUMPDEST SWAP2 POP POP SWAP3 SWAP2 POP POP JUMP JUMPDEST PUSH1 0x0 PUSH1 0x20 DUP3 DUP5 SUB SLT ISZERO PUSH2 0x1FBE JUMPI PUSH2 0x1FBD PUSH2 0x127B JUMP JUMPDEST JUMPDEST PUSH1 0x0 DUP3 ADD CALLDATALOAD PUSH8 0xFFFFFFFFFFFFFFFF DUP2 GT ISZERO PUSH2 0x1FDC JUMPI PUSH2 0x1FDB PUSH2 0x1280 JUMP JUMPDEST JUMPDEST PUSH2 0x1FE8 DUP5 DUP3 DUP6 ADD PUSH2 0x1415 JUMP JUMPDEST SWAP2 POP POP SWAP3 SWAP2 POP POP JUMP JUMPDEST PUSH1 0x0 PUSH1 0xC0 DUP3 DUP5 SUB SLT ISZERO PUSH2 0x2007 JUMPI PUSH2 0x2006 PUSH2 0x1285 JUMP JUMPDEST JUMPDEST PUSH2 0x2011 PUSH1 0xC0 PUSH2 0x12FB JUMP JUMPDEST SWAP1 POP PUSH1 0x0 DUP3 ADD CALLDATALOAD PUSH8 0xFFFFFFFFFFFFFFFF DUP2 GT ISZERO PUSH2 0x2031 JUMPI PUSH2 0x2030 PUSH2 0x1316 JUMP JUMPDEST JUMPDEST PUSH2 0x203D DUP5 DUP3 DUP6 ADD PUSH2 0x13A7 JUMP JUMPDEST PUSH1 0x0 DUP4 ADD MSTORE POP PUSH1 0x20 PUSH2 0x2051 DUP5 DUP3 DUP6 ADD PUSH2 0x1400 JUMP JUMPDEST PUSH1 0x20 DUP4 ADD MSTORE POP PUSH1 0x40 DUP3 ADD CALLDATALOAD PUSH8 0xFFFFFFFFFFFFFFFF DUP2 GT ISZERO PUSH2 0x2075 JUMPI PUSH2 0x2074 PUSH2 0x1316 JUMP JUMPDEST JUMPDEST PUSH2 0x2081 DUP5 DUP3 DUP6 ADD PUSH2 0x19A2 JUMP JUMPDEST PUSH1 0x40 DUP4 ADD MSTORE POP PUSH1 0x60 PUSH2 0x2095 DUP5 DUP3 DUP6 ADD PUSH2 0x1400 JUMP JUMPDEST PUSH1 0x60 DUP4 ADD MSTORE POP PUSH1 0x80 PUSH2 0x20A9 DUP5 DUP3 DUP6 ADD PUSH2 0x176E JUMP JUMPDEST PUSH1 0x80 DUP4 ADD MSTORE POP PUSH1 0xA0 DUP3 ADD CALLDATALOAD PUSH8 0xFFFFFFFFFFFFFFFF DUP2 GT ISZERO PUSH2 0x20CD JUMPI PUSH2 0x20CC PUSH2 0x1316 JUMP JUMPDEST JUMPDEST PUSH2 0x20D9 DUP5 DUP3 DUP6 ADD PUSH2 0x13A7 JUMP JUMPDEST PUSH1 0xA0 DUP4 ADD MSTORE POP SWAP3 SWAP2 POP POP JUMP JUMPDEST PUSH1 0x0 PUSH1 0x20 DUP3 DUP5 SUB SLT ISZERO PUSH2 0x20FB JUMPI PUSH2 0x20FA PUSH2 0x127B JUMP JUMPDEST JUMPDEST PUSH1 0x0 DUP3 ADD CALLDATALOAD PUSH8 0xFFFFFFFFFFFFFFFF DUP2 GT ISZERO PUSH2 0x2119 JUMPI PUSH2 0x2118 PUSH2 0x1280 JUMP JUMPDEST JUMPDEST PUSH2 0x2125 DUP5 DUP3 DUP6 ADD PUSH2 0x1FF1 JUMP JUMPDEST SWAP2 POP POP SWAP3 SWAP2 POP POP JUMP JUMPDEST PUSH1 0x0 PUSH1 0x20 DUP3 DUP5 SUB SLT ISZERO PUSH2 0x2144 JUMPI PUSH2 0x2143 PUSH2 0x127B JUMP JUMPDEST JUMPDEST PUSH1 0x0 DUP3 ADD CALLDATALOAD PUSH8 0xFFFFFFFFFFFFFFFF DUP2 GT ISZERO PUSH2 0x2162 JUMPI PUSH2 0x2161 PUSH2 0x1280 JUMP JUMPDEST JUMPDEST PUSH2 0x216E DUP5 DUP3 DUP6 ADD PUSH2 0x19D0 JUMP JUMPDEST SWAP2 POP POP SWAP3 SWAP2 POP POP JUMP JUMPDEST PUSH2 0x2180 DUP2 PUSH2 0x165A JUMP JUMPDEST DUP3 MSTORE POP POP JUMP JUMPDEST PUSH1 0x0 PUSH1 0x20 DUP3 ADD SWAP1 POP PUSH2 0x219B PUSH1 0x0 DUP4 ADD DUP5 PUSH2 0x2177 JUMP JUMPDEST SWAP3 SWAP2 POP POP JUMP JUMPDEST PUSH1 0x0 DUP2 MLOAD SWAP1 POP SWAP2 SWAP1 POP JUMP JUMPDEST PUSH1 0x0 DUP3 DUP3 MSTORE PUSH1 0x20 DUP3 ADD SWAP1 POP SWAP3 SWAP2 POP POP JUMP JUMPDEST PUSH1 0x0 JUMPDEST DUP4 DUP2 LT ISZERO PUSH2 0x21DB JUMPI DUP1 DUP3 ADD MLOAD DUP2 DUP5 ADD MSTORE PUSH1 0x20 DUP2 ADD SWAP1 POP PUSH2 0x21C0 JUMP JUMPDEST PUSH1 0x0 DUP5 DUP5 ADD MSTORE POP POP POP POP JUMP JUMPDEST PUSH1 0x0 PUSH2 0x21F2 DUP3 PUSH2 0x21A1 JUMP JUMPDEST PUSH2 0x21FC DUP2 DUP6 PUSH2 0x21AC JUMP JUMPDEST SWAP4 POP PUSH2 0x220C DUP2 DUP6 PUSH1 0x20 DUP7 ADD PUSH2 0x21BD JUMP JUMPDEST PUSH2 0x2215 DUP2 PUSH2 0x128A JUMP JUMPDEST DUP5 ADD SWAP2 POP POP SWAP3 SWAP2 POP POP JUMP JUMPDEST PUSH1 0x0 PUSH1 0x20 DUP3 ADD SWAP1 POP DUP2 DUP2 SUB PUSH1 0x0 DUP4 ADD MSTORE PUSH2 0x223A DUP2 DUP5 PUSH2 0x21E7 JUMP JUMPDEST SWAP1 POP SWAP3 SWAP2 POP POP JUMP JUMPDEST PUSH1 0x0 DUP2 MLOAD SWAP1 POP PUSH2 0x2251 DUP2 PUSH2 0x1757 JUMP JUMPDEST SWAP3 SWAP2 POP POP JUMP JUMPDEST PUSH1 0x0 PUSH1 0x20 DUP3 DUP5 SUB SLT ISZERO PUSH2 0x226D JUMPI PUSH2 0x226C PUSH2 0x127B JUMP JUMPDEST JUMPDEST PUSH1 0x0 PUSH2 0x227B DUP5 DUP3 DUP6 ADD PUSH2 0x2242 JUMP JUMPDEST SWAP2 POP POP SWAP3 SWAP2 POP POP JUMP JUMPDEST PUSH32 0x4E487B7100000000000000000000000000000000000000000000000000000000 PUSH1 0x0 MSTORE PUSH1 0x11 PUSH1 0x4 MSTORE PUSH1 0x24 PUSH1 0x0 REVERT JUMPDEST PUSH1 0x0 PUSH2 0x22BE DUP3 PUSH2 0x174D JUMP JUMPDEST SWAP2 POP PUSH2 0x22C9 DUP4 PUSH2 0x174D JUMP JUMPDEST SWAP3 POP DUP3 DUP3 MUL PUSH2 0x22D7 DUP2 PUSH2 0x174D JUMP JUMPDEST SWAP2 POP DUP3 DUP3 DIV DUP5 EQ DUP4 ISZERO OR PUSH2 0x22EE JUMPI PUSH2 0x22ED PUSH2 0x2284 JUMP JUMPDEST JUMPDEST POP SWAP3 SWAP2 POP POP JUMP JUMPDEST PUSH1 0x0 PUSH2 0x2300 DUP3 PUSH2 0x174D JUMP JUMPDEST SWAP2 POP PUSH2 0x230B DUP4 PUSH2 0x174D JUMP JUMPDEST SWAP3 POP DUP3 DUP3 ADD SWAP1 POP DUP1 DUP3 GT ISZERO PUSH2 0x2323 JUMPI PUSH2 0x2322 PUSH2 0x2284 JUMP JUMPDEST JUMPDEST SWAP3 SWAP2 POP POP JUMP JUMPDEST PUSH1 0x0 DUP2 MLOAD SWAP1 POP PUSH2 0x2338 DUP2 PUSH2 0x166C JUMP JUMPDEST SWAP3 SWAP2 POP POP JUMP JUMPDEST PUSH1 0x0 PUSH1 0x20 DUP3 DUP5 SUB SLT ISZERO PUSH2 0x2354 JUMPI PUSH2 0x2353 PUSH2 0x127B JUMP JUMPDEST JUMPDEST PUSH1 0x0 PUSH2 0x2362 DUP5 DUP3 DUP6 ADD PUSH2 0x2329 JUMP JUMPDEST SWAP2 POP POP SWAP3 SWAP2 POP POP JUMP JUMPDEST PUSH32 0x4E487B7100000000000000000000000000000000000000000000000000000000 PUSH1 0x0 MSTORE PUSH1 0x32 PUSH1 0x4 MSTORE PUSH1 0x24 PUSH1 0x0 REVERT JUMPDEST PUSH1 0x0 DUP2 MLOAD SWAP1 POP SWAP2 SWAP1 POP JUMP JUMPDEST PUSH1 0x0 DUP3 DUP3 MSTORE PUSH1 0x20 DUP3 ADD SWAP1 POP SWAP3 SWAP2 POP POP JUMP JUMPDEST PUSH1 0x0 DUP2 SWAP1 POP PUSH1 0x20 DUP3 ADD SWAP1 POP SWAP2 SWAP1 POP JUMP JUMPDEST PUSH2 0x23CF DUP2 PUSH2 0x165A JUMP JUMPDEST DUP3 MSTORE POP POP JUMP JUMPDEST PUSH1 0x0 PUSH2 0x23E1 DUP4 DUP4 PUSH2 0x23C6 JUMP JUMPDEST PUSH1 0x20 DUP4 ADD SWAP1 POP SWAP3 SWAP2 POP POP JUMP JUMPDEST PUSH1 0x0 PUSH1 0x20 DUP3 ADD SWAP1 POP SWAP2 SWAP1 POP JUMP JUMPDEST PUSH1 0x0 PUSH2 0x2405 DUP3 PUSH2 0x239A JUMP JUMPDEST PUSH2 0x240F DUP2 DUP6 PUSH2 0x23A5 JUMP JUMPDEST SWAP4 POP PUSH2 0x241A DUP4 PUSH2 0x23B6 JUMP JUMPDEST DUP1 PUSH1 0x0 JUMPDEST DUP4 DUP2 LT ISZERO PUSH2 0x244B JUMPI DUP2 MLOAD PUSH2 0x2432 DUP9 DUP3 PUSH2 0x23D5 JUMP JUMPDEST SWAP8 POP PUSH2 0x243D DUP4 PUSH2 0x23ED JUMP JUMPDEST SWAP3 POP POP PUSH1 0x1 DUP2 ADD SWAP1 POP PUSH2 0x241E JUMP JUMPDEST POP DUP6 SWAP4 POP POP POP POP SWAP3 SWAP2 POP POP JUMP JUMPDEST PUSH1 0x0 PUSH1 0x40 DUP3 ADD SWAP1 POP PUSH2 0x246D PUSH1 0x0 DUP4 ADD DUP6 PUSH2 0x18C0 JUMP JUMPDEST DUP2 DUP2 SUB PUSH1 0x20 DUP4 ADD MSTORE PUSH2 0x247F DUP2 DUP5 PUSH2 0x23FA JUMP JUMPDEST SWAP1 POP SWAP4 SWAP3 POP POP POP JUMP JUMPDEST PUSH1 0x0 PUSH8 0xFFFFFFFFFFFFFFFF DUP3 GT ISZERO PUSH2 0x24A3 JUMPI PUSH2 0x24A2 PUSH2 0x129B JUMP JUMPDEST JUMPDEST PUSH1 0x20 DUP3 MUL SWAP1 POP PUSH1 0x20 DUP2 ADD SWAP1 POP SWAP2 SWAP1 POP JUMP JUMPDEST PUSH1 0x0 PUSH2 0x24C7 PUSH2 0x24C2 DUP5 PUSH2 0x2488 JUMP JUMPDEST PUSH2 0x12FB JUMP JUMPDEST SWAP1 POP DUP1 DUP4 DUP3 MSTORE PUSH1 0x20 DUP3 ADD SWAP1 POP PUSH1 0x20 DUP5 MUL DUP4 ADD DUP6 DUP2 GT ISZERO PUSH2 0x24EA JUMPI PUSH2 0x24E9 PUSH2 0x1916 JUMP JUMPDEST JUMPDEST DUP4 JUMPDEST DUP2 DUP2 LT ISZERO PUSH2 0x2513 JUMPI DUP1 PUSH2 0x24FF DUP9 DUP3 PUSH2 0x2242 JUMP JUMPDEST DUP5 MSTORE PUSH1 0x20 DUP5 ADD SWAP4 POP POP PUSH1 0x20 DUP2 ADD SWAP1 POP PUSH2 0x24EC JUMP JUMPDEST POP POP POP SWAP4 SWAP3 POP POP POP JUMP JUMPDEST PUSH1 0x0 DUP3 PUSH1 0x1F DUP4 ADD SLT PUSH2 0x2532 JUMPI PUSH2 0x2531 PUSH2 0x131B JUMP JUMPDEST JUMPDEST DUP2 MLOAD PUSH2 0x2542 DUP5 DUP3 PUSH1 0x20 DUP7 ADD PUSH2 0x24B4 JUMP JUMPDEST SWAP2 POP POP SWAP3 SWAP2 POP POP JUMP JUMPDEST PUSH1 0x0 PUSH1 0x20 DUP3 DUP5 SUB SLT ISZERO PUSH2 0x2561 JUMPI PUSH2 0x2560 PUSH2 0x127B JUMP JUMPDEST JUMPDEST PUSH1 0x0 DUP3 ADD MLOAD PUSH8 0xFFFFFFFFFFFFFFFF DUP2 GT ISZERO PUSH2 0x257F JUMPI PUSH2 0x257E PUSH2 0x1280 JUMP JUMPDEST JUMPDEST PUSH2 0x258B DUP5 DUP3 DUP6 ADD PUSH2 0x251D JUMP JUMPDEST SWAP2 POP POP SWAP3 SWAP2 POP POP JUMP JUMPDEST PUSH1 0x0 PUSH2 0x25A7 PUSH2 0x25A2 DUP5 PUSH2 0x1325 JUMP JUMPDEST PUSH2 0x12FB JUMP JUMPDEST SWAP1 POP DUP3 DUP2 MSTORE PUSH1 0x20 DUP2 ADD DUP5 DUP5 DUP5 ADD GT ISZERO PUSH2 0x25C3 JUMPI PUSH2 0x25C2 PUSH2 0x1320 JUMP JUMPDEST JUMPDEST PUSH2 0x25CE DUP5 DUP3 DUP6 PUSH2 0x21BD JUMP JUMPDEST POP SWAP4 SWAP3 POP POP POP JUMP JUMPDEST PUSH1 0x0 DUP3 PUSH1 0x1F DUP4 ADD SLT PUSH2 0x25EB JUMPI PUSH2 0x25EA PUSH2 0x131B JUMP JUMPDEST JUMPDEST DUP2 MLOAD PUSH2 0x25FB DUP5 DUP3 PUSH1 0x20 DUP7 ADD PUSH2 0x2594 JUMP JUMPDEST SWAP2 POP POP SWAP3 SWAP2 POP POP JUMP JUMPDEST PUSH1 0x0 PUSH1 0x20 DUP3 DUP5 SUB SLT ISZERO PUSH2 0x261A JUMPI PUSH2 0x2619 PUSH2 0x127B JUMP JUMPDEST JUMPDEST PUSH1 0x0 DUP3 ADD MLOAD PUSH8 0xFFFFFFFFFFFFFFFF DUP2 GT ISZERO PUSH2 0x2638 JUMPI PUSH2 0x2637 PUSH2 0x1280 JUMP JUMPDEST JUMPDEST PUSH2 0x2644 DUP5 DUP3 DUP6 ADD PUSH2 0x25D6 JUMP JUMPDEST SWAP2 POP POP SWAP3 SWAP2 POP POP JUMP INVALID LOG2 PUSH5 0x6970667358 0x22 SLT KECCAK256 PUSH5 0x28D16089AE PUSH29 0xC24770D2204409340E5BDE58EF1B030453FF7D874AADBC4ECE64736F6C PUSH4 0x4300081C STOP CALLER "
        },
        "methodIdentifiers": {
          "hasReceived()": "6226f35b",
          "host()": "f437bc59",
          "onAccept(((bytes,bytes,uint64,bytes,bytes,uint64,bytes),address))": "0fee32ce",
          "onGetResponse((((bytes,bytes,uint64,address,uint64,bytes[],uint64,bytes),(bytes,bytes)[]),address))": "44ab20f8",
          "onGetTimeout((bytes,bytes,uint64,address,uint64,bytes[],uint64,bytes))": "d0fff366",
          "onPostRequestTimeout((bytes,bytes,uint64,bytes,bytes,uint64,bytes))": "bc0dd447",
          "onPostResponse((((bytes,bytes,uint64,bytes,bytes,uint64,bytes),bytes,uint64),address))": "b2a01bf5",
          "onPostResponseTimeout(((bytes,bytes,uint64,bytes,bytes,uint64,bytes),bytes,uint64))": "0bc37bab",
          "quote(((bytes,bytes,uint64,bytes,bytes,uint64,bytes),bytes,uint64,uint256,address))": "dd92a316",
          "quote((bytes,bytes,bytes,uint64,uint256,address))": "108bc1dd",
          "quote((bytes,uint64,bytes[],uint64,uint256,bytes))": "bca96c39",
          "quoteNative(((bytes,bytes,uint64,bytes,bytes,uint64,bytes),bytes,uint64,uint256,address))": "632e235a",
          "quoteNative((bytes,bytes,bytes,uint64,uint256,address))": "4f3f7c05",
          "quoteNative((bytes,uint64,bytes[],uint64,uint256,bytes))": "d24740fb"
        }
      }
    }
  }
}