{
  "_format": "hh-sol-artifact-1",
  "contractName": "TreasuryController",
  "sourceName": "contracts/TreasuryController.sol",
  "abi": [
    {
      "inputs": [
        {
          "internalType": "address",
          "name": "ismpHost",
          "type": "address"
        }
      ],
      "stateMutability": "nonpayable",
      "type": "constructor"
    },
    {
      "inputs": [],
      "name": "UnauthorizedCall",
      "type": "error"
    },
    {
      "inputs": [],
      "name": "UnexpectedCall",
      "type": "error"
    },
    {
      "anonymous": false,
      "inputs": [],
      "name": "PostReceived",
      "type": "event"
    },
    {
      "inputs": [],
      "name": "hasReceived",
      "outputs": [
        {
          "internalType": "bool",
          "name": "",
          "type": "bool"
        }
      ],
      "stateMutability": "view",
      "type": "function"
    },
    {
      "inputs": [],
      "name": "host",
      "outputs": [
        {
          "internalType": "address",
          "name": "",
          "type": "address"
        }
      ],
      "stateMutability": "view",
      "type": "function"
    },
    {
      "inputs": [
        {
          "components": [
            {
              "components": [
                {
                  "internalType": "bytes",
                  "name": "source",
                  "type": "bytes"
                },
                {
                  "internalType": "bytes",
                  "name": "dest",
                  "type": "bytes"
                },
                {
                  "internalType": "uint64",
                  "name": "nonce",
                  "type": "uint64"
                },
                {
                  "internalType": "bytes",
                  "name": "from",
                  "type": "bytes"
                },
                {
                  "internalType": "bytes",
                  "name": "to",
                  "type": "bytes"
                },
                {
                  "internalType": "uint64",
                  "name": "timeoutTimestamp",
                  "type": "uint64"
                },
                {
                  "internalType": "bytes",
                  "name": "body",
                  "type": "bytes"
                }
              ],
              "internalType": "struct PostRequest",
              "name": "request",
              "type": "tuple"
            },
            {
              "internalType": "address",
              "name": "relayer",
              "type": "address"
            }
          ],
          "internalType": "struct IncomingPostRequest",
          "name": "incoming",
          "type": "tuple"
        }
      ],
      "name": "onAccept",
      "outputs": [],
      "stateMutability": "nonpayable",
      "type": "function"
    },
    {
      "inputs": [
        {
          "components": [
            {
              "components": [
                {
                  "components": [
                    {
                      "internalType": "bytes",
                      "name": "source",
                      "type": "bytes"
                    },
                    {
                      "internalType": "bytes",
                      "name": "dest",
                      "type": "bytes"
                    },
                    {
                      "internalType": "uint64",
                      "name": "nonce",
                      "type": "uint64"
                    },
                    {
                      "internalType": "address",
                      "name": "from",
                      "type": "address"
                    },
                    {
                      "internalType": "uint64",
                      "name": "timeoutTimestamp",
                      "type": "uint64"
                    },
                    {
                      "internalType": "bytes[]",
                      "name": "keys",
                      "type": "bytes[]"
                    },
                    {
                      "internalType": "uint64",
                      "name": "height",
                      "type": "uint64"
                    },
                    {
                      "internalType": "bytes",
                      "name": "context",
                      "type": "bytes"
                    }
                  ],
                  "internalType": "struct GetRequest",
                  "name": "request",
                  "type": "tuple"
                },
                {
                  "components": [
                    {
                      "internalType": "bytes",
                      "name": "key",
                      "type": "bytes"
                    },
                    {
                      "internalType": "bytes",
                      "name": "value",
                      "type": "bytes"
                    }
                  ],
                  "internalType": "struct StorageValue[]",
                  "name": "values",
                  "type": "tuple[]"
                }
              ],
              "internalType": "struct GetResponse",
              "name": "response",
              "type": "tuple"
            },
            {
              "internalType": "address",
              "name": "relayer",
              "type": "address"
            }
          ],
          "internalType": "struct IncomingGetResponse",
          "name": "",
          "type": "tuple"
        }
      ],
      "name": "onGetResponse",
      "outputs": [],
      "stateMutability": "nonpayable",
      "type": "function"
    },
    {
      "inputs": [
        {
          "components": [
            {
              "internalType": "bytes",
              "name": "source",
              "type": "bytes"
            },
            {
              "internalType": "bytes",
              "name": "dest",
              "type": "bytes"
            },
            {
              "internalType": "uint64",
              "name": "nonce",
              "type": "uint64"
            },
            {
              "internalType": "address",
              "name": "from",
              "type": "address"
            },
            {
              "internalType": "uint64",
              "name": "timeoutTimestamp",
              "type": "uint64"
            },
            {
              "internalType": "bytes[]",
              "name": "keys",
              "type": "bytes[]"
            },
            {
              "internalType": "uint64",
              "name": "height",
              "type": "uint64"
            },
            {
              "internalType": "bytes",
              "name": "context",
              "type": "bytes"
            }
          ],
          "internalType": "struct GetRequest",
          "name": "",
          "type": "tuple"
        }
      ],
      "name": "onGetTimeout",
      "outputs": [],
      "stateMutability": "nonpayable",
      "type": "function"
    },
    {
      "inputs": [
        {
          "components": [
            {
              "internalType": "bytes",
              "name": "source",
              "type": "bytes"
            },
            {
              "internalType": "bytes",
              "name": "dest",
              "type": "bytes"
            },
            {
              "internalType": "uint64",
              "name": "nonce",
              "type": "uint64"
            },
            {
              "internalType": "bytes",
              "name": "from",
              "type": "bytes"
            },
            {
              "internalType": "bytes",
              "name": "to",
              "type": "bytes"
            },
            {
              "internalType": "uint64",
              "name": "timeoutTimestamp",
              "type": "uint64"
            },
            {
              "internalType": "bytes",
              "name": "body",
              "type": "bytes"
            }
          ],
          "internalType": "struct PostRequest",
          "name": "",
          "type": "tuple"
        }
      ],
      "name": "onPostRequestTimeout",
      "outputs": [],
      "stateMutability": "nonpayable",
      "type": "function"
    },
    {
      "inputs": [
        {
          "components": [
            {
              "components": [
                {
                  "components": [
                    {
                      "internalType": "bytes",
                      "name": "source",
                      "type": "bytes"
                    },
                    {
                      "internalType": "bytes",
                      "name": "dest",
                      "type": "bytes"
                    },
                    {
                      "internalType": "uint64",
                      "name": "nonce",
                      "type": "uint64"
                    },
                    {
                      "internalType": "bytes",
                      "name": "from",
                      "type": "bytes"
                    },
                    {
                      "internalType": "bytes",
                      "name": "to",
                      "type": "bytes"
                    },
                    {
                      "internalType": "uint64",
                      "name": "timeoutTimestamp",
                      "type": "uint64"
                    },
                    {
                      "internalType": "bytes",
                      "name": "body",
                      "type": "bytes"
                    }
                  ],
                  "internalType": "struct PostRequest",
                  "name": "request",
                  "type": "tuple"
                },
                {
                  "internalType": "bytes",
                  "name": "response",
                  "type": "bytes"
                },
                {
                  "internalType": "uint64",
                  "name": "timeoutTimestamp",
                  "type": "uint64"
                }
              ],
              "internalType": "struct PostResponse",
              "name": "response",
              "type": "tuple"
            },
            {
              "internalType": "address",
              "name": "relayer",
              "type": "address"
            }
          ],
          "internalType": "struct IncomingPostResponse",
          "name": "",
          "type": "tuple"
        }
      ],
      "name": "onPostResponse",
      "outputs": [],
      "stateMutability": "nonpayable",
      "type": "function"
    },
    {
      "inputs": [
        {
          "components": [
            {
              "components": [
                {
                  "internalType": "bytes",
                  "name": "source",
                  "type": "bytes"
                },
                {
                  "internalType": "bytes",
                  "name": "dest",
                  "type": "bytes"
                },
                {
                  "internalType": "uint64",
                  "name": "nonce",
                  "type": "uint64"
                },
                {
                  "internalType": "bytes",
                  "name": "from",
                  "type": "bytes"
                },
                {
                  "internalType": "bytes",
                  "name": "to",
                  "type": "bytes"
                },
                {
                  "internalType": "uint64",
                  "name": "timeoutTimestamp",
                  "type": "uint64"
                },
                {
                  "internalType": "bytes",
                  "name": "body",
                  "type": "bytes"
                }
              ],
              "internalType": "struct PostRequest",
              "name": "request",
              "type": "tuple"
            },
            {
              "internalType": "bytes",
              "name": "response",
              "type": "bytes"
            },
            {
              "internalType": "uint64",
              "name": "timeoutTimestamp",
              "type": "uint64"
            }
          ],
          "internalType": "struct PostResponse",
          "name": "",
          "type": "tuple"
        }
      ],
      "name": "onPostResponseTimeout",
      "outputs": [],
      "stateMutability": "nonpayable",
      "type": "function"
    },
    {
      "inputs": [
        {
          "components": [
            {
              "internalType": "bytes",
              "name": "dest",
              "type": "bytes"
            },
            {
              "internalType": "bytes",
              "name": "to",
              "type": "bytes"
            },
            {
              "internalType": "bytes",
              "name": "body",
              "type": "bytes"
            },
            {
              "internalType": "uint64",
              "name": "timeout",
              "type": "uint64"
            },
            {
              "internalType": "uint256",
              "name": "fee",
              "type": "uint256"
            },
            {
              "internalType": "address",
              "name": "payer",
              "type": "address"
            }
          ],
          "internalType": "struct DispatchPost",
          "name": "request",
          "type": "tuple"
        }
      ],
      "name": "quote",
      "outputs": [
        {
          "internalType": "uint256",
          "name": "",
          "type": "uint256"
        }
      ],
      "stateMutability": "view",
      "type": "function"
    },
    {
      "inputs": [
        {
          "components": [
            {
              "internalType": "bytes",
              "name": "dest",
              "type": "bytes"
            },
            {
              "internalType": "uint64",
              "name": "height",
              "type": "uint64"
            },
            {
              "internalType": "bytes[]",
              "name": "keys",
              "type": "bytes[]"
            },
            {
              "internalType": "uint64",
              "name": "timeout",
              "type": "uint64"
            },
            {
              "internalType": "uint256",
              "name": "fee",
              "type": "uint256"
            },
            {
              "internalType": "bytes",
              "name": "context",
              "type": "bytes"
            }
          ],
          "internalType": "struct DispatchGet",
          "name": "request",
          "type": "tuple"
        }
      ],
      "name": "quote",
      "outputs": [
        {
          "internalType": "uint256",
          "name": "",
          "type": "uint256"
        }
      ],
      "stateMutability": "view",
      "type": "function"
    },
    {
      "inputs": [
        {
          "components": [
            {
              "components": [
                {
                  "internalType": "bytes",
                  "name": "source",
                  "type": "bytes"
                },
                {
                  "internalType": "bytes",
                  "name": "dest",
                  "type": "bytes"
                },
                {
                  "internalType": "uint64",
                  "name": "nonce",
                  "type": "uint64"
                },
                {
                  "internalType": "bytes",
                  "name": "from",
                  "type": "bytes"
                },
                {
                  "internalType": "bytes",
                  "name": "to",
                  "type": "bytes"
                },
                {
                  "internalType": "uint64",
                  "name": "timeoutTimestamp",
                  "type": "uint64"
                },
                {
                  "internalType": "bytes",
                  "name": "body",
                  "type": "bytes"
                }
              ],
              "internalType": "struct PostRequest",
              "name": "request",
              "type": "tuple"
            },
            {
              "internalType": "bytes",
              "name": "response",
              "type": "bytes"
            },
            {
              "internalType": "uint64",
              "name": "timeout",
              "type": "uint64"
            },
            {
              "internalType": "uint256",
              "name": "fee",
              "type": "uint256"
            },
            {
              "internalType": "address",
              "name": "payer",
              "type": "address"
            }
          ],
          "internalType": "struct DispatchPostResponse",
          "name": "response",
          "type": "tuple"
        }
      ],
      "name": "quote",
      "outputs": [
        {
          "internalType": "uint256",
          "name": "",
          "type": "uint256"
        }
      ],
      "stateMutability": "view",
      "type": "function"
    },
    {
      "inputs": [
        {
          "components": [
            {
              "internalType": "bytes",
              "name": "dest",
              "type": "bytes"
            },
            {
              "internalType": "bytes",
              "name": "to",
              "type": "bytes"
            },
            {
              "internalType": "bytes",
              "name": "body",
              "type": "bytes"
            },
            {
              "internalType": "uint64",
              "name": "timeout",
              "type": "uint64"
            },
            {
              "internalType": "uint256",
              "name": "fee",
              "type": "uint256"
            },
            {
              "internalType": "address",
              "name": "payer",
              "type": "address"
            }
          ],
          "internalType": "struct DispatchPost",
          "name": "request",
          "type": "tuple"
        }
      ],
      "name": "quoteNative",
      "outputs": [
        {
          "internalType": "uint256",
          "name": "",
          "type": "uint256"
        }
      ],
      "stateMutability": "view",
      "type": "function"
    },
    {
      "inputs": [
        {
          "components": [
            {
              "components": [
                {
                  "internalType": "bytes",
                  "name": "source",
                  "type": "bytes"
                },
                {
                  "internalType": "bytes",
                  "name": "dest",
                  "type": "bytes"
                },
                {
                  "internalType": "uint64",
                  "name": "nonce",
                  "type": "uint64"
                },
                {
                  "internalType": "bytes",
                  "name": "from",
                  "type": "bytes"
                },
                {
                  "internalType": "bytes",
                  "name": "to",
                  "type": "bytes"
                },
                {
                  "internalType": "uint64",
                  "name": "timeoutTimestamp",
                  "type": "uint64"
                },
                {
                  "internalType": "bytes",
                  "name": "body",
                  "type": "bytes"
                }
              ],
              "internalType": "struct PostRequest",
              "name": "request",
              "type": "tuple"
            },
            {
              "internalType": "bytes",
              "name": "response",
              "type": "bytes"
            },
            {
              "internalType": "uint64",
              "name": "timeout",
              "type": "uint64"
            },
            {
              "internalType": "uint256",
              "name": "fee",
              "type": "uint256"
            },
            {
              "internalType": "address",
              "name": "payer",
              "type": "address"
            }
          ],
          "internalType": "struct DispatchPostResponse",
          "name": "request",
          "type": "tuple"
        }
      ],
      "name": "quoteNative",
      "outputs": [
        {
          "internalType": "uint256",
          "name": "",
          "type": "uint256"
        }
      ],
      "stateMutability": "view",
      "type": "function"
    },
    {
      "inputs": [
        {
          "components": [
            {
              "internalType": "bytes",
              "name": "dest",
              "type": "bytes"
            },
            {
              "internalType": "uint64",
              "name": "height",
              "type": "uint64"
            },
            {
              "internalType": "bytes[]",
              "name": "keys",
              "type": "bytes[]"
            },
            {
              "internalType": "uint64",
              "name": "timeout",
              "type": "uint64"
            },
            {
              "internalType": "uint256",
              "name": "fee",
              "type": "uint256"
            },
            {
              "internalType": "bytes",
              "name": "context",
              "type": "bytes"
            }
          ],
          "internalType": "struct DispatchGet",
          "name": "request",
          "type": "tuple"
        }
      ],
      "name": "quoteNative",
      "outputs": [
        {
          "internalType": "uint256",
          "name": "",
          "type": "uint256"
        }
      ],
      "stateMutability": "view",
      "type": "function"
    }
  ],
  "bytecode": "0x608060405234801561001057600080fd5b506040516129e83803806129e883398181016040528101906100329190610273565b60006100426101e760201b60201c565b9050600073ffffffffffffffffffffffffffffffffffffffff168173ffffffffffffffffffffffffffffffffffffffff1614610186578073ffffffffffffffffffffffffffffffffffffffff1663647846a56040518163ffffffff1660e01b8152600401602060405180830381865afa1580156100c3573d6000803e3d6000fd5b505050506040513d601f19601f820116820180604052508101906100e79190610273565b73ffffffffffffffffffffffffffffffffffffffff1663095ea7b3827fffffffffffffffffffffffffffffffffffffffffffffffffffffffffffffffff6040518363ffffffff1660e01b81526004016101419291906102c8565b6020604051808303816000875af1158015610160573d6000803e3d6000fd5b505050506040513d601f19601f820116820180604052508101906101849190610329565b505b50806000806101000a81548173ffffffffffffffffffffffffffffffffffffffff021916908373ffffffffffffffffffffffffffffffffffffffff16021790555060008060146101000a81548160ff02191690831515021790555050610356565b60008060009054906101000a900473ffffffffffffffffffffffffffffffffffffffff16905090565b600080fd5b600073ffffffffffffffffffffffffffffffffffffffff82169050919050565b600061024082610215565b9050919050565b61025081610235565b811461025b57600080fd5b50565b60008151905061026d81610247565b92915050565b60006020828403121561028957610288610210565b5b60006102978482850161025e565b91505092915050565b6102a981610235565b82525050565b6000819050919050565b6102c2816102af565b82525050565b60006040820190506102dd60008301856102a0565b6102ea60208301846102b9565b9392505050565b60008115159050919050565b610306816102f1565b811461031157600080fd5b50565b600081519050610323816102fd565b92915050565b60006020828403121561033f5761033e610210565b5b600061034d84828501610314565b91505092915050565b612683806103656000396000f3fe608060405234801561001057600080fd5b50600436106100ea5760003560e01c8063b2a01bf51161008c578063d0fff36611610066578063d0fff36614610259578063d24740fb14610275578063dd92a316146102a5578063f437bc59146102d5576100ea565b8063b2a01bf5146101f1578063bc0dd4471461020d578063bca96c3914610229576100ea565b806344ab20f8116100c857806344ab20f8146101575780634f3f7c05146101735780636226f35b146101a3578063632e235a146101c1576100ea565b80630bc37bab146100ef5780630fee32ce1461010b578063108bc1dd14610127575b600080fd5b610109600480360381019061010491906115f1565b6102f3565b005b61012560048036038101906101209190611704565b610391565b005b610141600480360381019061013c9190611877565b6103ea565b60405161014e91906118cf565b60405180910390f35b610171600480360381019061016c9190611d67565b6104b1565b005b61018d60048036038101906101889190611877565b61054f565b60405161019a91906118cf565b60405180910390f35b6101ab61084b565b6040516101b89190611dcb565b60405180910390f35b6101db60048036038101906101d69190611eaa565b61085e565b6040516101e891906118cf565b60405180910390f35b61020b60048036038101906102069190611f5f565b610b5a565b005b61022760048036038101906102229190611fa8565b610bf8565b005b610243600480360381019061023e91906120e5565b610c96565b60405161025091906118cf565b60405180910390f35b610273600480360381019061026e919061212e565b610de3565b005b61028f600480360381019061028a91906120e5565b610e81565b60405161029c91906118cf565b60405180910390f35b6102bf60048036038101906102ba9190611eaa565b61117d565b6040516102cc91906118cf565b60405180910390f35b6102dd611248565b6040516102ea9190612186565b60405180910390f35b6102fb611248565b73ffffffffffffffffffffffffffffffffffffffff163373ffffffffffffffffffffffffffffffffffffffff161461035f576040517f7bf6a16f00000000000000000000000000000000000000000000000000000000815260040160405180910390fd5b6040517f02cbc79f00000000000000000000000000000000000000000000000000000000815260040160405180910390fd5b600060149054906101000a900460ff1615600060146101000a81548160ff0219169083151502179055507f3f6713315d7f9841ba940706c6e1ed40a3690f6afb95503515d18a3e21a12a2f60405160405180910390a150565b60008082604001515160201161040557826040015151610408565b60205b9050610412611248565b73ffffffffffffffffffffffffffffffffffffffff16634011ec0a84600001516040518263ffffffff1660e01b815260040161044e9190612220565b602060405180830381865afa15801561046b573d6000803e3d6000fd5b505050506040513d601f19601f8201168201806040525081019061048f9190612257565b8161049a91906122b3565b83608001516104a991906122f5565b915050919050565b6104b9611248565b73ffffffffffffffffffffffffffffffffffffffff163373ffffffffffffffffffffffffffffffffffffffff161461051d576040517f7bf6a16f00000000000000000000000000000000000000000000000000000000815260040160405180910390fd5b6040517f02cbc79f00000000000000000000000000000000000000000000000000000000815260040160405180910390fd5b60008061055b836103ea565b90506000610567611248565b905060008173ffffffffffffffffffffffffffffffffffffffff16631694505e6040518163ffffffff1660e01b8152600401602060405180830381865afa1580156105b6573d6000803e3d6000fd5b505050506040513d601f19601f820116820180604052508101906105da919061233e565b90506000600267ffffffffffffffff8111156105f9576105f861129b565b5b6040519080825280602002602001820160405280156106275781602001602082028036833780820191505090505b5090508173ffffffffffffffffffffffffffffffffffffffff1663ad5c46486040518163ffffffff1660e01b8152600401602060405180830381865afa158015610675573d6000803e3d6000fd5b505050506040513d601f19601f82011682018060405250810190610699919061233e565b816000815181106106ad576106ac61236b565b5b602002602001019073ffffffffffffffffffffffffffffffffffffffff16908173ffffffffffffffffffffffffffffffffffffffff16815250508273ffffffffffffffffffffffffffffffffffffffff1663647846a56040518163ffffffff1660e01b8152600401602060405180830381865afa158015610732573d6000803e3d6000fd5b505050506040513d601f19601f82011682018060405250810190610756919061233e565b8160018151811061076a5761076961236b565b5b602002602001019073ffffffffffffffffffffffffffffffffffffffff16908173ffffffffffffffffffffffffffffffffffffffff16815250508173ffffffffffffffffffffffffffffffffffffffff16631f00ca7485836040518363ffffffff1660e01b81526004016107df929190612458565b600060405180830381865afa1580156107fc573d6000803e3d6000fd5b505050506040513d6000823e3d601f19601f82011682018060405250810190610825919061254b565b6000815181106108385761083761236b565b5b6020026020010151945050505050919050565b600060149054906101000a900460ff1681565b60008061086a8361117d565b90506000610876611248565b905060008173ffffffffffffffffffffffffffffffffffffffff16631694505e6040518163ffffffff1660e01b8152600401602060405180830381865afa1580156108c5573d6000803e3d6000fd5b505050506040513d601f19601f820116820180604052508101906108e9919061233e565b90506000600267ffffffffffffffff8111156109085761090761129b565b5b6040519080825280602002602001820160405280156109365781602001602082028036833780820191505090505b5090508173ffffffffffffffffffffffffffffffffffffffff1663ad5c46486040518163ffffffff1660e01b8152600401602060405180830381865afa158015610984573d6000803e3d6000fd5b505050506040513d601f19601f820116820180604052508101906109a8919061233e565b816000815181106109bc576109bb61236b565b5b602002602001019073ffffffffffffffffffffffffffffffffffffffff16908173ffffffffffffffffffffffffffffffffffffffff16815250508273ffffffffffffffffffffffffffffffffffffffff1663647846a56040518163ffffffff1660e01b8152600401602060405180830381865afa158015610a41573d6000803e3d6000fd5b505050506040513d601f19601f82011682018060405250810190610a65919061233e565b81600181518110610a7957610a7861236b565b5b602002602001019073ffffffffffffffffffffffffffffffffffffffff16908173ffffffffffffffffffffffffffffffffffffffff16815250508173ffffffffffffffffffffffffffffffffffffffff16631f00ca7485836040518363ffffffff1660e01b8152600401610aee929190612458565b600060405180830381865afa158015610b0b573d6000803e3d6000fd5b505050506040513d6000823e3d601f19601f82011682018060405250810190610b34919061254b565b600081518110610b4757610b4661236b565b5b6020026020010151945050505050919050565b610b62611248565b73ffffffffffffffffffffffffffffffffffffffff163373ffffffffffffffffffffffffffffffffffffffff1614610bc6576040517f7bf6a16f00000000000000000000000000000000000000000000000000000000815260040160405180910390fd5b6040517f02cbc79f00000000000000000000000000000000000000000000000000000000815260040160405180910390fd5b610c00611248565b73ffffffffffffffffffffffffffffffffffffffff163373ffffffffffffffffffffffffffffffffffffffff1614610c64576040517f7bf6a16f00000000000000000000000000000000000000000000000000000000815260040160405180910390fd5b6040517f02cbc79f00000000000000000000000000000000000000000000000000000000815260040160405180910390fd5b600080610ca1611248565b905060008173ffffffffffffffffffffffffffffffffffffffff16634011ec0a8373ffffffffffffffffffffffffffffffffffffffff1663f437bc596040518163ffffffff1660e01b8152600401600060405180830381865afa158015610d0c573d6000803e3d6000fd5b505050506040513d6000823e3d601f19601f82011682018060405250810190610d359190612604565b6040518263ffffffff1660e01b8152600401610d519190612220565b602060405180830381865afa158015610d6e573d6000803e3d6000fd5b505050506040513d601f19601f82011682018060405250810190610d929190612257565b90506000816020610da391906122b3565b905060008560a001515183610db891906122b3565b8660800151610dc791906122f5565b9050808211610dd65780610dd8565b815b945050505050919050565b610deb611248565b73ffffffffffffffffffffffffffffffffffffffff163373ffffffffffffffffffffffffffffffffffffffff1614610e4f576040517f7bf6a16f00000000000000000000000000000000000000000000000000000000815260040160405180910390fd5b6040517f02cbc79f00000000000000000000000000000000000000000000000000000000815260040160405180910390fd5b600080610e8d83610c96565b90506000610e99611248565b905060008173ffffffffffffffffffffffffffffffffffffffff16631694505e6040518163ffffffff1660e01b8152600401602060405180830381865afa158015610ee8573d6000803e3d6000fd5b505050506040513d601f19601f82011682018060405250810190610f0c919061233e565b90506000600267ffffffffffffffff811115610f2b57610f2a61129b565b5b604051908082528060200260200182016040528015610f595781602001602082028036833780820191505090505b5090508173ffffffffffffffffffffffffffffffffffffffff1663ad5c46486040518163ffffffff1660e01b8152600401602060405180830381865afa158015610fa7573d6000803e3d6000fd5b505050506040513d601f19601f82011682018060405250810190610fcb919061233e565b81600081518110610fdf57610fde61236b565b5b602002602001019073ffffffffffffffffffffffffffffffffffffffff16908173ffffffffffffffffffffffffffffffffffffffff16815250508273ffffffffffffffffffffffffffffffffffffffff1663647846a56040518163ffffffff1660e01b8152600401602060405180830381865afa158015611064573d6000803e3d6000fd5b505050506040513d601f19601f82011682018060405250810190611088919061233e565b8160018151811061109c5761109b61236b565b5b602002602001019073ffffffffffffffffffffffffffffffffffffffff16908173ffffffffffffffffffffffffffffffffffffffff16815250508173ffffffffffffffffffffffffffffffffffffffff16631f00ca7485836040518363ffffffff1660e01b8152600401611111929190612458565b600060405180830381865afa15801561112e573d6000803e3d6000fd5b505050506040513d6000823e3d601f19601f82011682018060405250810190611157919061254b565b60008151811061116a5761116961236b565b5b6020026020010151945050505050919050565b6000808260200151516020116111985782602001515161119b565b60205b90506111a5611248565b73ffffffffffffffffffffffffffffffffffffffff16634011ec0a8460000151600001516040518263ffffffff1660e01b81526004016111e59190612220565b602060405180830381865afa158015611202573d6000803e3d6000fd5b505050506040513d601f19601f820116820180604052508101906112269190612257565b8161123191906122b3565b836060015161124091906122f5565b915050919050565b60008060009054906101000a900473ffffffffffffffffffffffffffffffffffffffff16905090565b6000604051905090565b600080fd5b600080fd5b600080fd5b6000601f19601f8301169050919050565b7f4e487b7100000000000000000000000000000000000000000000000000000000600052604160045260246000fd5b6112d38261128a565b810181811067ffffffffffffffff821117156112f2576112f161129b565b5b80604052505050565b6000611305611271565b905061131182826112ca565b919050565b600080fd5b600080fd5b600080fd5b600067ffffffffffffffff8211156113405761133f61129b565b5b6113498261128a565b9050602081019050919050565b82818337600083830152505050565b600061137861137384611325565b6112fb565b90508281526020810184848401111561139457611393611320565b5b61139f848285611356565b509392505050565b600082601f8301126113bc576113bb61131b565b5b81356113cc848260208601611365565b91505092915050565b600067ffffffffffffffff82169050919050565b6113f2816113d5565b81146113fd57600080fd5b50565b60008135905061140f816113e9565b92915050565b600060e0828403121561142b5761142a611285565b5b61143560e06112fb565b9050600082013567ffffffffffffffff81111561145557611454611316565b5b611461848285016113a7565b600083015250602082013567ffffffffffffffff81111561148557611484611316565b5b611491848285016113a7565b60208301525060406114a584828501611400565b604083015250606082013567ffffffffffffffff8111156114c9576114c8611316565b5b6114d5848285016113a7565b606083015250608082013567ffffffffffffffff8111156114f9576114f8611316565b5b611505848285016113a7565b60808301525060a061151984828501611400565b60a08301525060c082013567ffffffffffffffff81111561153d5761153c611316565b5b611549848285016113a7565b60c08301525092915050565b60006060828403121561156b5761156a611285565b5b61157560606112fb565b9050600082013567ffffffffffffffff81111561159557611594611316565b5b6115a184828501611415565b600083015250602082013567ffffffffffffffff8111156115c5576115c4611316565b5b6115d1848285016113a7565b60208301525060406115e584828501611400565b60408301525092915050565b6000602082840312156116075761160661127b565b5b600082013567ffffffffffffffff81111561162557611624611280565b5b61163184828501611555565b91505092915050565b600073ffffffffffffffffffffffffffffffffffffffff82169050919050565b60006116658261163a565b9050919050565b6116758161165a565b811461168057600080fd5b50565b6000813590506116928161166c565b92915050565b6000604082840312156116ae576116ad611285565b5b6116b860406112fb565b9050600082013567ffffffffffffffff8111156116d8576116d7611316565b5b6116e484828501611415565b60008301525060206116f884828501611683565b60208301525092915050565b60006020828403121561171a5761171961127b565b5b600082013567ffffffffffffffff81111561173857611737611280565b5b61174484828501611698565b91505092915050565b6000819050919050565b6117608161174d565b811461176b57600080fd5b50565b60008135905061177d81611757565b92915050565b600060c0828403121561179957611798611285565b5b6117a360c06112fb565b9050600082013567ffffffffffffffff8111156117c3576117c2611316565b5b6117cf848285016113a7565b600083015250602082013567ffffffffffffffff8111156117f3576117f2611316565b5b6117ff848285016113a7565b602083015250604082013567ffffffffffffffff81111561182357611822611316565b5b61182f848285016113a7565b604083015250606061184384828501611400565b60608301525060806118578482850161176e565b60808301525060a061186b84828501611683565b60a08301525092915050565b60006020828403121561188d5761188c61127b565b5b600082013567ffffffffffffffff8111156118ab576118aa611280565b5b6118b784828501611783565b91505092915050565b6118c98161174d565b82525050565b60006020820190506118e460008301846118c0565b92915050565b600067ffffffffffffffff8211156119055761190461129b565b5b602082029050602081019050919050565b600080fd5b600061192e611929846118ea565b6112fb565b9050808382526020820190506020840283018581111561195157611950611916565b5b835b8181101561199857803567ffffffffffffffff8111156119765761197561131b565b5b80860161198389826113a7565b85526020850194505050602081019050611953565b5050509392505050565b600082601f8301126119b7576119b661131b565b5b81356119c784826020860161191b565b91505092915050565b600061010082840312156119e7576119e6611285565b5b6119f26101006112fb565b9050600082013567ffffffffffffffff811115611a1257611a11611316565b5b611a1e848285016113a7565b600083015250602082013567ffffffffffffffff811115611a4257611a41611316565b5b611a4e848285016113a7565b6020830152506040611a6284828501611400565b6040830152506060611a7684828501611683565b6060830152506080611a8a84828501611400565b60808301525060a082013567ffffffffffffffff811115611aae57611aad611316565b5b611aba848285016119a2565b60a08301525060c0611ace84828501611400565b60c08301525060e082013567ffffffffffffffff811115611af257611af1611316565b5b611afe848285016113a7565b60e08301525092915050565b600067ffffffffffffffff821115611b2557611b2461129b565b5b602082029050602081019050919050565b600060408284031215611b4c57611b4b611285565b5b611b5660406112fb565b9050600082013567ffffffffffffffff811115611b7657611b75611316565b5b611b82848285016113a7565b600083015250602082013567ffffffffffffffff811115611ba657611ba5611316565b5b611bb2848285016113a7565b60208301525092915050565b6000611bd1611bcc84611b0a565b6112fb565b90508083825260208201905060208402830185811115611bf457611bf3611916565b5b835b81811015611c3b57803567ffffffffffffffff811115611c1957611c1861131b565b5b808601611c268982611b36565b85526020850194505050602081019050611bf6565b5050509392505050565b600082601f830112611c5a57611c5961131b565b5b8135611c6a848260208601611bbe565b91505092915050565b600060408284031215611c8957611c88611285565b5b611c9360406112fb565b9050600082013567ffffffffffffffff811115611cb357611cb2611316565b5b611cbf848285016119d0565b600083015250602082013567ffffffffffffffff811115611ce357611ce2611316565b5b611cef84828501611c45565b60208301525092915050565b600060408284031215611d1157611d10611285565b5b611d1b60406112fb565b9050600082013567ffffffffffffffff811115611d3b57611d3a611316565b5b611d4784828501611c73565b6000830152506020611d5b84828501611683565b60208301525092915050565b600060208284031215611d7d57611d7c61127b565b5b600082013567ffffffffffffffff811115611d9b57611d9a611280565b5b611da784828501611cfb565b91505092915050565b60008115159050919050565b611dc581611db0565b82525050565b6000602082019050611de06000830184611dbc565b92915050565b600060a08284031215611dfc57611dfb611285565b5b611e0660a06112fb565b9050600082013567ffffffffffffffff811115611e2657611e25611316565b5b611e3284828501611415565b600083015250602082013567ffffffffffffffff811115611e5657611e55611316565b5b611e62848285016113a7565b6020830152506040611e7684828501611400565b6040830152506060611e8a8482850161176e565b6060830152506080611e9e84828501611683565b60808301525092915050565b600060208284031215611ec057611ebf61127b565b5b600082013567ffffffffffffffff811115611ede57611edd611280565b5b611eea84828501611de6565b91505092915050565b600060408284031215611f0957611f08611285565b5b611f1360406112fb565b9050600082013567ffffffffffffffff811115611f3357611f32611316565b5b611f3f84828501611555565b6000830152506020611f5384828501611683565b60208301525092915050565b600060208284031215611f7557611f7461127b565b5b600082013567ffffffffffffffff811115611f9357611f92611280565b5b611f9f84828501611ef3565b91505092915050565b600060208284031215611fbe57611fbd61127b565b5b600082013567ffffffffffffffff811115611fdc57611fdb611280565b5b611fe884828501611415565b91505092915050565b600060c0828403121561200757612006611285565b5b61201160c06112fb565b9050600082013567ffffffffffffffff81111561203157612030611316565b5b61203d848285016113a7565b600083015250602061205184828501611400565b602083015250604082013567ffffffffffffffff81111561207557612074611316565b5b612081848285016119a2565b604083015250606061209584828501611400565b60608301525060806120a98482850161176e565b60808301525060a082013567ffffffffffffffff8111156120cd576120cc611316565b5b6120d9848285016113a7565b60a08301525092915050565b6000602082840312156120fb576120fa61127b565b5b600082013567ffffffffffffffff81111561211957612118611280565b5b61212584828501611ff1565b91505092915050565b6000602082840312156121445761214361127b565b5b600082013567ffffffffffffffff81111561216257612161611280565b5b61216e848285016119d0565b91505092915050565b6121808161165a565b82525050565b600060208201905061219b6000830184612177565b92915050565b600081519050919050565b600082825260208201905092915050565b60005b838110156121db5780820151818401526020810190506121c0565b60008484015250505050565b60006121f2826121a1565b6121fc81856121ac565b935061220c8185602086016121bd565b6122158161128a565b840191505092915050565b6000602082019050818103600083015261223a81846121e7565b905092915050565b60008151905061225181611757565b92915050565b60006020828403121561226d5761226c61127b565b5b600061227b84828501612242565b91505092915050565b7f4e487b7100000000000000000000000000000000000000000000000000000000600052601160045260246000fd5b60006122be8261174d565b91506122c98361174d565b92508282026122d78161174d565b915082820484148315176122ee576122ed612284565b5b5092915050565b60006123008261174d565b915061230b8361174d565b925082820190508082111561232357612322612284565b5b92915050565b6000815190506123388161166c565b92915050565b6000602082840312156123545761235361127b565b5b600061236284828501612329565b91505092915050565b7f4e487b7100000000000000000000000000000000000000000000000000000000600052603260045260246000fd5b600081519050919050565b600082825260208201905092915050565b6000819050602082019050919050565b6123cf8161165a565b82525050565b60006123e183836123c6565b60208301905092915050565b6000602082019050919050565b60006124058261239a565b61240f81856123a5565b935061241a836123b6565b8060005b8381101561244b57815161243288826123d5565b975061243d836123ed565b92505060018101905061241e565b5085935050505092915050565b600060408201905061246d60008301856118c0565b818103602083015261247f81846123fa565b90509392505050565b600067ffffffffffffffff8211156124a3576124a261129b565b5b602082029050602081019050919050565b60006124c76124c284612488565b6112fb565b905080838252602082019050602084028301858111156124ea576124e9611916565b5b835b8181101561251357806124ff8882612242565b8452602084019350506020810190506124ec565b5050509392505050565b600082601f8301126125325761253161131b565b5b81516125428482602086016124b4565b91505092915050565b6000602082840312156125615761256061127b565b5b600082015167ffffffffffffffff81111561257f5761257e611280565b5b61258b8482850161251d565b91505092915050565b60006125a76125a284611325565b6112fb565b9050828152602081018484840111156125c3576125c2611320565b5b6125ce8482856121bd565b509392505050565b600082601f8301126125eb576125ea61131b565b5b81516125fb848260208601612594565b91505092915050565b60006020828403121561261a5761261961127b565b5b600082015167ffffffffffffffff81111561263857612637611280565b5b612644848285016125d6565b9150509291505056fea26469706673582212206428d16089ae7cc24770d2204409340e5bde58ef1b030453ff7d874aadbc4ece64736f6c634300081c0033",
  "linkReferences": {},
  "deployedLinkReferences": {}
}