{
  "_format": "hh-sol-artifact-1",
  "contractName": "Treasury",
  "sourceName": "contracts/Treasury.sol",
  "abi": [
    {
      "inputs": [
        {
          "internalType": "uint256",
          "name": "_maxActions",
          "type": "uint256"
        },
        {
          "internalType": "address",
          "name": "_controller",
          "type": "address"
        }
      ],
      "stateMutability": "nonpayable",
      "type": "constructor"
    },
    {
      "inputs": [
        {
          "internalType": "address",
          "name": "owner",
          "type": "address"
        }
      ],
      "name": "OwnableInvalidOwner",
      "type": "error"
    },
    {
      "inputs": [
        {
          "internalType": "address",
          "name": "account",
          "type": "address"
        }
      ],
      "name": "OwnableUnauthorizedAccount",
      "type": "error"
    },
    {
      "anonymous": false,
      "inputs": [
        {
          "indexed": true,
          "internalType": "bytes32",
          "name": "id",
          "type": "bytes32"
        },
        {
          "indexed": false,
          "internalType": "enum ActionType",
          "name": "actionType",
          "type": "uint8"
        },
        {
          "indexed": false,
          "internalType": "bytes",
          "name": "params",
          "type": "bytes"
        }
      ],
      "name": "ActionCreated",
      "type": "event"
    },
    {
      "anonymous": false,
      "inputs": [
        {
          "indexed": true,
          "internalType": "address",
          "name": "previousOwner",
          "type": "address"
        },
        {
          "indexed": true,
          "internalType": "address",
          "name": "newOwner",
          "type": "address"
        }
      ],
      "name": "OwnershipTransferred",
      "type": "event"
    },
    {
      "anonymous": false,
      "inputs": [
        {
          "indexed": true,
          "internalType": "bytes32",
          "name": "id",
          "type": "bytes32"
        },
        {
          "indexed": false,
          "internalType": "enum ActionType",
          "name": "actionType",
          "type": "uint8"
        },
        {
          "indexed": false,
          "internalType": "uint256",
          "name": "amount",
          "type": "uint256"
        },
        {
          "indexed": false,
          "internalType": "bytes",
          "name": "params",
          "type": "bytes"
        }
      ],
      "name": "TreasuryExecution",
      "type": "event"
    },
    {
      "inputs": [],
      "name": "actionCount",
      "outputs": [
        {
          "internalType": "uint256",
          "name": "",
          "type": "uint256"
        }
      ],
      "stateMutability": "view",
      "type": "function"
    },
    {
      "inputs": [
        {
          "internalType": "bytes32",
          "name": "",
          "type": "bytes32"
        }
      ],
      "name": "actions",
      "outputs": [
        {
          "internalType": "enum ActionStatus",
          "name": "status",
          "type": "uint8"
        },
        {
          "internalType": "enum ActionType",
          "name": "actionType",
          "type": "uint8"
        },
        {
          "internalType": "bool",
          "name": "exists",
          "type": "bool"
        },
        {
          "internalType": "uint256",
          "name": "executedAt",
          "type": "uint256"
        },
        {
          "internalType": "bytes",
          "name": "dataHash",
          "type": "bytes"
        }
      ],
      "stateMutability": "view",
      "type": "function"
    },
    {
      "inputs": [],
      "name": "controller",
      "outputs": [
        {
          "internalType": "address",
          "name": "",
          "type": "address"
        }
      ],
      "stateMutability": "view",
      "type": "function"
    },
    {
      "inputs": [
        {
          "internalType": "bytes32",
          "name": "_id",
          "type": "bytes32"
        },
        {
          "internalType": "uint8",
          "name": "_type",
          "type": "uint8"
        },
        {
          "internalType": "bytes",
          "name": "_params",
          "type": "bytes"
        }
      ],
      "name": "createAction",
      "outputs": [],
      "stateMutability": "nonpayable",
      "type": "function"
    },
    {
      "inputs": [
        {
          "internalType": "bytes32",
          "name": "_id",
          "type": "bytes32"
        }
      ],
      "name": "executeTreasuryAction",
      "outputs": [],
      "stateMutability": "nonpayable",
      "type": "function"
    },
    {
      "inputs": [],
      "name": "owner",
      "outputs": [
        {
          "internalType": "address",
          "name": "",
          "type": "address"
        }
      ],
      "stateMutability": "view",
      "type": "function"
    },
    {
      "inputs": [],
      "name": "renounceOwnership",
      "outputs": [],
      "stateMutability": "nonpayable",
      "type": "function"
    },
    {
      "inputs": [
        {
          "internalType": "address",
          "name": "newOwner",
          "type": "address"
        }
      ],
      "name": "transferOwnership",
      "outputs": [],
      "stateMutability": "nonpayable",
      "type": "function"
    }
  ],
  "bytecode": "0x608060405234801561001057600080fd5b5060405161273d38038061273d83398181016040528101906100329190610261565b33600073ffffffffffffffffffffffffffffffffffffffff168173ffffffffffffffffffffffffffffffffffffffff16036100a55760006040517f1e4fbdf700000000000000000000000000000000000000000000000000000000815260040161009c91906102b0565b60405180910390fd5b6100b48161010460201b60201c565b508160018190555080600260006101000a81548173ffffffffffffffffffffffffffffffffffffffff021916908373ffffffffffffffffffffffffffffffffffffffff16021790555050506102cb565b60008060009054906101000a900473ffffffffffffffffffffffffffffffffffffffff169050816000806101000a81548173ffffffffffffffffffffffffffffffffffffffff021916908373ffffffffffffffffffffffffffffffffffffffff1602179055508173ffffffffffffffffffffffffffffffffffffffff168173ffffffffffffffffffffffffffffffffffffffff167f8be0079c531659141344cd1fd0a4f28419497f9722a3daafe3b4186f6b6457e060405160405180910390a35050565b600080fd5b6000819050919050565b6101e0816101cd565b81146101eb57600080fd5b50565b6000815190506101fd816101d7565b92915050565b600073ffffffffffffffffffffffffffffffffffffffff82169050919050565b600061022e82610203565b9050919050565b61023e81610223565b811461024957600080fd5b50565b60008151905061025b81610235565b92915050565b60008060408385031215610278576102776101c8565b5b6000610286858286016101ee565b92505060206102978582860161024c565b9150509250929050565b6102aa81610223565b82525050565b60006020820190506102c560008301846102a1565b92915050565b612463806102da6000396000f3fe608060405234801561001057600080fd5b50600436106100885760003560e01c80638da5cb5b1161005b5780638da5cb5b146100ed578063f2fde38b1461010b578063f3abde3214610127578063f77c47911461015b57610088565b806329da57381461008d578063715018a6146100ab5780637cca43a9146100b557806384de3c55146100d1575b600080fd5b610095610179565b6040516100a2919061125d565b60405180910390f35b6100b361017f565b005b6100cf60048036038101906100ca9190611360565b610193565b005b6100eb60048036038101906100e691906113d4565b6104b3565b005b6100f5610eda565b6040516101029190611442565b60405180910390f35b61012560048036038101906101209190611489565b610f03565b005b610141600480360381019061013c91906113d4565b610f89565b604051610152959493929190611620565b60405180910390f35b61016361106e565b6040516101709190611442565b60405180910390f35b60035481565b610187611094565b610191600061111b565b565b836004600082815260200190815260200160002060000160029054906101000a900460ff16156101f8576040517f08c379a00000000000000000000000000000000000000000000000000000000081526004016101ef906116d7565b60405180910390fd5b8360008160ff1611801561021157506001548160ff1611155b610250576040517f08c379a000000000000000000000000000000000000000000000000000000000815260040161024790611743565b60405180910390fd5b600260009054906101000a900473ffffffffffffffffffffffffffffffffffffffff1673ffffffffffffffffffffffffffffffffffffffff163373ffffffffffffffffffffffffffffffffffffffff16146102e0576040517f08c379a00000000000000000000000000000000000000000000000000000000081526004016102d7906117af565b60405180910390fd5b60006040518060a0016040528060006003811115610301576103006114b6565b5b815260200160018861031391906117fe565b60ff166003811115610328576103276114b6565b5b600381111561033a576103396114b6565b5b81526020016001151581526020016000815260200186868080601f016020809104026020016040519081016040528093929190818152602001838380828437600081840152601f19601f820116905080830192505050505050508152509050806004600089815260200190815260200160002060008201518160000160006101000a81548160ff021916908360038111156103d8576103d76114b6565b5b021790555060208201518160000160016101000a81548160ff02191690836003811115610408576104076114b6565b5b021790555060408201518160000160026101000a81548160ff02191690831515021790555060608201518160010155608082015181600201908161044c9190611a6e565b509050506001600360008282546104639190611b40565b92505081905550867f6cdc86f70f2e362bdf42d925f42ef28ec703dbab808751a8bd4356e95aa1a00a826020015187876040516104a293929190611bb0565b60405180910390a250505050505050565b6000600460008381526020019081526020016000206040518060a00160405290816000820160009054906101000a900460ff1660038111156104f8576104f76114b6565b5b600381111561050a576105096114b6565b5b81526020016000820160019054906101000a900460ff166003811115610533576105326114b6565b5b6003811115610545576105446114b6565b5b81526020016000820160029054906101000a900460ff161515151581526020016001820154815260200160028201805461057e90611891565b80601f01602080910402602001604051908101604052809291908181526020018280546105aa90611891565b80156105f75780601f106105cc576101008083540402835291602001916105f7565b820191906000526020600020905b8154815290600101906020018083116105da57829003601f168201915b50505050508152505090508060400151610646576040517f08c379a000000000000000000000000000000000000000000000000000000000815260040161063d90611c2e565b60405180910390fd5b60008160200151905060006003811115610663576106626114b6565b5b816003811115610676576106756114b6565b5b0361084157600080600084608001518060200190518101906106989190611cf4565b925092509250814711156108395760046000878152602001908152602001600020600080820160006101000a81549060ff02191690556000820160016101000a81549060ff02191690556000820160026101000a81549060ff0219169055600182016000905560028201600061070e91906111e7565b505060008373ffffffffffffffffffffffffffffffffffffffff168360405161073690611d78565b60006040518083038185875af1925050503d8060008114610773576040519150601f19603f3d011682016040523d82523d6000602084013e610778565b606091505b50509050806107bc576040517f08c379a00000000000000000000000000000000000000000000000000000000081526004016107b390611dd9565b60405180910390fd5b6001866000019060038111156107d5576107d46114b6565b5b908160038111156107e9576107e86114b6565b5b8152505042866060018181525050867fe54f376c16c9814fd3dfc2049ffe795da7f2707e2c8ee002b1190c0f7d3ea4218685896080015160405161082f93929190611df9565b60405180910390a2505b505050610ed5565b60016003811115610855576108546114b6565b5b816003811115610868576108676114b6565b5b03610b4757600082608001518060200190518101906108879190611fb0565b90506032815111156108ce576040517f08c379a00000000000000000000000000000000000000000000000000000000081526004016108c590612045565b60405180910390fd5b6000805b8251811015610914578281815181106108ee576108ed612065565b5b602002602001015160200151826109059190611b40565b915080806001019150506108d2565b5080471015610958576040517f08c379a000000000000000000000000000000000000000000000000000000000815260040161094f906120e0565b60405180910390fd5b60005b8251811015610a5a57600083828151811061097957610978612065565b5b60200260200101516000015173ffffffffffffffffffffffffffffffffffffffff168483815181106109ae576109ad612065565b5b6020026020010151602001516040516109c690611d78565b60006040518083038185875af1925050503d8060008114610a03576040519150601f19603f3d011682016040523d82523d6000602084013e610a08565b606091505b5050905080610a4c576040517f08c379a0000000000000000000000000000000000000000000000000000000008152600401610a4390611dd9565b60405180910390fd5b50808060010191505061095b565b5060046000868152602001908152602001600020600080820160006101000a81549060ff02191690556000820160016101000a81549060ff02191690556000820160026101000a81549060ff02191690556001820160009055600282016000610ac391906111e7565b5050600184600001906003811115610ade57610add6114b6565b5b90816003811115610af257610af16114b6565b5b8152505042846060018181525050847fe54f376c16c9814fd3dfc2049ffe795da7f2707e2c8ee002b1190c0f7d3ea42184838760800151604051610b3893929190611df9565b60405180910390a25050610ed4565b60026003811115610b5b57610b5a6114b6565b5b816003811115610b6e57610b6d6114b6565b5b03610e98576000806000808560800151806020019051810190610b919190612140565b93509350935093508167ffffffffffffffff16421015610be6576040517f08c379a0000000000000000000000000000000000000000000000000000000008152600401610bdd906121f3565b60405180910390fd5b60006005600089815260200190815260200160002060009054906101000a900460ff16905060048160ff1610610c51576040517f08c379a0000000000000000000000000000000000000000000000000000000008152600401610c489061225f565b60405180910390fd5b60008267ffffffffffffffff168467ffffffffffffffff1642610c74919061227f565b610c7e91906122e2565b90508160ff168111610cc5576040517f08c379a0000000000000000000000000000000000000000000000000000000008152600401610cbc9061235f565b60405180910390fd5b6000600586610cd491906122e2565b90506000818460ff1684610ce8919061227f565b610cf2919061237f565b905080471015610d37576040517f08c379a0000000000000000000000000000000000000000000000000000000008152600401610d2e906120e0565b60405180910390fd5b60008873ffffffffffffffffffffffffffffffffffffffff1682604051610d5d90611d78565b60006040518083038185875af1925050503d8060008114610d9a576040519150601f19603f3d011682016040523d82523d6000602084013e610d9f565b606091505b5050905080610de3576040517f08c379a0000000000000000000000000000000000000000000000000000000008152600401610dda90611dd9565b60405180910390fd5b83600560008e815260200190815260200160002060006101000a81548160ff021916908360ff16021790555060018b600001906003811115610e2857610e276114b6565b5b90816003811115610e3c57610e3b6114b6565b5b81525050428b60600181815250508b7fe54f376c16c9814fd3dfc2049ffe795da7f2707e2c8ee002b1190c0f7d3ea4218b848e60800151604051610e8293929190611df9565b60405180910390a2505050505050505050610ed3565b6040517f08c379a0000000000000000000000000000000000000000000000000000000008152600401610eca9061240d565b60405180910390fd5b5b5b505050565b60008060009054906101000a900473ffffffffffffffffffffffffffffffffffffffff16905090565b610f0b611094565b600073ffffffffffffffffffffffffffffffffffffffff168173ffffffffffffffffffffffffffffffffffffffff1603610f7d5760006040517f1e4fbdf7000000000000000000000000000000000000000000000000000000008152600401610f749190611442565b60405180910390fd5b610f868161111b565b50565b60046020528060005260406000206000915090508060000160009054906101000a900460ff16908060000160019054906101000a900460ff16908060000160029054906101000a900460ff1690806001015490806002018054610feb90611891565b80601f016020809104026020016040519081016040528092919081815260200182805461101790611891565b80156110645780601f1061103957610100808354040283529160200191611064565b820191906000526020600020905b81548152906001019060200180831161104757829003601f168201915b5050505050905085565b600260009054906101000a900473ffffffffffffffffffffffffffffffffffffffff1681565b61109c6111df565b73ffffffffffffffffffffffffffffffffffffffff166110ba610eda565b73ffffffffffffffffffffffffffffffffffffffff1614611119576110dd6111df565b6040517f118cdaa70000000000000000000000000000000000000000000000000000000081526004016111109190611442565b60405180910390fd5b565b60008060009054906101000a900473ffffffffffffffffffffffffffffffffffffffff169050816000806101000a81548173ffffffffffffffffffffffffffffffffffffffff021916908373ffffffffffffffffffffffffffffffffffffffff1602179055508173ffffffffffffffffffffffffffffffffffffffff168173ffffffffffffffffffffffffffffffffffffffff167f8be0079c531659141344cd1fd0a4f28419497f9722a3daafe3b4186f6b6457e060405160405180910390a35050565b600033905090565b5080546111f390611891565b6000825580601f106112055750611224565b601f0160209004906000526020600020908101906112239190611227565b5b50565b5b80821115611240576000816000905550600101611228565b5090565b6000819050919050565b61125781611244565b82525050565b6000602082019050611272600083018461124e565b92915050565b6000604051905090565b600080fd5b600080fd5b6000819050919050565b61129f8161128c565b81146112aa57600080fd5b50565b6000813590506112bc81611296565b92915050565b600060ff82169050919050565b6112d8816112c2565b81146112e357600080fd5b50565b6000813590506112f5816112cf565b92915050565b600080fd5b600080fd5b600080fd5b60008083601f8401126113205761131f6112fb565b5b8235905067ffffffffffffffff81111561133d5761133c611300565b5b60208301915083600182028301111561135957611358611305565b5b9250929050565b6000806000806060858703121561137a57611379611282565b5b6000611388878288016112ad565b9450506020611399878288016112e6565b935050604085013567ffffffffffffffff8111156113ba576113b9611287565b5b6113c68782880161130a565b925092505092959194509250565b6000602082840312156113ea576113e9611282565b5b60006113f8848285016112ad565b91505092915050565b600073ffffffffffffffffffffffffffffffffffffffff82169050919050565b600061142c82611401565b9050919050565b61143c81611421565b82525050565b60006020820190506114576000830184611433565b92915050565b61146681611421565b811461147157600080fd5b50565b6000813590506114838161145d565b92915050565b60006020828403121561149f5761149e611282565b5b60006114ad84828501611474565b91505092915050565b7f4e487b7100000000000000000000000000000000000000000000000000000000600052602160045260246000fd5b600481106114f6576114f56114b6565b5b50565b6000819050611507826114e5565b919050565b6000611517826114f9565b9050919050565b6115278161150c565b82525050565b6004811061153e5761153d6114b6565b5b50565b600081905061154f8261152d565b919050565b600061155f82611541565b9050919050565b61156f81611554565b82525050565b60008115159050919050565b61158a81611575565b82525050565b600081519050919050565b600082825260208201905092915050565b60005b838110156115ca5780820151818401526020810190506115af565b60008484015250505050565b6000601f19601f8301169050919050565b60006115f282611590565b6115fc818561159b565b935061160c8185602086016115ac565b611615816115d6565b840191505092915050565b600060a082019050611635600083018861151e565b6116426020830187611566565b61164f6040830186611581565b61165c606083018561124e565b818103608083015261166e81846115e7565b90509695505050505050565b600082825260208201905092915050565b7f4f6e6c7920556e69717565204944730000000000000000000000000000000000600082015250565b60006116c1600f8361167a565b91506116cc8261168b565b602082019050919050565b600060208201905081810360008301526116f0816116b4565b9050919050565b7f496e76616c696420494400000000000000000000000000000000000000000000600082015250565b600061172d600a8361167a565b9150611738826116f7565b602082019050919050565b6000602082019050818103600083015261175c81611720565b9050919050565b7f4f6e6c7920436f6e74726f6c6c65720000000000000000000000000000000000600082015250565b6000611799600f8361167a565b91506117a482611763565b602082019050919050565b600060208201905081810360008301526117c88161178c565b9050919050565b7f4e487b7100000000000000000000000000000000000000000000000000000000600052601160045260246000fd5b6000611809826112c2565b9150611814836112c2565b9250828203905060ff81111561182d5761182c6117cf565b5b92915050565b7f4e487b7100000000000000000000000000000000000000000000000000000000600052604160045260246000fd5b7f4e487b7100000000000000000000000000000000000000000000000000000000600052602260045260246000fd5b600060028204905060018216806118a957607f821691505b6020821081036118bc576118bb611862565b5b50919050565b60008190508160005260206000209050919050565b60006020601f8301049050919050565b600082821b905092915050565b6000600883026119247fffffffffffffffffffffffffffffffffffffffffffffffffffffffffffffffff826118e7565b61192e86836118e7565b95508019841693508086168417925050509392505050565b6000819050919050565b600061196b61196661196184611244565b611946565b611244565b9050919050565b6000819050919050565b61198583611950565b61199961199182611972565b8484546118f4565b825550505050565b600090565b6119ae6119a1565b6119b981848461197c565b505050565b5b818110156119dd576119d26000826119a6565b6001810190506119bf565b5050565b601f821115611a22576119f3816118c2565b6119fc846118d7565b81016020851015611a0b578190505b611a1f611a17856118d7565b8301826119be565b50505b505050565b600082821c905092915050565b6000611a4560001984600802611a27565b1980831691505092915050565b6000611a5e8383611a34565b9150826002028217905092915050565b611a7782611590565b67ffffffffffffffff811115611a9057611a8f611833565b5b611a9a8254611891565b611aa58282856119e1565b600060209050601f831160018114611ad85760008415611ac6578287015190505b611ad08582611a52565b865550611b38565b601f198416611ae6866118c2565b60005b82811015611b0e57848901518255600182019150602085019450602081019050611ae9565b86831015611b2b5784890151611b27601f891682611a34565b8355505b6001600288020188555050505b505050505050565b6000611b4b82611244565b9150611b5683611244565b9250828201905080821115611b6e57611b6d6117cf565b5b92915050565b82818337600083830152505050565b6000611b8f838561159b565b9350611b9c838584611b74565b611ba5836115d6565b840190509392505050565b6000604082019050611bc56000830186611566565b8181036020830152611bd8818486611b83565b9050949350505050565b7f416374696f6e20646f6573206e6f742065786973740000000000000000000000600082015250565b6000611c1860158361167a565b9150611c2382611be2565b602082019050919050565b60006020820190508181036000830152611c4781611c0b565b9050919050565b6000611c5982611401565b9050919050565b611c6981611c4e565b8114611c7457600080fd5b50565b600081519050611c8681611c60565b92915050565b611c9581611244565b8114611ca057600080fd5b50565b600081519050611cb281611c8c565b92915050565b600063ffffffff82169050919050565b611cd181611cb8565b8114611cdc57600080fd5b50565b600081519050611cee81611cc8565b92915050565b600080600060608486031215611d0d57611d0c611282565b5b6000611d1b86828701611c77565b9350506020611d2c86828701611ca3565b9250506040611d3d86828701611cdf565b9150509250925092565b600081905092915050565b50565b6000611d62600083611d47565b9150611d6d82611d52565b600082019050919050565b6000611d8382611d55565b9150819050919050565b7f4661696c656420746f2073656e64204574686572000000000000000000000000600082015250565b6000611dc360148361167a565b9150611dce82611d8d565b602082019050919050565b60006020820190508181036000830152611df281611db6565b9050919050565b6000606082019050611e0e6000830186611566565b611e1b602083018561124e565b8181036040830152611e2d81846115e7565b9050949350505050565b611e40826115d6565b810181811067ffffffffffffffff82111715611e5f57611e5e611833565b5b80604052505050565b6000611e72611278565b9050611e7e8282611e37565b919050565b600067ffffffffffffffff821115611e9e57611e9d611833565b5b602082029050602081019050919050565b600080fd5b600081519050611ec38161145d565b92915050565b600060408284031215611edf57611ede611eaf565b5b611ee96040611e68565b90506000611ef984828501611eb4565b6000830152506020611f0d84828501611ca3565b60208301525092915050565b6000611f2c611f2784611e83565b611e68565b90508083825260208201905060408402830185811115611f4f57611f4e611305565b5b835b81811015611f785780611f648882611ec9565b845260208401935050604081019050611f51565b5050509392505050565b600082601f830112611f9757611f966112fb565b5b8151611fa7848260208601611f19565b91505092915050565b600060208284031215611fc657611fc5611282565b5b600082015167ffffffffffffffff811115611fe457611fe3611287565b5b611ff084828501611f82565b91505092915050565b7f45786365656473206d61782062617463682073697a6500000000000000000000600082015250565b600061202f60168361167a565b915061203a82611ff9565b602082019050919050565b6000602082019050818103600083015261205e81612022565b9050919050565b7f4e487b7100000000000000000000000000000000000000000000000000000000600052603260045260246000fd5b7f496e73756666696369656e742042616c616e6365000000000000000000000000600082015250565b60006120ca60148361167a565b91506120d582612094565b602082019050919050565b600060208201905081810360008301526120f9816120bd565b9050919050565b600067ffffffffffffffff82169050919050565b61211d81612100565b811461212857600080fd5b50565b60008151905061213a81612114565b92915050565b6000806000806080858703121561215a57612159611282565b5b600061216887828801611c77565b945050602061217987828801611ca3565b935050604061218a8782880161212b565b925050606061219b8782880161212b565b91505092959194509250565b7f446561646c696e65206e6f742072656163686564000000000000000000000000600082015250565b60006121dd60148361167a565b91506121e8826121a7565b602082019050919050565b6000602082019050818103600083015261220c816121d0565b9050919050565b7f4d61782073747265616d73207265616368656400000000000000000000000000600082015250565b600061224960138361167a565b915061225482612213565b602082019050919050565b600060208201905081810360008301526122788161223c565b9050919050565b600061228a82611244565b915061229583611244565b92508282039050818111156122ad576122ac6117cf565b5b92915050565b7f4e487b7100000000000000000000000000000000000000000000000000000000600052601260045260246000fd5b60006122ed82611244565b91506122f883611244565b925082612308576123076122b3565b5b828204905092915050565b7f4e6f206e657720636c6966667320657868617573746564000000000000000000600082015250565b600061234960178361167a565b915061235482612313565b602082019050919050565b600060208201905081810360008301526123788161233c565b9050919050565b600061238a82611244565b915061239583611244565b92508282026123a381611244565b915082820484148315176123ba576123b96117cf565b5b5092915050565b7f496e76616c696420416374696f6e205479706500000000000000000000000000600082015250565b60006123f760138361167a565b9150612402826123c1565b602082019050919050565b60006020820190508181036000830152612426816123ea565b905091905056fea26469706673582212202e58d10637cefaa7ce4b669eb6970fe3b1a076e139a435a0937dd9660a63e48d64736f6c634300081c0033",
  "linkReferences": {},
  "deployedLinkReferences": {}
}