{
  "_format": "hh-sol-artifact-1",
  "contractName": "Treasury",
  "sourceName": "contracts/Treasury.sol",
  "abi": [
    {
      "inputs": [
        {
          "internalType": "uint256",
          "name": "_maxActions",
          "type": "uint256"
        },
        {
          "internalType": "address",
          "name": "_controller",
          "type": "address"
        }
      ],
      "stateMutability": "nonpayable",
      "type": "constructor"
    },
    {
      "inputs": [
        {
          "internalType": "address",
          "name": "owner",
          "type": "address"
        }
      ],
      "name": "OwnableInvalidOwner",
      "type": "error"
    },
    {
      "inputs": [
        {
          "internalType": "address",
          "name": "account",
          "type": "address"
        }
      ],
      "name": "OwnableUnauthorizedAccount",
      "type": "error"
    },
    {
      "anonymous": false,
      "inputs": [
        {
          "indexed": true,
          "internalType": "bytes32",
          "name": "id",
          "type": "bytes32"
        },
        {
          "indexed": false,
          "internalType": "enum ActionType",
          "name": "actionType",
          "type": "uint8"
        },
        {
          "indexed": false,
          "internalType": "bytes",
          "name": "params",
          "type": "bytes"
        }
      ],
      "name": "ActionCreated",
      "type": "event"
    },
    {
      "anonymous": false,
      "inputs": [
        {
          "indexed": true,
          "internalType": "address",
          "name": "previousOwner",
          "type": "address"
        },
        {
          "indexed": true,
          "internalType": "address",
          "name": "newOwner",
          "type": "address"
        }
      ],
      "name": "OwnershipTransferred",
      "type": "event"
    },
    {
      "anonymous": false,
      "inputs": [
        {
          "indexed": true,
          "internalType": "bytes32",
          "name": "id",
          "type": "bytes32"
        },
        {
          "indexed": false,
          "internalType": "enum ActionType",
          "name": "actionType",
          "type": "uint8"
        },
        {
          "indexed": false,
          "internalType": "uint256",
          "name": "amount",
          "type": "uint256"
        },
        {
          "indexed": false,
          "internalType": "bytes",
          "name": "params",
          "type": "bytes"
        }
      ],
      "name": "TreasuryExecution",
      "type": "event"
    },
    {
      "inputs": [],
      "name": "actionCount",
      "outputs": [
        {
          "internalType": "uint256",
          "name": "",
          "type": "uint256"
        }
      ],
      "stateMutability": "view",
      "type": "function"
    },
    {
      "inputs": [
        {
          "internalType": "bytes32",
          "name": "",
          "type": "bytes32"
        }
      ],
      "name": "actions",
      "outputs": [
        {
          "internalType": "enum ActionStatus",
          "name": "status",
          "type": "uint8"
        },
        {
          "internalType": "enum ActionType",
          "name": "actionType",
          "type": "uint8"
        },
        {
          "internalType": "bool",
          "name": "exists",
          "type": "bool"
        },
        {
          "internalType": "uint256",
          "name": "executedAt",
          "type": "uint256"
        },
        {
          "internalType": "bytes",
          "name": "dataHash",
          "type": "bytes"
        }
      ],
      "stateMutability": "view",
      "type": "function"
    },
    {
      "inputs": [],
      "name": "controller",
      "outputs": [
        {
          "internalType": "address",
          "name": "",
          "type": "address"
        }
      ],
      "stateMutability": "view",
      "type": "function"
    },
    {
      "inputs": [
        {
          "internalType": "bytes32",
          "name": "_id",
          "type": "bytes32"
        },
        {
          "internalType": "uint8",
          "name": "_type",
          "type": "uint8"
        },
        {
          "internalType": "bytes",
          "name": "_params",
          "type": "bytes"
        }
      ],
      "name": "createAction",
      "outputs": [],
      "stateMutability": "nonpayable",
      "type": "function"
    },
    {
      "inputs": [
        {
          "internalType": "bytes32",
          "name": "_id",
          "type": "bytes32"
        }
      ],
      "name": "executeTreasuryAction",
      "outputs": [],
      "stateMutability": "nonpayable",
      "type": "function"
    },
    {
      "inputs": [],
      "name": "generateActionId",
      "outputs": [
        {
          "internalType": "bytes32",
          "name": "",
          "type": "bytes32"
        }
      ],
      "stateMutability": "view",
      "type": "function"
    },
    {
      "inputs": [],
      "name": "maxActions",
      "outputs": [
        {
          "internalType": "uint256",
          "name": "",
          "type": "uint256"
        }
      ],
      "stateMutability": "view",
      "type": "function"
    },
    {
      "inputs": [],
      "name": "owner",
      "outputs": [
        {
          "internalType": "address",
          "name": "",
          "type": "address"
        }
      ],
      "stateMutability": "view",
      "type": "function"
    },
    {
      "inputs": [],
      "name": "renounceOwnership",
      "outputs": [],
      "stateMutability": "nonpayable",
      "type": "function"
    },
    {
      "inputs": [
        {
          "internalType": "address",
          "name": "newOwner",
          "type": "address"
        }
      ],
      "name": "transferOwnership",
      "outputs": [],
      "stateMutability": "nonpayable",
      "type": "function"
    }
  ],
  "bytecode": "0x608060405234801561001057600080fd5b506040516127a13803806127a183398181016040528101906100329190610261565b33600073ffffffffffffffffffffffffffffffffffffffff168173ffffffffffffffffffffffffffffffffffffffff16036100a55760006040517f1e4fbdf700000000000000000000000000000000000000000000000000000000815260040161009c91906102b0565b60405180910390fd5b6100b48161010460201b60201c565b508160018190555080600260006101000a81548173ffffffffffffffffffffffffffffffffffffffff021916908373ffffffffffffffffffffffffffffffffffffffff16021790555050506102cb565b60008060009054906101000a900473ffffffffffffffffffffffffffffffffffffffff169050816000806101000a81548173ffffffffffffffffffffffffffffffffffffffff021916908373ffffffffffffffffffffffffffffffffffffffff1602179055508173ffffffffffffffffffffffffffffffffffffffff168173ffffffffffffffffffffffffffffffffffffffff167f8be0079c531659141344cd1fd0a4f28419497f9722a3daafe3b4186f6b6457e060405160405180910390a35050565b600080fd5b6000819050919050565b6101e0816101cd565b81146101eb57600080fd5b50565b6000815190506101fd816101d7565b92915050565b600073ffffffffffffffffffffffffffffffffffffffff82169050919050565b600061022e82610203565b9050919050565b61023e81610223565b811461024957600080fd5b50565b60008151905061025b81610235565b92915050565b60008060408385031215610278576102776101c8565b5b6000610286858286016101ee565b92505060206102978582860161024c565b9150509250929050565b6102aa81610223565b82525050565b60006020820190506102c560008301846102a1565b92915050565b6124c7806102da6000396000f3fe608060405234801561001057600080fd5b506004361061009e5760003560e01c80638da5cb5b116100665780638da5cb5b14610121578063c230f8121461013f578063f2fde38b1461015d578063f3abde3214610179578063f77c4791146101ad5761009e565b806329da5738146100a35780634afd4f0e146100c1578063715018a6146100df5780637cca43a9146100e957806384de3c5514610105575b600080fd5b6100ab6101cb565b6040516100b8919061125d565b60405180910390f35b6100c96101d1565b6040516100d6919061125d565b60405180910390f35b6100e76101db565b005b61010360048036038101906100fe9190611360565b6101ef565b005b61011f600480360381019061011a91906113d4565b61047f565b005b610129610ea6565b6040516101369190611442565b60405180910390f35b610147610ecf565b604051610154919061146c565b60405180910390f35b610177600480360381019061017291906114b3565b610f03565b005b610193600480360381019061018e91906113d4565b610f89565b6040516101a495949392919061164a565b60405180910390f35b6101b561106e565b6040516101c29190611442565b60405180910390f35b60035481565b6000600154905090565b6101e3611094565b6101ed600061111b565b565b836004600082815260200190815260200160002060000160029054906101000a900460ff1615610254576040517f08c379a000000000000000000000000000000000000000000000000000000000815260040161024b90611701565b60405180910390fd5b8360008160ff1611801561026d57506001548160ff1611155b6102ac576040517f08c379a00000000000000000000000000000000000000000000000000000000081526004016102a39061176d565b60405180910390fd5b60006040518060a00160405280600060038111156102cd576102cc6114e0565b5b81526020016001886102df91906117bc565b60ff1660038111156102f4576102f36114e0565b5b6003811115610306576103056114e0565b5b81526020016001151581526020016000815260200186868080601f016020809104026020016040519081016040528093929190818152602001838380828437600081840152601f19601f820116905080830192505050505050508152509050806004600089815260200190815260200160002060008201518160000160006101000a81548160ff021916908360038111156103a4576103a36114e0565b5b021790555060208201518160000160016101000a81548160ff021916908360038111156103d4576103d36114e0565b5b021790555060408201518160000160026101000a81548160ff0219169083151502179055506060820151816001015560808201518160020190816104189190611a2c565b5090505060016003600082825461042f9190611afe565b92505081905550867f6cdc86f70f2e362bdf42d925f42ef28ec703dbab808751a8bd4356e95aa1a00a8260200151878760405161046e93929190611b6e565b60405180910390a250505050505050565b6000600460008381526020019081526020016000206040518060a00160405290816000820160009054906101000a900460ff1660038111156104c4576104c36114e0565b5b60038111156104d6576104d56114e0565b5b81526020016000820160019054906101000a900460ff1660038111156104ff576104fe6114e0565b5b6003811115610511576105106114e0565b5b81526020016000820160029054906101000a900460ff161515151581526020016001820154815260200160028201805461054a9061184f565b80601f01602080910402602001604051908101604052809291908181526020018280546105769061184f565b80156105c35780601f10610598576101008083540402835291602001916105c3565b820191906000526020600020905b8154815290600101906020018083116105a657829003601f168201915b50505050508152505090508060400151610612576040517f08c379a000000000000000000000000000000000000000000000000000000000815260040161060990611bec565b60405180910390fd5b6000816020015190506000600381111561062f5761062e6114e0565b5b816003811115610642576106416114e0565b5b0361080d57600080600084608001518060200190518101906106649190611cb2565b925092509250814711156108055760046000878152602001908152602001600020600080820160006101000a81549060ff02191690556000820160016101000a81549060ff02191690556000820160026101000a81549060ff021916905560018201600090556002820160006106da91906111e7565b505060008373ffffffffffffffffffffffffffffffffffffffff168360405161070290611d36565b60006040518083038185875af1925050503d806000811461073f576040519150601f19603f3d011682016040523d82523d6000602084013e610744565b606091505b5050905080610788576040517f08c379a000000000000000000000000000000000000000000000000000000000815260040161077f90611d97565b60405180910390fd5b6001866000019060038111156107a1576107a06114e0565b5b908160038111156107b5576107b46114e0565b5b8152505042866060018181525050867fe54f376c16c9814fd3dfc2049ffe795da7f2707e2c8ee002b1190c0f7d3ea421868589608001516040516107fb93929190611db7565b60405180910390a2505b505050610ea1565b60016003811115610821576108206114e0565b5b816003811115610834576108336114e0565b5b03610b1357600082608001518060200190518101906108539190611f6e565b905060328151111561089a576040517f08c379a000000000000000000000000000000000000000000000000000000000815260040161089190612003565b60405180910390fd5b6000805b82518110156108e0578281815181106108ba576108b9612023565b5b602002602001015160200151826108d19190611afe565b9150808060010191505061089e565b5080471015610924576040517f08c379a000000000000000000000000000000000000000000000000000000000815260040161091b9061209e565b60405180910390fd5b60005b8251811015610a2657600083828151811061094557610944612023565b5b60200260200101516000015173ffffffffffffffffffffffffffffffffffffffff1684838151811061097a57610979612023565b5b60200260200101516020015160405161099290611d36565b60006040518083038185875af1925050503d80600081146109cf576040519150601f19603f3d011682016040523d82523d6000602084013e6109d4565b606091505b5050905080610a18576040517f08c379a0000000000000000000000000000000000000000000000000000000008152600401610a0f90611d97565b60405180910390fd5b508080600101915050610927565b5060046000868152602001908152602001600020600080820160006101000a81549060ff02191690556000820160016101000a81549060ff02191690556000820160026101000a81549060ff02191690556001820160009055600282016000610a8f91906111e7565b5050600184600001906003811115610aaa57610aa96114e0565b5b90816003811115610abe57610abd6114e0565b5b8152505042846060018181525050847fe54f376c16c9814fd3dfc2049ffe795da7f2707e2c8ee002b1190c0f7d3ea42184838760800151604051610b0493929190611db7565b60405180910390a25050610ea0565b60026003811115610b2757610b266114e0565b5b816003811115610b3a57610b396114e0565b5b03610e64576000806000808560800151806020019051810190610b5d91906120fe565b93509350935093508167ffffffffffffffff16421015610bb2576040517f08c379a0000000000000000000000000000000000000000000000000000000008152600401610ba9906121b1565b60405180910390fd5b60006005600089815260200190815260200160002060009054906101000a900460ff16905060048160ff1610610c1d576040517f08c379a0000000000000000000000000000000000000000000000000000000008152600401610c149061221d565b60405180910390fd5b60008267ffffffffffffffff168467ffffffffffffffff1642610c40919061223d565b610c4a91906122a0565b90508160ff168111610c91576040517f08c379a0000000000000000000000000000000000000000000000000000000008152600401610c889061231d565b60405180910390fd5b6000600586610ca091906122a0565b90506000818460ff1684610cb4919061223d565b610cbe919061233d565b905080471015610d03576040517f08c379a0000000000000000000000000000000000000000000000000000000008152600401610cfa9061209e565b60405180910390fd5b60008873ffffffffffffffffffffffffffffffffffffffff1682604051610d2990611d36565b60006040518083038185875af1925050503d8060008114610d66576040519150601f19603f3d011682016040523d82523d6000602084013e610d6b565b606091505b5050905080610daf576040517f08c379a0000000000000000000000000000000000000000000000000000000008152600401610da690611d97565b60405180910390fd5b83600560008e815260200190815260200160002060006101000a81548160ff021916908360ff16021790555060018b600001906003811115610df457610df36114e0565b5b90816003811115610e0857610e076114e0565b5b81525050428b60600181815250508b7fe54f376c16c9814fd3dfc2049ffe795da7f2707e2c8ee002b1190c0f7d3ea4218b848e60800151604051610e4e93929190611db7565b60405180910390a2505050505050505050610e9f565b6040517f08c379a0000000000000000000000000000000000000000000000000000000008152600401610e96906123cb565b60405180910390fd5b5b5b505050565b60008060009054906101000a900473ffffffffffffffffffffffffffffffffffffffff16905090565b60004233600354604051602001610ee893929190612454565b60405160208183030381529060405280519060200120905090565b610f0b611094565b600073ffffffffffffffffffffffffffffffffffffffff168173ffffffffffffffffffffffffffffffffffffffff1603610f7d5760006040517f1e4fbdf7000000000000000000000000000000000000000000000000000000008152600401610f749190611442565b60405180910390fd5b610f868161111b565b50565b60046020528060005260406000206000915090508060000160009054906101000a900460ff16908060000160019054906101000a900460ff16908060000160029054906101000a900460ff1690806001015490806002018054610feb9061184f565b80601f01602080910402602001604051908101604052809291908181526020018280546110179061184f565b80156110645780601f1061103957610100808354040283529160200191611064565b820191906000526020600020905b81548152906001019060200180831161104757829003601f168201915b5050505050905085565b600260009054906101000a900473ffffffffffffffffffffffffffffffffffffffff1681565b61109c6111df565b73ffffffffffffffffffffffffffffffffffffffff166110ba610ea6565b73ffffffffffffffffffffffffffffffffffffffff1614611119576110dd6111df565b6040517f118cdaa70000000000000000000000000000000000000000000000000000000081526004016111109190611442565b60405180910390fd5b565b60008060009054906101000a900473ffffffffffffffffffffffffffffffffffffffff169050816000806101000a81548173ffffffffffffffffffffffffffffffffffffffff021916908373ffffffffffffffffffffffffffffffffffffffff1602179055508173ffffffffffffffffffffffffffffffffffffffff168173ffffffffffffffffffffffffffffffffffffffff167f8be0079c531659141344cd1fd0a4f28419497f9722a3daafe3b4186f6b6457e060405160405180910390a35050565b600033905090565b5080546111f39061184f565b6000825580601f106112055750611224565b601f0160209004906000526020600020908101906112239190611227565b5b50565b5b80821115611240576000816000905550600101611228565b5090565b6000819050919050565b61125781611244565b82525050565b6000602082019050611272600083018461124e565b92915050565b6000604051905090565b600080fd5b600080fd5b6000819050919050565b61129f8161128c565b81146112aa57600080fd5b50565b6000813590506112bc81611296565b92915050565b600060ff82169050919050565b6112d8816112c2565b81146112e357600080fd5b50565b6000813590506112f5816112cf565b92915050565b600080fd5b600080fd5b600080fd5b60008083601f8401126113205761131f6112fb565b5b8235905067ffffffffffffffff81111561133d5761133c611300565b5b60208301915083600182028301111561135957611358611305565b5b9250929050565b6000806000806060858703121561137a57611379611282565b5b6000611388878288016112ad565b9450506020611399878288016112e6565b935050604085013567ffffffffffffffff8111156113ba576113b9611287565b5b6113c68782880161130a565b925092505092959194509250565b6000602082840312156113ea576113e9611282565b5b60006113f8848285016112ad565b91505092915050565b600073ffffffffffffffffffffffffffffffffffffffff82169050919050565b600061142c82611401565b9050919050565b61143c81611421565b82525050565b60006020820190506114576000830184611433565b92915050565b6114668161128c565b82525050565b6000602082019050611481600083018461145d565b92915050565b61149081611421565b811461149b57600080fd5b50565b6000813590506114ad81611487565b92915050565b6000602082840312156114c9576114c8611282565b5b60006114d78482850161149e565b91505092915050565b7f4e487b7100000000000000000000000000000000000000000000000000000000600052602160045260246000fd5b600481106115205761151f6114e0565b5b50565b60008190506115318261150f565b919050565b600061154182611523565b9050919050565b61155181611536565b82525050565b60048110611568576115676114e0565b5b50565b600081905061157982611557565b919050565b60006115898261156b565b9050919050565b6115998161157e565b82525050565b60008115159050919050565b6115b48161159f565b82525050565b600081519050919050565b600082825260208201905092915050565b60005b838110156115f45780820151818401526020810190506115d9565b60008484015250505050565b6000601f19601f8301169050919050565b600061161c826115ba565b61162681856115c5565b93506116368185602086016115d6565b61163f81611600565b840191505092915050565b600060a08201905061165f6000830188611548565b61166c6020830187611590565b61167960408301866115ab565b611686606083018561124e565b81810360808301526116988184611611565b90509695505050505050565b600082825260208201905092915050565b7f4f6e6c7920556e69717565204944730000000000000000000000000000000000600082015250565b60006116eb600f836116a4565b91506116f6826116b5565b602082019050919050565b6000602082019050818103600083015261171a816116de565b9050919050565b7f496e76616c696420494400000000000000000000000000000000000000000000600082015250565b6000611757600a836116a4565b915061176282611721565b602082019050919050565b600060208201905081810360008301526117868161174a565b9050919050565b7f4e487b7100000000000000000000000000000000000000000000000000000000600052601160045260246000fd5b60006117c7826112c2565b91506117d2836112c2565b9250828203905060ff8111156117eb576117ea61178d565b5b92915050565b7f4e487b7100000000000000000000000000000000000000000000000000000000600052604160045260246000fd5b7f4e487b7100000000000000000000000000000000000000000000000000000000600052602260045260246000fd5b6000600282049050600182168061186757607f821691505b60208210810361187a57611879611820565b5b50919050565b60008190508160005260206000209050919050565b60006020601f8301049050919050565b600082821b905092915050565b6000600883026118e27fffffffffffffffffffffffffffffffffffffffffffffffffffffffffffffffff826118a5565b6118ec86836118a5565b95508019841693508086168417925050509392505050565b6000819050919050565b600061192961192461191f84611244565b611904565b611244565b9050919050565b6000819050919050565b6119438361190e565b61195761194f82611930565b8484546118b2565b825550505050565b600090565b61196c61195f565b61197781848461193a565b505050565b5b8181101561199b57611990600082611964565b60018101905061197d565b5050565b601f8211156119e0576119b181611880565b6119ba84611895565b810160208510156119c9578190505b6119dd6119d585611895565b83018261197c565b50505b505050565b600082821c905092915050565b6000611a03600019846008026119e5565b1980831691505092915050565b6000611a1c83836119f2565b9150826002028217905092915050565b611a35826115ba565b67ffffffffffffffff811115611a4e57611a4d6117f1565b5b611a58825461184f565b611a6382828561199f565b600060209050601f831160018114611a965760008415611a84578287015190505b611a8e8582611a10565b865550611af6565b601f198416611aa486611880565b60005b82811015611acc57848901518255600182019150602085019450602081019050611aa7565b86831015611ae95784890151611ae5601f8916826119f2565b8355505b6001600288020188555050505b505050505050565b6000611b0982611244565b9150611b1483611244565b9250828201905080821115611b2c57611b2b61178d565b5b92915050565b82818337600083830152505050565b6000611b4d83856115c5565b9350611b5a838584611b32565b611b6383611600565b840190509392505050565b6000604082019050611b836000830186611590565b8181036020830152611b96818486611b41565b9050949350505050565b7f416374696f6e20646f6573206e6f742065786973740000000000000000000000600082015250565b6000611bd66015836116a4565b9150611be182611ba0565b602082019050919050565b60006020820190508181036000830152611c0581611bc9565b9050919050565b6000611c1782611401565b9050919050565b611c2781611c0c565b8114611c3257600080fd5b50565b600081519050611c4481611c1e565b92915050565b611c5381611244565b8114611c5e57600080fd5b50565b600081519050611c7081611c4a565b92915050565b600063ffffffff82169050919050565b611c8f81611c76565b8114611c9a57600080fd5b50565b600081519050611cac81611c86565b92915050565b600080600060608486031215611ccb57611cca611282565b5b6000611cd986828701611c35565b9350506020611cea86828701611c61565b9250506040611cfb86828701611c9d565b9150509250925092565b600081905092915050565b50565b6000611d20600083611d05565b9150611d2b82611d10565b600082019050919050565b6000611d4182611d13565b9150819050919050565b7f4661696c656420746f2073656e64204574686572000000000000000000000000600082015250565b6000611d816014836116a4565b9150611d8c82611d4b565b602082019050919050565b60006020820190508181036000830152611db081611d74565b9050919050565b6000606082019050611dcc6000830186611590565b611dd9602083018561124e565b8181036040830152611deb8184611611565b9050949350505050565b611dfe82611600565b810181811067ffffffffffffffff82111715611e1d57611e1c6117f1565b5b80604052505050565b6000611e30611278565b9050611e3c8282611df5565b919050565b600067ffffffffffffffff821115611e5c57611e5b6117f1565b5b602082029050602081019050919050565b600080fd5b600081519050611e8181611487565b92915050565b600060408284031215611e9d57611e9c611e6d565b5b611ea76040611e26565b90506000611eb784828501611e72565b6000830152506020611ecb84828501611c61565b60208301525092915050565b6000611eea611ee584611e41565b611e26565b90508083825260208201905060408402830185811115611f0d57611f0c611305565b5b835b81811015611f365780611f228882611e87565b845260208401935050604081019050611f0f565b5050509392505050565b600082601f830112611f5557611f546112fb565b5b8151611f65848260208601611ed7565b91505092915050565b600060208284031215611f8457611f83611282565b5b600082015167ffffffffffffffff811115611fa257611fa1611287565b5b611fae84828501611f40565b91505092915050565b7f45786365656473206d61782062617463682073697a6500000000000000000000600082015250565b6000611fed6016836116a4565b9150611ff882611fb7565b602082019050919050565b6000602082019050818103600083015261201c81611fe0565b9050919050565b7f4e487b7100000000000000000000000000000000000000000000000000000000600052603260045260246000fd5b7f496e73756666696369656e742042616c616e6365000000000000000000000000600082015250565b60006120886014836116a4565b915061209382612052565b602082019050919050565b600060208201905081810360008301526120b78161207b565b9050919050565b600067ffffffffffffffff82169050919050565b6120db816120be565b81146120e657600080fd5b50565b6000815190506120f8816120d2565b92915050565b6000806000806080858703121561211857612117611282565b5b600061212687828801611c35565b945050602061213787828801611c61565b9350506040612148878288016120e9565b9250506060612159878288016120e9565b91505092959194509250565b7f446561646c696e65206e6f742072656163686564000000000000000000000000600082015250565b600061219b6014836116a4565b91506121a682612165565b602082019050919050565b600060208201905081810360008301526121ca8161218e565b9050919050565b7f4d61782073747265616d73207265616368656400000000000000000000000000600082015250565b60006122076013836116a4565b9150612212826121d1565b602082019050919050565b60006020820190508181036000830152612236816121fa565b9050919050565b600061224882611244565b915061225383611244565b925082820390508181111561226b5761226a61178d565b5b92915050565b7f4e487b7100000000000000000000000000000000000000000000000000000000600052601260045260246000fd5b60006122ab82611244565b91506122b683611244565b9250826122c6576122c5612271565b5b828204905092915050565b7f4e6f206e657720636c6966667320657868617573746564000000000000000000600082015250565b60006123076017836116a4565b9150612312826122d1565b602082019050919050565b60006020820190508181036000830152612336816122fa565b9050919050565b600061234882611244565b915061235383611244565b925082820261236181611244565b915082820484148315176123785761237761178d565b5b5092915050565b7f496e76616c696420416374696f6e205479706500000000000000000000000000600082015250565b60006123b56013836116a4565b91506123c08261237f565b602082019050919050565b600060208201905081810360008301526123e4816123a8565b9050919050565b6000819050919050565b61240661240182611244565b6123eb565b82525050565b60008160601b9050919050565b60006124248261240c565b9050919050565b600061243682612419565b9050919050565b61244e61244982611421565b61242b565b82525050565b600061246082866123f5565b602082019150612470828561243d565b60148201915061248082846123f5565b60208201915081905094935050505056fea264697066735822122052dc1e55c1bec1f7fd5dd7671bf03d912c55d34babc4ae7b697555cc8ef2d10e64736f6c634300081c0033",
  "linkReferences": {},
  "deployedLinkReferences": {}
}